{
  "address": "0xF2E324FB8BF5787229fb1379583dA3c6E85b5c8e",
  "abi": [
    {
      "inputs": [
        {
          "internalType": "address",
          "name": "svgLibrary",
          "type": "address"
        }
      ],
      "stateMutability": "nonpayable",
      "type": "constructor"
    },
    {
      "anonymous": false,
      "inputs": [
        {
          "indexed": true,
          "internalType": "address",
          "name": "previousOwner",
          "type": "address"
        },
        {
          "indexed": true,
          "internalType": "address",
          "name": "newOwner",
          "type": "address"
        }
      ],
      "name": "OwnershipTransferred",
      "type": "event"
    },
    {
      "inputs": [
        {
          "internalType": "uint8",
          "name": "element",
          "type": "uint8"
        },
        {
          "internalType": "uint8",
          "name": "position",
          "type": "uint8"
        }
      ],
      "name": "getElement",
      "outputs": [
        {
          "internalType": "string",
          "name": "",
          "type": "string"
        }
      ],
      "stateMutability": "view",
      "type": "function"
    },
    {
      "inputs": [],
      "name": "getEncoding",
      "outputs": [
        {
          "internalType": "string",
          "name": "",
          "type": "string"
        }
      ],
      "stateMutability": "view",
      "type": "function"
    },
    {
      "inputs": [],
      "name": "owner",
      "outputs": [
        {
          "internalType": "address",
          "name": "",
          "type": "address"
        }
      ],
      "stateMutability": "view",
      "type": "function"
    },
    {
      "inputs": [
        {
          "internalType": "bytes",
          "name": "input",
          "type": "bytes"
        }
      ],
      "name": "render",
      "outputs": [
        {
          "internalType": "string",
          "name": "",
          "type": "string"
        }
      ],
      "stateMutability": "view",
      "type": "function"
    },
    {
      "inputs": [],
      "name": "renounceOwnership",
      "outputs": [],
      "stateMutability": "nonpayable",
      "type": "function"
    },
    {
      "inputs": [
        {
          "internalType": "uint8",
          "name": "element",
          "type": "uint8"
        },
        {
          "internalType": "uint8",
          "name": "position",
          "type": "uint8"
        },
        {
          "internalType": "string",
          "name": "svg",
          "type": "string"
        }
      ],
      "name": "setElement",
      "outputs": [],
      "stateMutability": "nonpayable",
      "type": "function"
    },
    {
      "inputs": [
        {
          "internalType": "address",
          "name": "newOwner",
          "type": "address"
        }
      ],
      "name": "transferOwnership",
      "outputs": [],
      "stateMutability": "nonpayable",
      "type": "function"
    }
  ],
  "transactionHash": "0xb8e57c84b4dc118dac842607e47f5c5a9c109bed541ea2830454984b3d8c5bd9",
  "args": [
    "0x848f23bA205C79AEc2E7cabfF9Afd88273b29703"
  ],
  "numDeployments": 1,
  "solcInputHash": "a3538823bd4bd6628d72aff10f46e6d5",
  "bytecode": "0x60c060405260076080908152662875696e74382960c81b60a0526002906100269082610171565b5034801561003357600080fd5b5060405162000aea38038062000aea83398101604081905261005491610230565b61005d33610082565b600180546001600160a01b0319166001600160a01b0392909216919091179055610260565b600080546001600160a01b038381166001600160a01b0319831681178455604051919092169283917f8be0079c531659141344cd1fd0a4f28419497f9722a3daafe3b4186f6b6457e09190a35050565b634e487b7160e01b600052604160045260246000fd5b600181811c908216806100fc57607f821691505b60208210810361011c57634e487b7160e01b600052602260045260246000fd5b50919050565b601f82111561016c57600081815260208120601f850160051c810160208610156101495750805b601f850160051c820191505b8181101561016857828155600101610155565b5050505b505050565b81516001600160401b0381111561018a5761018a6100d2565b61019e8161019884546100e8565b84610122565b602080601f8311600181146101d357600084156101bb5750858301515b600019600386901b1c1916600185901b178555610168565b600085815260208120601f198616915b82811015610202578886015182559484019460019091019084016101e3565b50858210156102205787850151600019600388901b60f8161c191681555b5050505050600190811b01905550565b60006020828403121561024257600080fd5b81516001600160a01b038116811461025957600080fd5b9392505050565b61087a80620002706000396000f3fe608060405234801561001057600080fd5b506004361061007d5760003560e01c80638c4fb8051161005b5780638c4fb805146100c85780638da5cb5b146100db578063b1cd921f146100f6578063f2fde38b146100fe57600080fd5b80631b4aa87314610082578063316df61e146100ab578063715018a6146100be575b600080fd5b6100956100903660046104bb565b610111565b6040516100a291906104f4565b60405180910390f35b6100956100b93660046105d5565b6101c5565b6100c66101d6565b005b6100c66100d6366004610626565b6101ea565b6000546040516001600160a01b0390911681526020016100a2565b610095610221565b6100c661010c36600461069c565b6102b3565b60ff808316600090815260036020908152604080832093851683529290522080546060919061013f906106cc565b80601f016020809104026020016040519081016040528092919081815260200182805461016b906106cc565b80156101b85780601f1061018d576101008083540402835291602001916101b8565b820191906000526020600020905b81548152906001019060200180831161019b57829003601f168201915b5050505050905092915050565b60606101d082610331565b92915050565b6101de610402565b6101e8600061045c565b565b6101f2610402565b60ff808416600090815260036020908152604080832093861683529290522061021b8282610755565b50505050565b606060028054610230906106cc565b80601f016020809104026020016040519081016040528092919081815260200182805461025c906106cc565b80156102a95780601f1061027e576101008083540402835291602001916102a9565b820191906000526020600020905b81548152906001019060200180831161028c57829003601f168201915b5050505050905090565b6102bb610402565b6001600160a01b0381166103255760405162461bcd60e51b815260206004820152602660248201527f4f776e61626c653a206e6577206f776e657220697320746865207a65726f206160448201526564647265737360d01b60648201526084015b60405180910390fd5b61032e8161045c565b50565b60606000808380602001905181019061034a9190610815565b60ff808316600090815260036020908152604080832093851683529290522080549294509092509061037b906106cc565b80601f01602080910402602001604051908101604052809291908181526020018280546103a7906106cc565b80156103f45780601f106103c9576101008083540402835291602001916103f4565b820191906000526020600020905b8154815290600101906020018083116103d757829003601f168201915b505050505092505050919050565b6000546001600160a01b031633146101e85760405162461bcd60e51b815260206004820181905260248201527f4f776e61626c653a2063616c6c6572206973206e6f7420746865206f776e6572604482015260640161031c565b600080546001600160a01b038381166001600160a01b0319831681178455604051919092169283917f8be0079c531659141344cd1fd0a4f28419497f9722a3daafe3b4186f6b6457e09190a35050565b60ff8116811461032e57600080fd5b600080604083850312156104ce57600080fd5b82356104d9816104ac565b915060208301356104e9816104ac565b809150509250929050565b600060208083528351808285015260005b8181101561052157858101830151858201604001528201610505565b81811115610533576000604083870101525b50601f01601f1916929092016040019392505050565b634e487b7160e01b600052604160045260246000fd5b600067ffffffffffffffff8084111561057a5761057a610549565b604051601f8501601f19908116603f011681019082821181831017156105a2576105a2610549565b816040528093508581528686860111156105bb57600080fd5b858560208301376000602087830101525050509392505050565b6000602082840312156105e757600080fd5b813567ffffffffffffffff8111156105fe57600080fd5b8201601f8101841361060f57600080fd5b61061e8482356020840161055f565b949350505050565b60008060006060848603121561063b57600080fd5b8335610646816104ac565b92506020840135610656816104ac565b9150604084013567ffffffffffffffff81111561067257600080fd5b8401601f8101861361068357600080fd5b6106928682356020840161055f565b9150509250925092565b6000602082840312156106ae57600080fd5b81356001600160a01b03811681146106c557600080fd5b9392505050565b600181811c908216806106e057607f821691505b60208210810361070057634e487b7160e01b600052602260045260246000fd5b50919050565b601f82111561075057600081815260208120601f850160051c8101602086101561072d5750805b601f850160051c820191505b8181101561074c57828155600101610739565b5050505b505050565b815167ffffffffffffffff81111561076f5761076f610549565b6107838161077d84546106cc565b84610706565b602080601f8311600181146107b857600084156107a05750858301515b600019600386901b1c1916600185901b17855561074c565b600085815260208120601f198616915b828110156107e7578886015182559484019460019091019084016107c8565b50858210156108055787850151600019600388901b60f8161c191681555b5050505050600190811b01905550565b6000806040838503121561082857600080fd5b8251610833816104ac565b60208401519092506104e9816104ac56fea26469706673582212205bad34ed119466928c6e610298c951469338ad507d95690e6eee685cd59269ec64736f6c634300080f0033",
  "devdoc": {
    "kind": "dev",
    "methods": {
      "owner()": {
        "details": "Returns the address of the current owner."
      },
      "renounceOwnership()": {
        "details": "Leaves the contract without owner. It will not be possible to call `onlyOwner` functions anymore. Can only be called by the current owner. NOTE: Renouncing ownership will leave the contract without an owner, thereby removing any functionality that is only available to the owner."
      },
      "transferOwnership(address)": {
        "details": "Transfers ownership of the contract to a new account (`newOwner`). Can only be called by the current owner."
      }
    },
    "version": 1
  },
  "userdoc": {
    "kind": "user",
    "methods": {},
    "version": 1
  },
  "storageLayout": {
    "storage": [
      {
        "astId": 2538,
        "contract": "contracts/ImpactCardSvgModule.sol:ImpactCardSvgModule",
        "label": "_owner",
        "offset": 0,
        "slot": "0",
        "type": "t_address"
      },
      {
        "astId": 6170,
        "contract": "contracts/ImpactCardSvgModule.sol:ImpactCardSvgModule",
        "label": "_svgLibrary",
        "offset": 0,
        "slot": "1",
        "type": "t_contract(SVGLibrary)1256"
      },
      {
        "astId": 6173,
        "contract": "contracts/ImpactCardSvgModule.sol:ImpactCardSvgModule",
        "label": "_encoding",
        "offset": 0,
        "slot": "2",
        "type": "t_string_storage"
      },
      {
        "astId": 6194,
        "contract": "contracts/ImpactCardSvgModule.sol:ImpactCardSvgModule",
        "label": "_elements",
        "offset": 0,
        "slot": "3",
        "type": "t_mapping(t_uint8,t_mapping(t_uint8,t_string_storage))"
      }
    ],
    "types": {
      "t_address": {
        "encoding": "inplace",
        "label": "address",
        "numberOfBytes": "20"
      },
      "t_contract(SVGLibrary)1256": {
        "encoding": "inplace",
        "label": "contract SVGLibrary",
        "numberOfBytes": "20"
      },
      "t_mapping(t_uint8,t_mapping(t_uint8,t_string_storage))": {
        "encoding": "mapping",
        "key": "t_uint8",
        "label": "mapping(uint8 => mapping(uint8 => string))",
        "numberOfBytes": "32",
        "value": "t_mapping(t_uint8,t_string_storage)"
      },
      "t_mapping(t_uint8,t_string_storage)": {
        "encoding": "mapping",
        "key": "t_uint8",
        "label": "mapping(uint8 => string)",
        "numberOfBytes": "32",
        "value": "t_string_storage"
      },
      "t_string_storage": {
        "encoding": "bytes",
        "label": "string",
        "numberOfBytes": "32"
      },
      "t_uint8": {
        "encoding": "inplace",
        "label": "uint8",
        "numberOfBytes": "1"
      }
    }
  }
}