{
  "address": "0x44969b9374F1834d7c9Cd6c6A7b2Ef6Ad1D53D21",
  "abi": [
    {
      "inputs": [
        {
          "internalType": "address",
          "name": "_impactMarket",
          "type": "address"
        },
        {
          "internalType": "address",
          "name": "_ethicHub",
          "type": "address"
        },
        {
          "internalType": "address",
          "name": "admin",
          "type": "address"
        }
      ],
      "stateMutability": "nonpayable",
      "type": "constructor"
    },
    {
      "anonymous": false,
      "inputs": [
        {
          "indexed": true,
          "internalType": "address",
          "name": "previousOwner",
          "type": "address"
        },
        {
          "indexed": true,
          "internalType": "address",
          "name": "newOwner",
          "type": "address"
        }
      ],
      "name": "OwnershipTransferred",
      "type": "event"
    },
    {
      "anonymous": false,
      "inputs": [
        {
          "indexed": true,
          "internalType": "bytes32",
          "name": "role",
          "type": "bytes32"
        },
        {
          "indexed": true,
          "internalType": "bytes32",
          "name": "previousAdminRole",
          "type": "bytes32"
        },
        {
          "indexed": true,
          "internalType": "bytes32",
          "name": "newAdminRole",
          "type": "bytes32"
        }
      ],
      "name": "RoleAdminChanged",
      "type": "event"
    },
    {
      "anonymous": false,
      "inputs": [
        {
          "indexed": true,
          "internalType": "bytes32",
          "name": "role",
          "type": "bytes32"
        },
        {
          "indexed": true,
          "internalType": "address",
          "name": "account",
          "type": "address"
        },
        {
          "indexed": true,
          "internalType": "address",
          "name": "sender",
          "type": "address"
        }
      ],
      "name": "RoleGranted",
      "type": "event"
    },
    {
      "anonymous": false,
      "inputs": [
        {
          "indexed": true,
          "internalType": "bytes32",
          "name": "role",
          "type": "bytes32"
        },
        {
          "indexed": true,
          "internalType": "address",
          "name": "account",
          "type": "address"
        },
        {
          "indexed": true,
          "internalType": "address",
          "name": "sender",
          "type": "address"
        }
      ],
      "name": "RoleRevoked",
      "type": "event"
    },
    {
      "inputs": [],
      "name": "DEFAULT_ADMIN_ROLE",
      "outputs": [
        {
          "internalType": "bytes32",
          "name": "",
          "type": "bytes32"
        }
      ],
      "stateMutability": "view",
      "type": "function"
    },
    {
      "inputs": [],
      "name": "STAFF_ROLE",
      "outputs": [
        {
          "internalType": "bytes32",
          "name": "",
          "type": "bytes32"
        }
      ],
      "stateMutability": "view",
      "type": "function"
    },
    {
      "inputs": [
        {
          "internalType": "address",
          "name": "account",
          "type": "address"
        }
      ],
      "name": "addAdmin",
      "outputs": [],
      "stateMutability": "nonpayable",
      "type": "function"
    },
    {
      "inputs": [
        {
          "internalType": "address",
          "name": "account",
          "type": "address"
        }
      ],
      "name": "addStaff",
      "outputs": [],
      "stateMutability": "nonpayable",
      "type": "function"
    },
    {
      "inputs": [
        {
          "internalType": "address",
          "name": "account",
          "type": "address"
        }
      ],
      "name": "disableGitcoinDonated",
      "outputs": [],
      "stateMutability": "nonpayable",
      "type": "function"
    },
    {
      "inputs": [
        {
          "internalType": "address",
          "name": "account",
          "type": "address"
        }
      ],
      "name": "enableGitcoinDonated",
      "outputs": [],
      "stateMutability": "nonpayable",
      "type": "function"
    },
    {
      "inputs": [],
      "name": "ethicHubAddress",
      "outputs": [
        {
          "internalType": "address",
          "name": "",
          "type": "address"
        }
      ],
      "stateMutability": "view",
      "type": "function"
    },
    {
      "inputs": [
        {
          "internalType": "bytes32",
          "name": "role",
          "type": "bytes32"
        }
      ],
      "name": "getRoleAdmin",
      "outputs": [
        {
          "internalType": "bytes32",
          "name": "",
          "type": "bytes32"
        }
      ],
      "stateMutability": "view",
      "type": "function"
    },
    {
      "inputs": [
        {
          "internalType": "bytes32",
          "name": "role",
          "type": "bytes32"
        },
        {
          "internalType": "address",
          "name": "account",
          "type": "address"
        }
      ],
      "name": "grantRole",
      "outputs": [],
      "stateMutability": "nonpayable",
      "type": "function"
    },
    {
      "inputs": [
        {
          "internalType": "bytes32",
          "name": "role",
          "type": "bytes32"
        },
        {
          "internalType": "address",
          "name": "account",
          "type": "address"
        }
      ],
      "name": "hasRole",
      "outputs": [
        {
          "internalType": "bool",
          "name": "",
          "type": "bool"
        }
      ],
      "stateMutability": "view",
      "type": "function"
    },
    {
      "inputs": [],
      "name": "impactMarketAddress",
      "outputs": [
        {
          "internalType": "address",
          "name": "",
          "type": "address"
        }
      ],
      "stateMutability": "view",
      "type": "function"
    },
    {
      "inputs": [],
      "name": "owner",
      "outputs": [
        {
          "internalType": "address",
          "name": "",
          "type": "address"
        }
      ],
      "stateMutability": "view",
      "type": "function"
    },
    {
      "inputs": [
        {
          "internalType": "address",
          "name": "account",
          "type": "address"
        }
      ],
      "name": "removeAdmin",
      "outputs": [],
      "stateMutability": "nonpayable",
      "type": "function"
    },
    {
      "inputs": [
        {
          "internalType": "address",
          "name": "account",
          "type": "address"
        }
      ],
      "name": "removeStaff",
      "outputs": [],
      "stateMutability": "nonpayable",
      "type": "function"
    },
    {
      "inputs": [],
      "name": "renounceOwnership",
      "outputs": [],
      "stateMutability": "nonpayable",
      "type": "function"
    },
    {
      "inputs": [
        {
          "internalType": "bytes32",
          "name": "role",
          "type": "bytes32"
        },
        {
          "internalType": "address",
          "name": "account",
          "type": "address"
        }
      ],
      "name": "renounceRole",
      "outputs": [],
      "stateMutability": "nonpayable",
      "type": "function"
    },
    {
      "inputs": [
        {
          "internalType": "bytes32",
          "name": "role",
          "type": "bytes32"
        },
        {
          "internalType": "address",
          "name": "account",
          "type": "address"
        }
      ],
      "name": "revokeRole",
      "outputs": [],
      "stateMutability": "nonpayable",
      "type": "function"
    },
    {
      "inputs": [
        {
          "internalType": "address",
          "name": "_ethicHubAddress",
          "type": "address"
        }
      ],
      "name": "setEthicHubAddress",
      "outputs": [],
      "stateMutability": "nonpayable",
      "type": "function"
    },
    {
      "inputs": [
        {
          "internalType": "address",
          "name": "_impactMarketAddress",
          "type": "address"
        }
      ],
      "name": "setImpactMarketAddress",
      "outputs": [],
      "stateMutability": "nonpayable",
      "type": "function"
    },
    {
      "inputs": [
        {
          "internalType": "bytes32",
          "name": "id",
          "type": "bytes32"
        },
        {
          "internalType": "address",
          "name": "account",
          "type": "address"
        }
      ],
      "name": "status",
      "outputs": [
        {
          "internalType": "bool",
          "name": "",
          "type": "bool"
        }
      ],
      "stateMutability": "view",
      "type": "function"
    },
    {
      "inputs": [
        {
          "internalType": "bytes4",
          "name": "interfaceId",
          "type": "bytes4"
        }
      ],
      "name": "supportsInterface",
      "outputs": [
        {
          "internalType": "bool",
          "name": "",
          "type": "bool"
        }
      ],
      "stateMutability": "view",
      "type": "function"
    },
    {
      "inputs": [
        {
          "internalType": "address",
          "name": "newOwner",
          "type": "address"
        }
      ],
      "name": "transferOwnership",
      "outputs": [],
      "stateMutability": "nonpayable",
      "type": "function"
    }
  ],
  "transactionHash": "0x5a210fe244791d1b477f2dd5d8e762cca66ddebd24ea7ffaa9a34c5187847ccd",
  "args": [
    "0x1C51657af2ceBA3D5492bA0c5A17E562F7ba6593",
    "0xaD2F9f4CD2Ae4f2dD2841EB1ea7e162fb4767D4D",
    "0xA82922D5eA8b79c6363Dd71bC168Ad993A85413E"
  ],
  "numDeployments": 1,
  "solcInputHash": "a3538823bd4bd6628d72aff10f46e6d5",
  "bytecode": "0x60806040523480156200001157600080fd5b5060405162001082380380620010828339810160408190526200003491620001b0565b6200003f33620000ab565b6200004c600082620000fb565b620000787f5620a1113a72b02a617976b3f6b15600dd7a8b3a916a9ca01e23119d989a054382620000fb565b50600280546001600160a01b039384166001600160a01b03199182161790915560038054929093169116179055620001fa565b600080546001600160a01b038381166001600160a01b0319831681178455604051919092169283917f8be0079c531659141344cd1fd0a4f28419497f9722a3daafe3b4186f6b6457e09190a35050565b6200010782826200010b565b5050565b60008281526001602090815260408083206001600160a01b038516845290915290205460ff16620001075760008281526001602081815260408084206001600160a01b0386168086529252808420805460ff19169093179092559051339285917f2f8788117e7eff1d82e926ec794901d17c78024a50270940304540a733656f0d9190a45050565b80516001600160a01b0381168114620001ab57600080fd5b919050565b600080600060608486031215620001c657600080fd5b620001d18462000193565b9250620001e16020850162000193565b9150620001f16040850162000193565b90509250925092565b610e78806200020a6000396000f3fe608060405234801561001057600080fd5b50600436106101425760003560e01c806377364ca5116100b8578063a217fddf1161007c578063a217fddf146102ba578063c041fdc5146102c2578063c4522c92146102d5578063d547741f146102e8578063d8ed2b3c146102fb578063f2fde38b1461030e57600080fd5b806377364ca51461025b57806385290fa11461026e5780638da5cb5b1461028357806391d1485414610294578063a07e57f9146102a757600080fd5b8063248a9ca31161010a578063248a9ca3146101d55780632f2ff15d1461020757806336568abe1461021a578063522e4c8a1461022d5780637048027514610240578063715018a61461025357600080fd5b806301ffc9a71461014757806308be25cb1461016f5780630f3f90cc146101845780631785f53c146101af5780631846c9f9146101c2575b600080fd5b61015a610155366004610bb6565b610321565b60405190151581526020015b60405180910390f35b61018261017d366004610bfc565b610358565b005b600354610197906001600160a01b031681565b6040516001600160a01b039091168152602001610166565b6101826101bd366004610bfc565b610382565b6101826101d0366004610bfc565b6103c0565b6101f96101e3366004610c17565b6000908152600160208190526040909120015490565b604051908152602001610166565b610182610215366004610c30565b610408565b610182610228366004610c30565b610433565b61018261023b366004610bfc565b6104b1565b61018261024e366004610bfc565b6104f0565b610182610522565b610182610269366004610bfc565b610536565b6101f9600080516020610e2383398151915281565b6000546001600160a01b0316610197565b61015a6102a2366004610c30565b610560565b6101826102b5366004610bfc565b61058b565b6101f9600081565b600254610197906001600160a01b031681565b6101826102e3366004610bfc565b6105e3565b6101826102f6366004610c30565b61061e565b61015a610309366004610c30565b610644565b61018261031c366004610bfc565b6107b3565b60006001600160e01b03198216637965db0b60e01b148061035257506301ffc9a760e01b6001600160e01b03198316145b92915050565b610360610829565b600280546001600160a01b0319166001600160a01b0392909216919091179055565b61038d600033610560565b6103b25760405162461bcd60e51b81526004016103a990610c5c565b60405180910390fd5b6103bd60008261061e565b50565b6103cb600033610560565b6103e75760405162461bcd60e51b81526004016103a990610c5c565b6001600160a01b03166000908152600460205260409020805460ff19169055565b6000828152600160208190526040909120015461042481610883565b61042e838361088d565b505050565b6001600160a01b03811633146104a35760405162461bcd60e51b815260206004820152602f60248201527f416363657373436f6e74726f6c3a2063616e206f6e6c792072656e6f756e636560448201526e103937b632b9903337b91039b2b63360891b60648201526084016103a9565b6104ad82826108f8565b5050565b6104bc600033610560565b6104d85760405162461bcd60e51b81526004016103a990610c5c565b6103bd600080516020610e2383398151915282610408565b6104fb600033610560565b6105175760405162461bcd60e51b81526004016103a990610c5c565b6103bd600082610408565b61052a610829565b610534600061095f565b565b61053e610829565b600380546001600160a01b0319166001600160a01b0392909216919091179055565b60009182526001602090815260408084206001600160a01b0393909316845291905290205460ff1690565b6105a3600080516020610e2383398151915233610560565b6105bf5760405162461bcd60e51b81526004016103a990610c5c565b6001600160a01b03166000908152600460205260409020805460ff19166001179055565b6105ee600033610560565b61060a5760405162461bcd60e51b81526004016103a990610c5c565b6103bd600080516020610e23833981519152825b6000828152600160208190526040909120015461063a81610883565b61042e83836108f8565b6000600183900361067157506001600160a01b03811660009081526004602052604090205460ff16610352565b6011839003610712576002546001600160a01b031661069257506000610352565b60025460405163f223c97360e01b81526001600160a01b03848116600483015290911690600090829063f223c973906024015b602060405180830381865afa1580156106e2573d6000803e3d6000fd5b505050506040513d601f19601f820116820180604052508101906107069190610ca1565b15159250610352915050565b61011183900361076b576003546001600160a01b031661073457506000610352565b6003546040516370a0823160e01b81526001600160a01b0384811660048301529091169060009082906370a08231906024016106c5565b60405162461bcd60e51b815260206004820152601b60248201527f496d70616374436172644f7261636c653a696e76616c69642d6964000000000060448201526064016103a9565b6107bb610829565b6001600160a01b0381166108205760405162461bcd60e51b815260206004820152602660248201527f4f776e61626c653a206e6577206f776e657220697320746865207a65726f206160448201526564647265737360d01b60648201526084016103a9565b6103bd8161095f565b6000546001600160a01b031633146105345760405162461bcd60e51b815260206004820181905260248201527f4f776e61626c653a2063616c6c6572206973206e6f7420746865206f776e657260448201526064016103a9565b6103bd81336109af565b6108978282610560565b6104ad5760008281526001602081815260408084206001600160a01b0386168086529252808420805460ff19169093179092559051339285917f2f8788117e7eff1d82e926ec794901d17c78024a50270940304540a733656f0d9190a45050565b6109028282610560565b156104ad5760008281526001602090815260408083206001600160a01b0385168085529252808320805460ff1916905551339285917ff6391f5c32d9c69d2a47ea670b442974b53935d1edc7fd64eb21e047a839171b9190a45050565b600080546001600160a01b038381166001600160a01b0319831681178455604051919092169283917f8be0079c531659141344cd1fd0a4f28419497f9722a3daafe3b4186f6b6457e09190a35050565b6109b98282610560565b6104ad576109d1816001600160a01b03166014610a13565b6109dc836020610a13565b6040516020016109ed929190610cea565b60408051601f198184030181529082905262461bcd60e51b82526103a991600401610d5f565b60606000610a22836002610da8565b610a2d906002610dc7565b67ffffffffffffffff811115610a4557610a45610ddf565b6040519080825280601f01601f191660200182016040528015610a6f576020820181803683370190505b509050600360fc1b81600081518110610a8a57610a8a610df5565b60200101906001600160f81b031916908160001a905350600f60fb1b81600181518110610ab957610ab9610df5565b60200101906001600160f81b031916908160001a9053506000610add846002610da8565b610ae8906001610dc7565b90505b6001811115610b60576f181899199a1a9b1b9c1cb0b131b232b360811b85600f1660108110610b1c57610b1c610df5565b1a60f81b828281518110610b3257610b32610df5565b60200101906001600160f81b031916908160001a90535060049490941c93610b5981610e0b565b9050610aeb565b508315610baf5760405162461bcd60e51b815260206004820181905260248201527f537472696e67733a20686578206c656e67746820696e73756666696369656e7460448201526064016103a9565b9392505050565b600060208284031215610bc857600080fd5b81356001600160e01b031981168114610baf57600080fd5b80356001600160a01b0381168114610bf757600080fd5b919050565b600060208284031215610c0e57600080fd5b610baf82610be0565b600060208284031215610c2957600080fd5b5035919050565b60008060408385031215610c4357600080fd5b82359150610c5360208401610be0565b90509250929050565b60208082526025908201527f496d70616374436172644f7261636c653a6e6f742d617574686f72697a65642d60408201526439ba30b33360d91b606082015260800190565b600060208284031215610cb357600080fd5b5051919050565b60005b83811015610cd5578181015183820152602001610cbd565b83811115610ce4576000848401525b50505050565b7f416363657373436f6e74726f6c3a206163636f756e7420000000000000000000815260008351610d22816017850160208801610cba565b7001034b99036b4b9b9b4b733903937b6329607d1b6017918401918201528351610d53816028840160208801610cba565b01602801949350505050565b6020815260008251806020840152610d7e816040850160208701610cba565b601f01601f19169190910160400192915050565b634e487b7160e01b600052601160045260246000fd5b6000816000190483118215151615610dc257610dc2610d92565b500290565b60008219821115610dda57610dda610d92565b500190565b634e487b7160e01b600052604160045260246000fd5b634e487b7160e01b600052603260045260246000fd5b600081610e1a57610e1a610d92565b50600019019056fe5620a1113a72b02a617976b3f6b15600dd7a8b3a916a9ca01e23119d989a0543a2646970667358221220f3cbcaa9b7b5fec18168e8f4d024d7740c941fe308cad1064a9b1ce4885bff1f64736f6c634300080f0033",
  "devdoc": {
    "kind": "dev",
    "methods": {
      "getRoleAdmin(bytes32)": {
        "details": "Returns the admin role that controls `role`. See {grantRole} and {revokeRole}. To change a role's admin, use {_setRoleAdmin}."
      },
      "grantRole(bytes32,address)": {
        "details": "Grants `role` to `account`. If `account` had not been already granted `role`, emits a {RoleGranted} event. Requirements: - the caller must have ``role``'s admin role. May emit a {RoleGranted} event."
      },
      "hasRole(bytes32,address)": {
        "details": "Returns `true` if `account` has been granted `role`."
      },
      "owner()": {
        "details": "Returns the address of the current owner."
      },
      "renounceOwnership()": {
        "details": "Leaves the contract without owner. It will not be possible to call `onlyOwner` functions anymore. Can only be called by the current owner. NOTE: Renouncing ownership will leave the contract without an owner, thereby removing any functionality that is only available to the owner."
      },
      "renounceRole(bytes32,address)": {
        "details": "Revokes `role` from the calling account. Roles are often managed via {grantRole} and {revokeRole}: this function's purpose is to provide a mechanism for accounts to lose their privileges if they are compromised (such as when a trusted device is misplaced). If the calling account had been revoked `role`, emits a {RoleRevoked} event. Requirements: - the caller must be `account`. May emit a {RoleRevoked} event."
      },
      "revokeRole(bytes32,address)": {
        "details": "Revokes `role` from `account`. If `account` had been granted `role`, emits a {RoleRevoked} event. Requirements: - the caller must have ``role``'s admin role. May emit a {RoleRevoked} event."
      },
      "supportsInterface(bytes4)": {
        "details": "See {IERC165-supportsInterface}."
      },
      "transferOwnership(address)": {
        "details": "Transfers ownership of the contract to a new account (`newOwner`). Can only be called by the current owner."
      }
    },
    "version": 1
  },
  "userdoc": {
    "kind": "user",
    "methods": {},
    "version": 1
  },
  "storageLayout": {
    "storage": [
      {
        "astId": 2538,
        "contract": "contracts/ImpactCardOracle.sol:ImpactCardOracle",
        "label": "_owner",
        "offset": 0,
        "slot": "0",
        "type": "t_address"
      },
      {
        "astId": 2162,
        "contract": "contracts/ImpactCardOracle.sol:ImpactCardOracle",
        "label": "_roles",
        "offset": 0,
        "slot": "1",
        "type": "t_mapping(t_bytes32,t_struct(RoleData)2157_storage)"
      },
      {
        "astId": 4877,
        "contract": "contracts/ImpactCardOracle.sol:ImpactCardOracle",
        "label": "impactMarketAddress",
        "offset": 0,
        "slot": "2",
        "type": "t_address"
      },
      {
        "astId": 4879,
        "contract": "contracts/ImpactCardOracle.sol:ImpactCardOracle",
        "label": "ethicHubAddress",
        "offset": 0,
        "slot": "3",
        "type": "t_address"
      },
      {
        "astId": 4883,
        "contract": "contracts/ImpactCardOracle.sol:ImpactCardOracle",
        "label": "gitcoinDonated",
        "offset": 0,
        "slot": "4",
        "type": "t_mapping(t_address,t_bool)"
      }
    ],
    "types": {
      "t_address": {
        "encoding": "inplace",
        "label": "address",
        "numberOfBytes": "20"
      },
      "t_bool": {
        "encoding": "inplace",
        "label": "bool",
        "numberOfBytes": "1"
      },
      "t_bytes32": {
        "encoding": "inplace",
        "label": "bytes32",
        "numberOfBytes": "32"
      },
      "t_mapping(t_address,t_bool)": {
        "encoding": "mapping",
        "key": "t_address",
        "label": "mapping(address => bool)",
        "numberOfBytes": "32",
        "value": "t_bool"
      },
      "t_mapping(t_bytes32,t_struct(RoleData)2157_storage)": {
        "encoding": "mapping",
        "key": "t_bytes32",
        "label": "mapping(bytes32 => struct AccessControl.RoleData)",
        "numberOfBytes": "32",
        "value": "t_struct(RoleData)2157_storage"
      },
      "t_struct(RoleData)2157_storage": {
        "encoding": "inplace",
        "label": "struct AccessControl.RoleData",
        "members": [
          {
            "astId": 2154,
            "contract": "contracts/ImpactCardOracle.sol:ImpactCardOracle",
            "label": "members",
            "offset": 0,
            "slot": "0",
            "type": "t_mapping(t_address,t_bool)"
          },
          {
            "astId": 2156,
            "contract": "contracts/ImpactCardOracle.sol:ImpactCardOracle",
            "label": "adminRole",
            "offset": 0,
            "slot": "1",
            "type": "t_bytes32"
          }
        ],
        "numberOfBytes": "64"
      }
    }
  }
}