{
  "address": "0xec6652CA9697611689e98987c5509B36C199b772",
  "abi": [
    {
      "inputs": [
        {
          "internalType": "address",
          "name": "_svgLibrary_",
          "type": "address"
        },
        {
          "internalType": "address",
          "name": "_svgRegistry_",
          "type": "address"
        }
      ],
      "stateMutability": "nonpayable",
      "type": "constructor"
    },
    {
      "anonymous": false,
      "inputs": [
        {
          "indexed": true,
          "internalType": "address",
          "name": "previousOwner",
          "type": "address"
        },
        {
          "indexed": true,
          "internalType": "address",
          "name": "newOwner",
          "type": "address"
        }
      ],
      "name": "OwnershipTransferred",
      "type": "event"
    },
    {
      "inputs": [],
      "name": "owner",
      "outputs": [
        {
          "internalType": "address",
          "name": "",
          "type": "address"
        }
      ],
      "stateMutability": "view",
      "type": "function"
    },
    {
      "inputs": [
        {
          "internalType": "bytes",
          "name": "input",
          "type": "bytes"
        }
      ],
      "name": "render",
      "outputs": [
        {
          "internalType": "string",
          "name": "",
          "type": "string"
        }
      ],
      "stateMutability": "view",
      "type": "function"
    },
    {
      "inputs": [],
      "name": "renounceOwnership",
      "outputs": [],
      "stateMutability": "nonpayable",
      "type": "function"
    },
    {
      "inputs": [
        {
          "internalType": "address",
          "name": "newOwner",
          "type": "address"
        }
      ],
      "name": "transferOwnership",
      "outputs": [],
      "stateMutability": "nonpayable",
      "type": "function"
    }
  ],
  "transactionHash": "0xdea1c56caa3da546ba5e2132947f3b9bf7576702a203a598f5364d2d0a372a21",
  "args": [
    "0xA410114f8004573E8E44b73aD60646De9C154a6B",
    "0x4fC2436a4956cf48Fae10aa03c0b7e1946190454"
  ],
  "numDeployments": 1,
  "solcInputHash": "eaeb5cee749cfb87d556582e623ba859",
  "bytecode": "0x60806040523480156200001157600080fd5b5060405162003fae38038062003fae83398181016040528101906200003791906200043d565b620000576200004b6200030760201b60201c565b6200030f60201b60201c565b81600160006101000a81548173ffffffffffffffffffffffffffffffffffffffff021916908373ffffffffffffffffffffffffffffffffffffffff16021790555080600260006101000a81548173ffffffffffffffffffffffffffffffffffffffff021916908373ffffffffffffffffffffffffffffffffffffffff1602179055506040518060400160405280600381526020017f49d07d0000000000000000000000000000000000000000000000000000000000815250600360008060ff1681526020019081526020016000209081620001339190620006fe565b506040518060400160405280600381526020017f497fd0000000000000000000000000000000000000000000000000000000000081525060036000600160ff16815260200190815260200160002090816200018f9190620006fe565b506040518060400160405280600381526020017fd08a49000000000000000000000000000000000000000000000000000000000081525060036000600260ff1681526020019081526020016000209081620001eb9190620006fe565b506040518060400160405280600681526020017fe29bb0efb88f0000000000000000000000000000000000000000000000000000815250600460008060ff16815260200190815260200160002090816200024691906200084a565b506040518060400160405280600a81526020017ff09f8f9defb88fefb88f0000000000000000000000000000000000000000000081525060046000600160ff1681526020019081526020016000209081620002a291906200084a565b506040518060400160405280600781526020017ff09f8f9cefb88f0000000000000000000000000000000000000000000000000081525060046000600260ff1681526020019081526020016000209081620002fe91906200084a565b50505062000931565b600033905090565b60008060009054906101000a900473ffffffffffffffffffffffffffffffffffffffff169050816000806101000a81548173ffffffffffffffffffffffffffffffffffffffff021916908373ffffffffffffffffffffffffffffffffffffffff1602179055508173ffffffffffffffffffffffffffffffffffffffff168173ffffffffffffffffffffffffffffffffffffffff167f8be0079c531659141344cd1fd0a4f28419497f9722a3daafe3b4186f6b6457e060405160405180910390a35050565b600080fd5b600073ffffffffffffffffffffffffffffffffffffffff82169050919050565b60006200040582620003d8565b9050919050565b6200041781620003f8565b81146200042357600080fd5b50565b60008151905062000437816200040c565b92915050565b60008060408385031215620004575762000456620003d3565b5b6000620004678582860162000426565b92505060206200047a8582860162000426565b9150509250929050565b600081519050919050565b7f4e487b7100000000000000000000000000000000000000000000000000000000600052604160045260246000fd5b7f4e487b7100000000000000000000000000000000000000000000000000000000600052602260045260246000fd5b600060028204905060018216806200050657607f821691505b6020821081036200051c576200051b620004be565b5b50919050565b60008190508160005260206000209050919050565b60006020601f8301049050919050565b600082821b905092915050565b600060088302620005867fffffffffffffffffffffffffffffffffffffffffffffffffffffffffffffffff8262000547565b62000592868362000547565b95508019841693508086168417925050509392505050565b6000819050919050565b6000819050919050565b6000620005df620005d9620005d384620005aa565b620005b4565b620005aa565b9050919050565b6000819050919050565b620005fb83620005be565b620006136200060a82620005e6565b84845462000554565b825550505050565b600090565b6200062a6200061b565b62000637818484620005f0565b505050565b5b818110156200065f576200065360008262000620565b6001810190506200063d565b5050565b601f821115620006ae57620006788162000522565b620006838462000537565b8101602085101562000693578190505b620006ab620006a28562000537565b8301826200063c565b50505b505050565b600082821c905092915050565b6000620006d360001984600802620006b3565b1980831691505092915050565b6000620006ee8383620006c0565b9150826002028217905092915050565b620007098262000484565b67ffffffffffffffff8111156200072557620007246200048f565b5b620007318254620004ed565b6200073e82828562000663565b600060209050601f83116001811462000776576000841562000761578287015190505b6200076d8582620006e0565b865550620007dd565b601f198416620007868662000522565b60005b82811015620007b05784890151825560018201915060208501945060208101905062000789565b86831015620007d05784890151620007cc601f891682620006c0565b8355505b6001600288020188555050505b505050505050565b60008190508160005260206000209050919050565b601f82111562000845576200080f81620007e5565b6200081a8462000537565b810160208510156200082a578190505b62000842620008398562000537565b8301826200063c565b50505b505050565b620008558262000484565b67ffffffffffffffff8111156200087157620008706200048f565b5b6200087d8254620004ed565b6200088a828285620007fa565b600060209050601f831160018114620008c25760008415620008ad578287015190505b620008b98582620006e0565b86555062000929565b601f198416620008d286620007e5565b60005b82811015620008fc57848901518255600182019150602085019450602081019050620008d5565b868310156200091c578489015162000918601f891682620006c0565b8355505b6001600288020188555050505b505050505050565b61366d80620009416000396000f3fe608060405234801561001057600080fd5b506004361061004c5760003560e01c8063316df61e14610051578063715018a6146100815780638da5cb5b1461008b578063f2fde38b146100a9575b600080fd5b61006b600480360381019061006691906121ed565b6100c5565b60405161007891906122be565b60405180910390f35b610089610135565b005b610093610149565b6040516100a09190612321565b60405180910390f35b6100c360048036038101906100be9190612368565b610172565b005b60606040518060400160405280601b81526020017f646174613a696d6167652f7376672b786d6c3b6261736536342c20000000000081525061010e610109846101f5565b6118c2565b60405160200161011f9291906123d1565b6040516020818303038152906040529050919050565b61013d611a3a565b6101476000611ab8565b565b60008060009054906101000a900473ffffffffffffffffffffffffffffffffffffffff16905090565b61017a611a3a565b600073ffffffffffffffffffffffffffffffffffffffff168173ffffffffffffffffffffffffffffffffffffffff16036101e9576040517f08c379a00000000000000000000000000000000000000000000000000000000081526004016101e090612467565b60405180910390fd5b6101f281611ab8565b50565b606060008060008480602001905181019061021091906124f6565b92509250925060006102258460126003611b7c565b9050600061023284611c2b565b90506000600360008560ff1660ff168152602001908152602001600020805461025a90612578565b80601f016020809104026020016040519081016040528092919081815260200182805461028690612578565b80156102d35780601f106102a8576101008083540402835291602001916102d3565b820191906000526020600020905b8154815290600101906020018083116102b657829003601f168201915b505050505090506000600460008660ff1660ff168152602001908152602001600020805461030090612578565b80601f016020809104026020016040519081016040528092919081815260200182805461032c90612578565b80156103795780601f1061034e57610100808354040283529160200191610379565b820191906000526020600020905b81548152906001019060200180831161035c57829003601f168201915b505050505090506105c26103f76040518060400160405280600181526020017f78000000000000000000000000000000000000000000000000000000000000008152506040518060400160405280600181526020017f3000000000000000000000000000000000000000000000000000000000000000815250611d8b565b61046b6040518060400160405280600581526020017f77696474680000000000000000000000000000000000000000000000000000008152506040518060400160405280600381526020017f3530300000000000000000000000000000000000000000000000000000000000815250611d8b565b6104df6040518060400160405280600681526020017f68656967687400000000000000000000000000000000000000000000000000008152506040518060400160405280600381526020017f3530300000000000000000000000000000000000000000000000000000000000815250611d8b565b6105536040518060400160405280600981526020017f7472616e73666f726d00000000000000000000000000000000000000000000008152506040518060400160405280601b81526020017f726f74617465283930203532362e3939352032302e3939393929280000000000815250611d8b565b61059a6040518060400160405280600481526020017f66696c6c0000000000000000000000000000000000000000000000000000000081525061059589611db7565b611d8b565b6040516020016105ae9594939291906125a9565b604051602081830303815290604052611dd3565b6109516106396040518060400160405280600181526020017f78000000000000000000000000000000000000000000000000000000000000008152506040518060400160405280600481526020017f372e352500000000000000000000000000000000000000000000000000000000815250611d8b565b6106ad6040518060400160405280600181526020017f79000000000000000000000000000000000000000000000000000000000000008152506040518060400160405280600381526020017f3135250000000000000000000000000000000000000000000000000000000000815250611d8b565b6107216040518060400160405280600981526020017f666f6e742d73697a6500000000000000000000000000000000000000000000008152506040518060400160405280600281526020017f3236000000000000000000000000000000000000000000000000000000000000815250611d8b565b6107956040518060400160405280600b81526020017f666f6e742d66616d696c790000000000000000000000000000000000000000008152506040518060400160405280600b81526020017f454220476172616d6f6e64000000000000000000000000000000000000000000815250611d8b565b6108096040518060400160405280601181526020017f646f6d696e616e742d626173656c696e650000000000000000000000000000008152506040518060400160405280600681526020017f6d6964646c650000000000000000000000000000000000000000000000000000815250611d8b565b61087d6040518060400160405280600b81526020017f746578742d616e63686f720000000000000000000000000000000000000000008152506040518060400160405280600581526020017f7374617274000000000000000000000000000000000000000000000000000000815250611d8b565b6108f16040518060400160405280600481526020017f66696c6c000000000000000000000000000000000000000000000000000000008152506040518060400160405280600581526020017f7768697465000000000000000000000000000000000000000000000000000000815250611d8b565b60405160200161090797969594939291906125f4565b6040516020818303038152906040526040518060400160405280600481526020017f43454c4f00000000000000000000000000000000000000000000000000000000815250611e1b565b610d556109c86040518060400160405280600181526020017f78000000000000000000000000000000000000000000000000000000000000008152506040518060400160405280600581526020017f39332e3525000000000000000000000000000000000000000000000000000000815250611d8b565b610a3c6040518060400160405280600181526020017f79000000000000000000000000000000000000000000000000000000000000008152506040518060400160405280600381526020017f3135250000000000000000000000000000000000000000000000000000000000815250611d8b565b610ab06040518060400160405280600981526020017f666f6e742d73697a6500000000000000000000000000000000000000000000008152506040518060400160405280600281526020017f3232000000000000000000000000000000000000000000000000000000000000815250611d8b565b610b246040518060400160405280600b81526020017f666f6e742d66616d696c790000000000000000000000000000000000000000008152506040518060400160405280600b81526020017f454220476172616d6f6e64000000000000000000000000000000000000000000815250611d8b565b610b986040518060400160405280600b81526020017f666f6e742d7765696768740000000000000000000000000000000000000000008152506040518060400160405280600781526020017f6c69676874657200000000000000000000000000000000000000000000000000815250611d8b565b610c0c6040518060400160405280601181526020017f646f6d696e616e742d626173656c696e650000000000000000000000000000008152506040518060400160405280600681526020017f6d6964646c650000000000000000000000000000000000000000000000000000815250611d8b565b610c806040518060400160405280600b81526020017f746578742d616e63686f720000000000000000000000000000000000000000008152506040518060400160405280600381526020017f656e640000000000000000000000000000000000000000000000000000000000815250611d8b565b610cf46040518060400160405280600481526020017f66696c6c000000000000000000000000000000000000000000000000000000008152506040518060400160405280600581526020017f7768697465000000000000000000000000000000000000000000000000000000815250611d8b565b604051602001610d0b989796959493929190612659565b6040516020818303038152906040526040518060400160405280601381526020017f436c696d61746520496d70616374204361726400000000000000000000000000815250611e1b565b6110af610dcc6040518060400160405280600181526020017f78000000000000000000000000000000000000000000000000000000000000008152506040518060400160405280600381526020017f3530250000000000000000000000000000000000000000000000000000000000815250611d8b565b610e406040518060400160405280600181526020017f79000000000000000000000000000000000000000000000000000000000000008152506040518060400160405280600381526020017f3530250000000000000000000000000000000000000000000000000000000000815250611d8b565b610eb46040518060400160405280600b81526020017f666f6e742d66616d696c790000000000000000000000000000000000000000008152506040518060400160405280600581526020017f756e736574000000000000000000000000000000000000000000000000000000815250611d8b565b610f286040518060400160405280600981526020017f666f6e742d73697a6500000000000000000000000000000000000000000000008152506040518060400160405280600281526020017f3936000000000000000000000000000000000000000000000000000000000000815250611d8b565b610f9c6040518060400160405280601181526020017f646f6d696e616e742d626173656c696e650000000000000000000000000000008152506040518060400160405280600681526020017f6d6964646c650000000000000000000000000000000000000000000000000000815250611d8b565b6110106040518060400160405280600b81526020017f746578742d616e63686f720000000000000000000000000000000000000000008152506040518060400160405280600681526020017f6d6964646c650000000000000000000000000000000000000000000000000000815250611d8b565b6110846040518060400160405280600481526020017f66696c6c000000000000000000000000000000000000000000000000000000008152506040518060400160405280600581526020017f7768697465000000000000000000000000000000000000000000000000000000815250611d8b565b60405160200161109a97969594939291906125f4565b60405160208183030381529060405285611e1b565b6111db6111266040518060400160405280600181526020017f78000000000000000000000000000000000000000000000000000000000000008152506040518060400160405280600481526020017f322e352500000000000000000000000000000000000000000000000000000000815250611d8b565b61119a6040518060400160405280600181526020017f79000000000000000000000000000000000000000000000000000000000000008152506040518060400160405280600381526020017f3835250000000000000000000000000000000000000000000000000000000000815250611d8b565b6040516020016111ab9291906123d1565b6040516020818303038152906040526040518061032001604052806102e581526020016133136102e59139611e65565b6115356112526040518060400160405280600181526020017f78000000000000000000000000000000000000000000000000000000000000008152506040518060400160405280600581526020017f31312e3525000000000000000000000000000000000000000000000000000000815250611d8b565b6112c66040518060400160405280600181526020017f79000000000000000000000000000000000000000000000000000000000000008152506040518060400160405280600381526020017f3835250000000000000000000000000000000000000000000000000000000000815250611d8b565b61133a6040518060400160405280600981526020017f666f6e742d73697a6500000000000000000000000000000000000000000000008152506040518060400160405280600281526020017f3338000000000000000000000000000000000000000000000000000000000000815250611d8b565b6113ae6040518060400160405280600b81526020017f666f6e742d66616d696c790000000000000000000000000000000000000000008152506040518060400160405280600b81526020017f454220476172616d6f6e64000000000000000000000000000000000000000000815250611d8b565b6114226040518060400160405280601181526020017f646f6d696e616e742d626173656c696e650000000000000000000000000000008152506040518060400160405280600681526020017f6d6964646c650000000000000000000000000000000000000000000000000000815250611d8b565b6114966040518060400160405280600b81526020017f746578742d616e63686f720000000000000000000000000000000000000000008152506040518060400160405280600581526020017f7374617274000000000000000000000000000000000000000000000000000000815250611d8b565b61150a6040518060400160405280600481526020017f66696c6c000000000000000000000000000000000000000000000000000000008152506040518060400160405280600581526020017f7768697465000000000000000000000000000000000000000000000000000000815250611d8b565b60405160200161152097969594939291906125f4565b60405160208183030381529060405289611e1b565b61188f6115ac6040518060400160405280600181526020017f78000000000000000000000000000000000000000000000000000000000000008152506040518060400160405280600381526020017f3930250000000000000000000000000000000000000000000000000000000000815250611d8b565b6116206040518060400160405280600181526020017f79000000000000000000000000000000000000000000000000000000000000008152506040518060400160405280600381526020017f3835250000000000000000000000000000000000000000000000000000000000815250611d8b565b6116946040518060400160405280600981526020017f666f6e742d73697a6500000000000000000000000000000000000000000000008152506040518060400160405280600281526020017f3238000000000000000000000000000000000000000000000000000000000000815250611d8b565b6117086040518060400160405280600b81526020017f666f6e742d66616d696c790000000000000000000000000000000000000000008152506040518060400160405280600b81526020017f454220476172616d6f6e64000000000000000000000000000000000000000000815250611d8b565b61177c6040518060400160405280601181526020017f646f6d696e616e742d626173656c696e650000000000000000000000000000008152506040518060400160405280600681526020017f6d6964646c650000000000000000000000000000000000000000000000000000815250611d8b565b6117f06040518060400160405280600b81526020017f746578742d616e63686f720000000000000000000000000000000000000000008152506040518060400160405280600381526020017f656e640000000000000000000000000000000000000000000000000000000000815250611d8b565b6118646040518060400160405280600481526020017f66696c6c000000000000000000000000000000000000000000000000000000008152506040518060400160405280600581526020017f7768697465000000000000000000000000000000000000000000000000000000815250611d8b565b60405160200161187a97969594939291906125f4565b6040516020818303038152906040528b611e1b565b6040516020016118a59796959493929190612893565b604051602081830303815290604052975050505050505050919050565b606060008251036118e457604051806020016040528060008152509050611a35565b60006040518060600160405280604081526020016135f86040913990506000600360028551611913919061294c565b61191d91906129d1565b60046119299190612a02565b9050600060208261193a919061294c565b67ffffffffffffffff811115611953576119526120c2565b5b6040519080825280601f01601f1916602001820160405280156119855781602001600182028036833780820191505090505b509050818152600183018586518101602084015b818310156119f4576003830192508251603f8160121c168501518253600182019150603f81600c1c168501518253600182019150603f8160061c168501518253600182019150603f8116850151825360018201915050611999565b600389510660018114611a0e5760028114611a1e57611a29565b613d3d60f01b6002830352611a29565b603d60f81b60018303525b50505050508093505050505b919050565b611a42611eaf565b73ffffffffffffffffffffffffffffffffffffffff16611a60610149565b73ffffffffffffffffffffffffffffffffffffffff1614611ab6576040517f08c379a0000000000000000000000000000000000000000000000000000000008152600401611aad90612aa8565b60405180910390fd5b565b60008060009054906101000a900473ffffffffffffffffffffffffffffffffffffffff169050816000806101000a81548173ffffffffffffffffffffffffffffffffffffffff021916908373ffffffffffffffffffffffffffffffffffffffff1602179055508173ffffffffffffffffffffffffffffffffffffffff168173ffffffffffffffffffffffffffffffffffffffff167f8be0079c531659141344cd1fd0a4f28419497f9722a3daafe3b4186f6b6457e060405160405180910390a35050565b6060611b9e83600a611b8e9190612bfb565b85611b9991906129d1565b611c2b565b611c0283600a611bae9190612bfb565b85600a611bbb9190612bfb565b87611bc691906129d1565b611bd09190612a02565b8486611bdc9190612c46565b600a611be89190612bfb565b87611bf391906129d1565b611bfd9190612c7a565b611c2b565b604051602001611c13929190612cfa565b60405160208183030381529060405290509392505050565b606060008203611c72576040518060400160405280600181526020017f30000000000000000000000000000000000000000000000000000000000000008152509050611d86565b600082905060005b60008214611ca4578080611c8d90612d29565b915050600a82611c9d91906129d1565b9150611c7a565b60008167ffffffffffffffff811115611cc057611cbf6120c2565b5b6040519080825280601f01601f191660200182016040528015611cf25781602001600182028036833780820191505090505b5090505b60008514611d7f57600182611d0b9190612c7a565b9150600a85611d1a9190612d71565b6030611d26919061294c565b60f81b818381518110611d3c57611d3b612da2565b5b60200101907effffffffffffffffffffffffffffffffffffffffffffffffffffffffffffff1916908160001a905350600a85611d7891906129d1565b9450611cf6565b8093505050505b919050565b60608282604051602001611da0929190612e43565b604051602081830303815290604052905092915050565b6060611dcc611dc583611eb7565b6000611f24565b9050919050565b6060611e146040518060400160405280600481526020017f726563740000000000000000000000000000000000000000000000000000000081525083611fc8565b9050919050565b6060611e5d6040518060400160405280600481526020017f74657874000000000000000000000000000000000000000000000000000000008152508484611ff4565b905092915050565b6060611ea76040518060400160405280600181526020017f67000000000000000000000000000000000000000000000000000000000000008152508484611ff4565b905092915050565b600033905090565b60606003825114611efd576040517f08c379a0000000000000000000000000000000000000000000000000000000008152600401611ef490612ee0565b60405180910390fd5b81604051602001611f0e9190612f93565b6040516020818303038152906040529050919050565b6060611f3b611f338484612025565b60ff16611c2b565b611f5c611f5485600186611f4f919061294c565b612025565b60ff16611c2b565b611f7d611f7586600287611f70919061294c565b612025565b60ff16611c2b565b611f9e611f9687600388611f91919061294c565b612025565b60ff16611c2b565b604051602001611fb19493929190613099565b604051602081830303815290604052905092915050565b60608282604051602001611fdd929190613180565b604051602081830303815290604052905092915050565b60608383838660405160200161200d949392919061321d565b60405160208183030381529060405290509392505050565b60008183511161206a576040517f08c379a0000000000000000000000000000000000000000000000000000000008152600401612061906132f2565b60405180910390fd5b82828151811061207d5761207c612da2565b5b602001015160f81c60f81b60f81c905092915050565b6000604051905090565b600080fd5b600080fd5b600080fd5b600080fd5b6000601f19601f8301169050919050565b7f4e487b7100000000000000000000000000000000000000000000000000000000600052604160045260246000fd5b6120fa826120b1565b810181811067ffffffffffffffff82111715612119576121186120c2565b5b80604052505050565b600061212c612093565b905061213882826120f1565b919050565b600067ffffffffffffffff821115612158576121576120c2565b5b612161826120b1565b9050602081019050919050565b82818337600083830152505050565b600061219061218b8461213d565b612122565b9050828152602081018484840111156121ac576121ab6120ac565b5b6121b784828561216e565b509392505050565b600082601f8301126121d4576121d36120a7565b5b81356121e484826020860161217d565b91505092915050565b6000602082840312156122035761220261209d565b5b600082013567ffffffffffffffff811115612221576122206120a2565b5b61222d848285016121bf565b91505092915050565b600081519050919050565b600082825260208201905092915050565b60005b83811015612270578082015181840152602081019050612255565b8381111561227f576000848401525b50505050565b600061229082612236565b61229a8185612241565b93506122aa818560208601612252565b6122b3816120b1565b840191505092915050565b600060208201905081810360008301526122d88184612285565b905092915050565b600073ffffffffffffffffffffffffffffffffffffffff82169050919050565b600061230b826122e0565b9050919050565b61231b81612300565b82525050565b60006020820190506123366000830184612312565b92915050565b61234581612300565b811461235057600080fd5b50565b6000813590506123628161233c565b92915050565b60006020828403121561237e5761237d61209d565b5b600061238c84828501612353565b91505092915050565b600081905092915050565b60006123ab82612236565b6123b58185612395565b93506123c5818560208601612252565b80840191505092915050565b60006123dd82856123a0565b91506123e982846123a0565b91508190509392505050565b7f4f776e61626c653a206e6577206f776e657220697320746865207a65726f206160008201527f6464726573730000000000000000000000000000000000000000000000000000602082015250565b6000612451602683612241565b915061245c826123f5565b604082019050919050565b6000602082019050818103600083015261248081612444565b9050919050565b6000819050919050565b61249a81612487565b81146124a557600080fd5b50565b6000815190506124b781612491565b92915050565b600060ff82169050919050565b6124d3816124bd565b81146124de57600080fd5b50565b6000815190506124f0816124ca565b92915050565b60008060006060848603121561250f5761250e61209d565b5b600061251d868287016124a8565b935050602061252e868287016124a8565b925050604061253f868287016124e1565b9150509250925092565b7f4e487b7100000000000000000000000000000000000000000000000000000000600052602260045260246000fd5b6000600282049050600182168061259057607f821691505b6020821081036125a3576125a2612549565b5b50919050565b60006125b582886123a0565b91506125c182876123a0565b91506125cd82866123a0565b91506125d982856123a0565b91506125e582846123a0565b91508190509695505050505050565b6000612600828a6123a0565b915061260c82896123a0565b915061261882886123a0565b915061262482876123a0565b915061263082866123a0565b915061263c82856123a0565b915061264882846123a0565b915081905098975050505050505050565b6000612665828b6123a0565b9150612671828a6123a0565b915061267d82896123a0565b915061268982886123a0565b915061269582876123a0565b91506126a182866123a0565b91506126ad82856123a0565b91506126b982846123a0565b91508190509998505050505050505050565b7f3c73766720786d6c6e733d22687474703a2f2f7777772e77332e6f72672f323060008201527f30302f737667222077696474683d2235303022206865696768743d223330302260208201527f2076696577426f783d223020302035303020333030222066696c6c3d226e6f6e60408201527f6522207374796c653d22666f6e742d66616d696c793a73616e732d736572696660608201527f3b22203e00000000000000000000000000000000000000000000000000000000608082015250565b6000612799608483612395565b91506127a4826126cb565b608482019050919050565b7f3c646566733e3c7374796c653e2e636c732d317b66696c6c3a234646463b7d2e60008201527f636c732d327b66696c6c3a236662636335633b7d2e636c732d337b66696c6c3a60208201527f233335643037663b7d2e636c732d347b66696c6c3a233565613333623b7d3c2f60408201527f7374796c653e3c2f646566733e00000000000000000000000000000000000000606082015250565b6000612857606d83612395565b9150612862826127af565b606d82019050919050565b7f3c2f7376673e0000000000000000000000000000000000000000000000000000815250565b600061289e8261278c565b91506128aa828a6123a0565b91506128b682896123a0565b91506128c282886123a0565b91506128ce82876123a0565b91506128da82866123a0565b91506128e682856123a0565b91506128f282846123a0565b91506128fd8261284a565b91506129088261286d565b60068201915081905098975050505050505050565b7f4e487b7100000000000000000000000000000000000000000000000000000000600052601160045260246000fd5b600061295782612487565b915061296283612487565b9250827fffffffffffffffffffffffffffffffffffffffffffffffffffffffffffffffff038211156129975761299661291d565b5b828201905092915050565b7f4e487b7100000000000000000000000000000000000000000000000000000000600052601260045260246000fd5b60006129dc82612487565b91506129e783612487565b9250826129f7576129f66129a2565b5b828204905092915050565b6000612a0d82612487565b9150612a1883612487565b9250817fffffffffffffffffffffffffffffffffffffffffffffffffffffffffffffffff0483118215151615612a5157612a5061291d565b5b828202905092915050565b7f4f776e61626c653a2063616c6c6572206973206e6f7420746865206f776e6572600082015250565b6000612a92602083612241565b9150612a9d82612a5c565b602082019050919050565b60006020820190508181036000830152612ac181612a85565b9050919050565b60008160011c9050919050565b6000808291508390505b6001851115612b1f57808604811115612afb57612afa61291d565b5b6001851615612b0a5780820291505b8081029050612b1885612ac8565b9450612adf565b94509492505050565b600082612b385760019050612bf4565b81612b465760009050612bf4565b8160018114612b5c5760028114612b6657612b95565b6001915050612bf4565b60ff841115612b7857612b7761291d565b5b8360020a915084821115612b8f57612b8e61291d565b5b50612bf4565b5060208310610133831016604e8410600b8410161715612bca5782820a905083811115612bc557612bc461291d565b5b612bf4565b612bd78484846001612ad5565b92509050818404811115612bee57612bed61291d565b5b81810290505b9392505050565b6000612c0682612487565b9150612c11836124bd565b9250612c3e7fffffffffffffffffffffffffffffffffffffffffffffffffffffffffffffffff8484612b28565b905092915050565b6000612c51826124bd565b9150612c5c836124bd565b925082821015612c6f57612c6e61291d565b5b828203905092915050565b6000612c8582612487565b9150612c9083612487565b925082821015612ca357612ca261291d565b5b828203905092915050565b7f2e00000000000000000000000000000000000000000000000000000000000000600082015250565b6000612ce4600183612395565b9150612cef82612cae565b600182019050919050565b6000612d0682856123a0565b9150612d1182612cd7565b9150612d1d82846123a0565b91508190509392505050565b6000612d3482612487565b91507fffffffffffffffffffffffffffffffffffffffffffffffffffffffffffffffff8203612d6657612d6561291d565b5b600182019050919050565b6000612d7c82612487565b9150612d8783612487565b925082612d9757612d966129a2565b5b828206905092915050565b7f4e487b7100000000000000000000000000000000000000000000000000000000600052603260045260246000fd5b7f3d00000000000000000000000000000000000000000000000000000000000000815250565b7f2200000000000000000000000000000000000000000000000000000000000000815250565b7f2220000000000000000000000000000000000000000000000000000000000000815250565b6000612e4f82856123a0565b9150612e5a82612dd1565b600182019150612e6982612df7565b600182019150612e7982846123a0565b9150612e8482612e1d565b6002820191508190509392505050565b7f556e6b6e6f776e20636f6c6f7200000000000000000000000000000000000000600082015250565b6000612eca600d83612241565b9150612ed582612e94565b602082019050919050565b60006020820190508181036000830152612ef981612ebd565b9050919050565b600081519050919050565b600081905092915050565b6000612f2182612f00565b612f2b8185612f0b565b9350612f3b818560208601612252565b80840191505092915050565b7f6400000000000000000000000000000000000000000000000000000000000000600082015250565b6000612f7d600183612395565b9150612f8882612f47565b600182019050919050565b6000612f9f8284612f16565b9150612faa82612f70565b915081905092915050565b7f7267626128000000000000000000000000000000000000000000000000000000600082015250565b6000612feb600583612395565b9150612ff682612fb5565b600582019050919050565b7f2c00000000000000000000000000000000000000000000000000000000000000600082015250565b6000613037600183612395565b915061304282613001565b600182019050919050565b7f2529000000000000000000000000000000000000000000000000000000000000600082015250565b6000613083600283612395565b915061308e8261304d565b600282019050919050565b60006130a482612fde565b91506130b082876123a0565b91506130bb8261302a565b91506130c782866123a0565b91506130d28261302a565b91506130de82856123a0565b91506130e98261302a565b91506130f582846123a0565b915061310082613076565b915081905095945050505050565b7f3c00000000000000000000000000000000000000000000000000000000000000815250565b7f2000000000000000000000000000000000000000000000000000000000000000815250565b7f2f3e000000000000000000000000000000000000000000000000000000000000815250565b600061318b8261310e565b60018201915061319b82856123a0565b91506131a682613134565b6001820191506131b682846123a0565b91506131c18261315a565b6002820191508190509392505050565b7f3e00000000000000000000000000000000000000000000000000000000000000815250565b7f3c2f000000000000000000000000000000000000000000000000000000000000815250565b60006132288261310e565b60018201915061323882876123a0565b915061324382613134565b60018201915061325382866123a0565b915061325e826131d1565b60018201915061326e82856123a0565b9150613279826131f7565b60028201915061328982846123a0565b9150613294826131d1565b60018201915081905095945050505050565b7f4f7574206f662072616e67650000000000000000000000000000000000000000600082015250565b60006132dc600c83612241565b91506132e7826132a6565b602082019050919050565b6000602082019050818103600083015261330b816132cf565b905091905056fe3c73766720783d22322e35252220793d2237372e3525222077696474683d2231303022206865696768743d223530222066696c6c3d2223464646222069643d2243656c6f5f4c6f676f747970652220646174612d6e616d653d2243656c6f204c6f676f747970652220786d6c6e733d22687474703a2f2f7777772e77332e6f72672f323030302f737667222076696577426f783d2230203020333935322031353735223e3c646566733e3c7374796c653e2e636c732d317b66696c6c3a236666663b7d3c2f7374796c653e3c2f646566733e3c7469746c653e417274626f61726420313c2f7469746c653e3c706174682069643d22426f74746f6d5f52696e672220646174612d6e616d653d22426f74746f6d2052696e672220636c6173733d22636c732d312220643d224d3735312c31313035633135342e36342c302c3238302d3132352e33362c3238302d323830533930352e36342c3534352c3735312c3534352c3437312c3637302e33362c3437312c3832352c3539362e33362c313130352c3735312c313130355a6d302c3935632d3230372e312c302d3337352d3136372e392d3337352d333735533534332e392c3435302c3735312c343530733337352c3136372e392c3337352c333735533935382e312c313230302c3735312c313230305a222f3e3c706174682069643d22546f705f52696e672220646174612d6e616d653d22546f702052696e672220636c6173733d22636c732d312220643d224d3935312c393035633135342e36342c302c3238302d3132352e33362c3238302d32383053313130352e36342c3334352c3935312c3334352c3637312c3437302e33362c3637312c3632352c3739362e33362c3930352c3935312c3930355a6d302c3935632d3230372e312c302d3337352d3136372e392d3337352d333735533734332e392c3235302c3935312c323530733337352c3136372e392c3337352c33373553313135382e312c313030302c3935312c313030305a222f3e3c2f7376673e2c4142434445464748494a4b4c4d4e4f505152535455565758595a6162636465666768696a6b6c6d6e6f707172737475767778797a303132333435363738392b2fa2646970667358221220659754ab6f76447d59d6a8719be08ddd4881b827834b82cb105d21f8990edeea64736f6c634300080f0033",
  "devdoc": {
    "kind": "dev",
    "methods": {
      "owner()": {
        "details": "Returns the address of the current owner."
      },
      "renounceOwnership()": {
        "details": "Leaves the contract without owner. It will not be possible to call `onlyOwner` functions anymore. Can only be called by the current owner. NOTE: Renouncing ownership will leave the contract without an owner, thereby removing any functionality that is only available to the owner."
      },
      "transferOwnership(address)": {
        "details": "Transfers ownership of the contract to a new account (`newOwner`). Can only be called by the current owner."
      }
    },
    "version": 1
  },
  "userdoc": {
    "kind": "user",
    "methods": {},
    "version": 1
  },
  "storageLayout": {
    "storage": [
      {
        "astId": 2145,
        "contract": "contracts/ImpactCardRender.sol:ImpactCardRender",
        "label": "_owner",
        "offset": 0,
        "slot": "0",
        "type": "t_address"
      },
      {
        "astId": 4349,
        "contract": "contracts/ImpactCardRender.sol:ImpactCardRender",
        "label": "_svgLibrary",
        "offset": 0,
        "slot": "1",
        "type": "t_address"
      },
      {
        "astId": 4351,
        "contract": "contracts/ImpactCardRender.sol:ImpactCardRender",
        "label": "_svgRegistry",
        "offset": 0,
        "slot": "2",
        "type": "t_address"
      },
      {
        "astId": 4358,
        "contract": "contracts/ImpactCardRender.sol:ImpactCardRender",
        "label": "colorFill",
        "offset": 0,
        "slot": "3",
        "type": "t_mapping(t_uint8,t_bytes_storage)"
      },
      {
        "astId": 4362,
        "contract": "contracts/ImpactCardRender.sol:ImpactCardRender",
        "label": "emojiFill",
        "offset": 0,
        "slot": "4",
        "type": "t_mapping(t_uint8,t_string_storage)"
      }
    ],
    "types": {
      "t_address": {
        "encoding": "inplace",
        "label": "address",
        "numberOfBytes": "20"
      },
      "t_bytes_storage": {
        "encoding": "bytes",
        "label": "bytes",
        "numberOfBytes": "32"
      },
      "t_mapping(t_uint8,t_bytes_storage)": {
        "encoding": "mapping",
        "key": "t_uint8",
        "label": "mapping(uint8 => bytes)",
        "numberOfBytes": "32",
        "value": "t_bytes_storage"
      },
      "t_mapping(t_uint8,t_string_storage)": {
        "encoding": "mapping",
        "key": "t_uint8",
        "label": "mapping(uint8 => string)",
        "numberOfBytes": "32",
        "value": "t_string_storage"
      },
      "t_string_storage": {
        "encoding": "bytes",
        "label": "string",
        "numberOfBytes": "32"
      },
      "t_uint8": {
        "encoding": "inplace",
        "label": "uint8",
        "numberOfBytes": "1"
      }
    }
  }
}