{
  "address": "0xf765bE4443c69EF2B00CcB55436e3ce08842f861",
  "abi": [
    {
      "inputs": [],
      "stateMutability": "nonpayable",
      "type": "constructor"
    },
    {
      "anonymous": false,
      "inputs": [
        {
          "indexed": true,
          "internalType": "address",
          "name": "previousOwner",
          "type": "address"
        },
        {
          "indexed": true,
          "internalType": "address",
          "name": "newOwner",
          "type": "address"
        }
      ],
      "name": "OwnershipTransferred",
      "type": "event"
    },
    {
      "inputs": [
        {
          "internalType": "bytes",
          "name": "input",
          "type": "bytes"
        }
      ],
      "name": "fetch",
      "outputs": [
        {
          "internalType": "string",
          "name": "",
          "type": "string"
        }
      ],
      "stateMutability": "view",
      "type": "function"
    },
    {
      "inputs": [],
      "name": "owner",
      "outputs": [
        {
          "internalType": "address",
          "name": "",
          "type": "address"
        }
      ],
      "stateMutability": "view",
      "type": "function"
    },
    {
      "inputs": [],
      "name": "renounceOwnership",
      "outputs": [],
      "stateMutability": "nonpayable",
      "type": "function"
    },
    {
      "inputs": [
        {
          "internalType": "address",
          "name": "newOwner",
          "type": "address"
        }
      ],
      "name": "transferOwnership",
      "outputs": [],
      "stateMutability": "nonpayable",
      "type": "function"
    }
  ],
  "transactionHash": "0xb416638a07701b4503540d249164b782ea5e44bbc51e7826a20c2612b7c4ec8a",
  "args": [],
  "numDeployments": 1,
  "solcInputHash": "9bf1cd3416db986484f5d39bc8c32ea7",
  "bytecode": "0x608060405234801561001057600080fd5b5061002d61002261003260201b60201c565b61003a60201b60201c565b6100fe565b600033905090565b60008060009054906101000a900473ffffffffffffffffffffffffffffffffffffffff169050816000806101000a81548173ffffffffffffffffffffffffffffffffffffffff021916908373ffffffffffffffffffffffffffffffffffffffff1602179055508173ffffffffffffffffffffffffffffffffffffffff168173ffffffffffffffffffffffffffffffffffffffff167f8be0079c531659141344cd1fd0a4f28419497f9722a3daafe3b4186f6b6457e060405160405180910390a35050565b61094d8061010d6000396000f3fe608060405234801561001057600080fd5b506004361061004c5760003560e01c8063715018a6146100515780638da5cb5b1461005b578063f2fde38b14610079578063f6559a6b14610095575b600080fd5b6100596100c5565b005b6100636100d9565b60405161007091906103d8565b60405180910390f35b610093600480360381019061008e9190610433565b610102565b005b6100af60048036038101906100aa91906105a6565b610185565b6040516100bc9190610677565b60405180910390f35b6100cd610221565b6100d7600061029f565b565b60008060009054906101000a900473ffffffffffffffffffffffffffffffffffffffff16905090565b61010a610221565b600073ffffffffffffffffffffffffffffffffffffffff168173ffffffffffffffffffffffffffffffffffffffff1603610179576040517f08c379a00000000000000000000000000000000000000000000000000000000081526004016101709061070b565b60405180910390fd5b6101828161029f565b50565b60606101fb6040518060400160405280600681526020017f667269656e6400000000000000000000000000000000000000000000000000008152506040518060400160405280600481526020017f7472756500000000000000000000000000000000000000000000000000000000815250610363565b60405160200161020b9190610767565b6040516020818303038152906040529050919050565b61022961038f565b73ffffffffffffffffffffffffffffffffffffffff166102476100d9565b73ffffffffffffffffffffffffffffffffffffffff161461029d576040517f08c379a0000000000000000000000000000000000000000000000000000000008152600401610294906107ca565b60405180910390fd5b565b60008060009054906101000a900473ffffffffffffffffffffffffffffffffffffffff169050816000806101000a81548173ffffffffffffffffffffffffffffffffffffffff021916908373ffffffffffffffffffffffffffffffffffffffff1602179055508173ffffffffffffffffffffffffffffffffffffffff168173ffffffffffffffffffffffffffffffffffffffff167f8be0079c531659141344cd1fd0a4f28419497f9722a3daafe3b4186f6b6457e060405160405180910390a35050565b606082826040516020016103789291906108a8565b604051602081830303815290604052905092915050565b600033905090565b600073ffffffffffffffffffffffffffffffffffffffff82169050919050565b60006103c282610397565b9050919050565b6103d2816103b7565b82525050565b60006020820190506103ed60008301846103c9565b92915050565b6000604051905090565b600080fd5b600080fd5b610410816103b7565b811461041b57600080fd5b50565b60008135905061042d81610407565b92915050565b600060208284031215610449576104486103fd565b5b60006104578482850161041e565b91505092915050565b600080fd5b600080fd5b6000601f19601f8301169050919050565b7f4e487b7100000000000000000000000000000000000000000000000000000000600052604160045260246000fd5b6104b38261046a565b810181811067ffffffffffffffff821117156104d2576104d161047b565b5b80604052505050565b60006104e56103f3565b90506104f182826104aa565b919050565b600067ffffffffffffffff8211156105115761051061047b565b5b61051a8261046a565b9050602081019050919050565b82818337600083830152505050565b6000610549610544846104f6565b6104db565b90508281526020810184848401111561056557610564610465565b5b610570848285610527565b509392505050565b600082601f83011261058d5761058c610460565b5b813561059d848260208601610536565b91505092915050565b6000602082840312156105bc576105bb6103fd565b5b600082013567ffffffffffffffff8111156105da576105d9610402565b5b6105e684828501610578565b91505092915050565b600081519050919050565b600082825260208201905092915050565b60005b8381101561062957808201518184015260208101905061060e565b83811115610638576000848401525b50505050565b6000610649826105ef565b61065381856105fa565b935061066381856020860161060b565b61066c8161046a565b840191505092915050565b60006020820190508181036000830152610691818461063e565b905092915050565b7f4f776e61626c653a206e6577206f776e657220697320746865207a65726f206160008201527f6464726573730000000000000000000000000000000000000000000000000000602082015250565b60006106f56026836105fa565b915061070082610699565b604082019050919050565b60006020820190508181036000830152610724816106e8565b9050919050565b600081905092915050565b6000610741826105ef565b61074b818561072b565b935061075b81856020860161060b565b80840191505092915050565b60006107738284610736565b915081905092915050565b7f4f776e61626c653a2063616c6c6572206973206e6f7420746865206f776e6572600082015250565b60006107b46020836105fa565b91506107bf8261077e565b602082019050919050565b600060208201905081810360008301526107e3816107a7565b9050919050565b7f7b2274726169745f74797065223a220000000000000000000000000000000000815250565b7f222c000000000000000000000000000000000000000000000000000000000000815250565b7f2276616c7565223a000000000000000000000000000000000000000000000000815250565b7f2200000000000000000000000000000000000000000000000000000000000000815250565b7f227d000000000000000000000000000000000000000000000000000000000000815250565b60006108b3826107ea565b600f820191506108c38285610736565b91506108ce82610810565b6002820191506108dd82610836565b6008820191506108ec8261085c565b6001820191506108fc8284610736565b915061090782610882565b600282019150819050939250505056fea2646970667358221220fa1e32eb4d054bbc7d4be6d53e104cc6663ebaf085f8828a3fb210a94dbe30f764736f6c634300080f0033",
  "devdoc": {
    "author": "Kames Geraghty",
    "kind": "dev",
    "methods": {
      "owner()": {
        "details": "Returns the address of the current owner."
      },
      "renounceOwnership()": {
        "details": "Leaves the contract without owner. It will not be possible to call `onlyOwner` functions anymore. Can only be called by the current owner. NOTE: Renouncing ownership will leave the contract without an owner, thereby removing any functionality that is only available to the owner."
      },
      "transferOwnership(address)": {
        "details": "Transfers ownership of the contract to a new account (`newOwner`). Can only be called by the current owner."
      }
    },
    "title": "ImpactCardTraits",
    "version": 1
  },
  "userdoc": {
    "kind": "user",
    "methods": {},
    "version": 1
  },
  "storageLayout": {
    "storage": [
      {
        "astId": 2008,
        "contract": "contracts/ImpactCardTraits.sol:ImpactCardTraits",
        "label": "_owner",
        "offset": 0,
        "slot": "0",
        "type": "t_address"
      }
    ],
    "types": {
      "t_address": {
        "encoding": "inplace",
        "label": "address",
        "numberOfBytes": "20"
      }
    }
  }
}