{
  "address": "0xf18e236d6F6333F593E4D9d839C444a17871E40a",
  "abi": [
    {
      "inputs": [
        {
          "internalType": "string",
          "name": "name",
          "type": "string"
        },
        {
          "internalType": "string",
          "name": "symbol",
          "type": "string"
        },
        {
          "internalType": "address",
          "name": "erc721Storage",
          "type": "address"
        }
      ],
      "stateMutability": "nonpayable",
      "type": "constructor"
    },
    {
      "anonymous": false,
      "inputs": [
        {
          "indexed": true,
          "internalType": "address",
          "name": "owner",
          "type": "address"
        },
        {
          "indexed": true,
          "internalType": "address",
          "name": "approved",
          "type": "address"
        },
        {
          "indexed": true,
          "internalType": "uint256",
          "name": "tokenId",
          "type": "uint256"
        }
      ],
      "name": "Approval",
      "type": "event"
    },
    {
      "anonymous": false,
      "inputs": [
        {
          "indexed": true,
          "internalType": "address",
          "name": "owner",
          "type": "address"
        },
        {
          "indexed": true,
          "internalType": "address",
          "name": "operator",
          "type": "address"
        },
        {
          "indexed": false,
          "internalType": "bool",
          "name": "approved",
          "type": "bool"
        }
      ],
      "name": "ApprovalForAll",
      "type": "event"
    },
    {
      "anonymous": false,
      "inputs": [
        {
          "indexed": false,
          "internalType": "address",
          "name": "erc721Storage",
          "type": "address"
        }
      ],
      "name": "ERC721StorageUpdated",
      "type": "event"
    },
    {
      "anonymous": false,
      "inputs": [
        {
          "indexed": true,
          "internalType": "address",
          "name": "previousOwner",
          "type": "address"
        },
        {
          "indexed": true,
          "internalType": "address",
          "name": "newOwner",
          "type": "address"
        }
      ],
      "name": "OwnershipTransferred",
      "type": "event"
    },
    {
      "anonymous": false,
      "inputs": [
        {
          "indexed": true,
          "internalType": "address",
          "name": "from",
          "type": "address"
        },
        {
          "indexed": true,
          "internalType": "address",
          "name": "to",
          "type": "address"
        },
        {
          "indexed": true,
          "internalType": "uint256",
          "name": "tokenId",
          "type": "uint256"
        }
      ],
      "name": "Transfer",
      "type": "event"
    },
    {
      "stateMutability": "payable",
      "type": "fallback"
    },
    {
      "inputs": [
        {
          "internalType": "address",
          "name": "to",
          "type": "address"
        },
        {
          "internalType": "uint256",
          "name": "tokenId",
          "type": "uint256"
        }
      ],
      "name": "approve",
      "outputs": [],
      "stateMutability": "nonpayable",
      "type": "function"
    },
    {
      "inputs": [
        {
          "internalType": "address",
          "name": "owner",
          "type": "address"
        }
      ],
      "name": "balanceOf",
      "outputs": [
        {
          "internalType": "uint256",
          "name": "",
          "type": "uint256"
        }
      ],
      "stateMutability": "view",
      "type": "function"
    },
    {
      "inputs": [],
      "name": "contractURI",
      "outputs": [
        {
          "internalType": "string",
          "name": "",
          "type": "string"
        }
      ],
      "stateMutability": "view",
      "type": "function"
    },
    {
      "inputs": [],
      "name": "deposit",
      "outputs": [],
      "stateMutability": "payable",
      "type": "function"
    },
    {
      "inputs": [],
      "name": "depositNonce",
      "outputs": [
        {
          "internalType": "uint256",
          "name": "",
          "type": "uint256"
        }
      ],
      "stateMutability": "view",
      "type": "function"
    },
    {
      "inputs": [
        {
          "internalType": "address",
          "name": "to",
          "type": "address"
        },
        {
          "internalType": "uint256",
          "name": "value",
          "type": "uint256"
        },
        {
          "internalType": "bytes",
          "name": "data",
          "type": "bytes"
        }
      ],
      "name": "execute",
      "outputs": [
        {
          "internalType": "bytes",
          "name": "",
          "type": "bytes"
        }
      ],
      "stateMutability": "nonpayable",
      "type": "function"
    },
    {
      "inputs": [
        {
          "internalType": "uint256",
          "name": "tokenId",
          "type": "uint256"
        }
      ],
      "name": "getApproved",
      "outputs": [
        {
          "internalType": "address",
          "name": "",
          "type": "address"
        }
      ],
      "stateMutability": "view",
      "type": "function"
    },
    {
      "inputs": [],
      "name": "getERC721Storage",
      "outputs": [
        {
          "internalType": "address",
          "name": "",
          "type": "address"
        }
      ],
      "stateMutability": "view",
      "type": "function"
    },
    {
      "inputs": [
        {
          "internalType": "address",
          "name": "owner",
          "type": "address"
        },
        {
          "internalType": "address",
          "name": "operator",
          "type": "address"
        }
      ],
      "name": "isApprovedForAll",
      "outputs": [
        {
          "internalType": "bool",
          "name": "",
          "type": "bool"
        }
      ],
      "stateMutability": "view",
      "type": "function"
    },
    {
      "inputs": [
        {
          "internalType": "address",
          "name": "to",
          "type": "address"
        },
        {
          "internalType": "uint8",
          "name": "cardStyle",
          "type": "uint8"
        }
      ],
      "name": "mint",
      "outputs": [],
      "stateMutability": "payable",
      "type": "function"
    },
    {
      "inputs": [],
      "name": "name",
      "outputs": [
        {
          "internalType": "string",
          "name": "",
          "type": "string"
        }
      ],
      "stateMutability": "view",
      "type": "function"
    },
    {
      "inputs": [],
      "name": "nonce",
      "outputs": [
        {
          "internalType": "uint256",
          "name": "",
          "type": "uint256"
        }
      ],
      "stateMutability": "view",
      "type": "function"
    },
    {
      "inputs": [],
      "name": "owner",
      "outputs": [
        {
          "internalType": "address",
          "name": "",
          "type": "address"
        }
      ],
      "stateMutability": "view",
      "type": "function"
    },
    {
      "inputs": [
        {
          "internalType": "uint256",
          "name": "tokenId",
          "type": "uint256"
        }
      ],
      "name": "ownerOf",
      "outputs": [
        {
          "internalType": "address",
          "name": "",
          "type": "address"
        }
      ],
      "stateMutability": "view",
      "type": "function"
    },
    {
      "inputs": [
        {
          "internalType": "bytes",
          "name": "input",
          "type": "bytes"
        }
      ],
      "name": "preview",
      "outputs": [
        {
          "internalType": "string",
          "name": "",
          "type": "string"
        }
      ],
      "stateMutability": "view",
      "type": "function"
    },
    {
      "inputs": [],
      "name": "renounceOwnership",
      "outputs": [],
      "stateMutability": "nonpayable",
      "type": "function"
    },
    {
      "inputs": [
        {
          "internalType": "address",
          "name": "from",
          "type": "address"
        },
        {
          "internalType": "address",
          "name": "to",
          "type": "address"
        },
        {
          "internalType": "uint256",
          "name": "tokenId",
          "type": "uint256"
        }
      ],
      "name": "safeTransferFrom",
      "outputs": [],
      "stateMutability": "nonpayable",
      "type": "function"
    },
    {
      "inputs": [
        {
          "internalType": "address",
          "name": "from",
          "type": "address"
        },
        {
          "internalType": "address",
          "name": "to",
          "type": "address"
        },
        {
          "internalType": "uint256",
          "name": "tokenId",
          "type": "uint256"
        },
        {
          "internalType": "bytes",
          "name": "data",
          "type": "bytes"
        }
      ],
      "name": "safeTransferFrom",
      "outputs": [],
      "stateMutability": "nonpayable",
      "type": "function"
    },
    {
      "inputs": [
        {
          "internalType": "address",
          "name": "operator",
          "type": "address"
        },
        {
          "internalType": "bool",
          "name": "approved",
          "type": "bool"
        }
      ],
      "name": "setApprovalForAll",
      "outputs": [],
      "stateMutability": "nonpayable",
      "type": "function"
    },
    {
      "inputs": [
        {
          "internalType": "address",
          "name": "erc721Storage",
          "type": "address"
        }
      ],
      "name": "setStorage",
      "outputs": [],
      "stateMutability": "nonpayable",
      "type": "function"
    },
    {
      "inputs": [
        {
          "internalType": "bytes4",
          "name": "interfaceId",
          "type": "bytes4"
        }
      ],
      "name": "supportsInterface",
      "outputs": [
        {
          "internalType": "bool",
          "name": "",
          "type": "bool"
        }
      ],
      "stateMutability": "view",
      "type": "function"
    },
    {
      "inputs": [],
      "name": "symbol",
      "outputs": [
        {
          "internalType": "string",
          "name": "",
          "type": "string"
        }
      ],
      "stateMutability": "view",
      "type": "function"
    },
    {
      "inputs": [
        {
          "internalType": "uint256",
          "name": "tokenId",
          "type": "uint256"
        }
      ],
      "name": "tokenURI",
      "outputs": [
        {
          "internalType": "string",
          "name": "",
          "type": "string"
        }
      ],
      "stateMutability": "view",
      "type": "function"
    },
    {
      "inputs": [],
      "name": "totalSupply",
      "outputs": [
        {
          "internalType": "uint256",
          "name": "",
          "type": "uint256"
        }
      ],
      "stateMutability": "view",
      "type": "function"
    },
    {
      "inputs": [
        {
          "internalType": "address",
          "name": "from",
          "type": "address"
        },
        {
          "internalType": "address",
          "name": "to",
          "type": "address"
        },
        {
          "internalType": "uint256",
          "name": "tokenId",
          "type": "uint256"
        }
      ],
      "name": "transferFrom",
      "outputs": [],
      "stateMutability": "nonpayable",
      "type": "function"
    },
    {
      "inputs": [
        {
          "internalType": "address",
          "name": "newOwner",
          "type": "address"
        }
      ],
      "name": "transferOwnership",
      "outputs": [],
      "stateMutability": "nonpayable",
      "type": "function"
    },
    {
      "inputs": [
        {
          "internalType": "uint256",
          "name": "amount",
          "type": "uint256"
        }
      ],
      "name": "withdraw",
      "outputs": [],
      "stateMutability": "nonpayable",
      "type": "function"
    },
    {
      "stateMutability": "payable",
      "type": "receive"
    }
  ],
  "transactionHash": "0x83762b941462775219c3881c17dd9da3ac419460bb7d745f1ec90e53895bf11c",
  "args": [
    "Impact Card",
    "CC",
    "0x029327EB51310C7AA5E8d999B637F690cFc9a581"
  ],
  "numDeployments": 1,
  "solcInputHash": "9255c35bf680dace90e4731eec4ad769",
  "bytecode": "0x60806040523480156200001157600080fd5b5060405162003a4e38038062003a4e83398181016040528101906200003791906200039f565b828282828281600090816200004d919062000684565b5080600190816200005f919062000684565b5050506200008262000076620000cf60201b60201c565b620000d760201b60201c565b80600860006101000a81548173ffffffffffffffffffffffffffffffffffffffff021916908373ffffffffffffffffffffffffffffffffffffffff1602179055505050505050506200076b565b600033905090565b6000600660009054906101000a900473ffffffffffffffffffffffffffffffffffffffff16905081600660006101000a81548173ffffffffffffffffffffffffffffffffffffffff021916908373ffffffffffffffffffffffffffffffffffffffff1602179055508173ffffffffffffffffffffffffffffffffffffffff168173ffffffffffffffffffffffffffffffffffffffff167f8be0079c531659141344cd1fd0a4f28419497f9722a3daafe3b4186f6b6457e060405160405180910390a35050565b6000604051905090565b600080fd5b600080fd5b600080fd5b600080fd5b6000601f19601f8301169050919050565b7f4e487b7100000000000000000000000000000000000000000000000000000000600052604160045260246000fd5b6200020682620001bb565b810181811067ffffffffffffffff82111715620002285762000227620001cc565b5b80604052505050565b60006200023d6200019d565b90506200024b8282620001fb565b919050565b600067ffffffffffffffff8211156200026e576200026d620001cc565b5b6200027982620001bb565b9050602081019050919050565b60005b83811015620002a657808201518184015260208101905062000289565b83811115620002b6576000848401525b50505050565b6000620002d3620002cd8462000250565b62000231565b905082815260208101848484011115620002f257620002f1620001b6565b5b620002ff84828562000286565b509392505050565b600082601f8301126200031f576200031e620001b1565b5b815162000331848260208601620002bc565b91505092915050565b600073ffffffffffffffffffffffffffffffffffffffff82169050919050565b600062000367826200033a565b9050919050565b62000379816200035a565b81146200038557600080fd5b50565b60008151905062000399816200036e565b92915050565b600080600060608486031215620003bb57620003ba620001a7565b5b600084015167ffffffffffffffff811115620003dc57620003db620001ac565b5b620003ea8682870162000307565b935050602084015167ffffffffffffffff8111156200040e576200040d620001ac565b5b6200041c8682870162000307565b92505060406200042f8682870162000388565b9150509250925092565b600081519050919050565b7f4e487b7100000000000000000000000000000000000000000000000000000000600052602260045260246000fd5b600060028204905060018216806200048c57607f821691505b602082108103620004a257620004a162000444565b5b50919050565b60008190508160005260206000209050919050565b60006020601f8301049050919050565b600082821b905092915050565b6000600883026200050c7fffffffffffffffffffffffffffffffffffffffffffffffffffffffffffffffff82620004cd565b620005188683620004cd565b95508019841693508086168417925050509392505050565b6000819050919050565b6000819050919050565b6000620005656200055f620005598462000530565b6200053a565b62000530565b9050919050565b6000819050919050565b620005818362000544565b6200059962000590826200056c565b848454620004da565b825550505050565b600090565b620005b0620005a1565b620005bd81848462000576565b505050565b5b81811015620005e557620005d9600082620005a6565b600181019050620005c3565b5050565b601f8211156200063457620005fe81620004a8565b6200060984620004bd565b8101602085101562000619578190505b620006316200062885620004bd565b830182620005c2565b50505b505050565b600082821c905092915050565b6000620006596000198460080262000639565b1980831691505092915050565b600062000674838362000646565b9150826002028217905092915050565b6200068f8262000439565b67ffffffffffffffff811115620006ab57620006aa620001cc565b5b620006b7825462000473565b620006c4828285620005e9565b600060209050601f831160018114620006fc5760008415620006e7578287015190505b620006f3858262000666565b86555062000763565b601f1984166200070c86620004a8565b60005b8281101562000736578489015182556001820191506020850194506020810190506200070f565b8683101562000756578489015162000752601f89168262000646565b8355505b6001600288020188555050505b505050505050565b6132d3806200077b6000396000f3fe6080604052600436106101a05760003560e01c80638da5cb5b116100ec578063b88d4fde1161008a578063de35f5cb11610064578063de35f5cb146105b2578063e8a3d485146105dd578063e985e9c514610608578063f2fde38b14610645576101a7565b8063b88d4fde14610542578063c87b56dd1461056b578063d0e30db0146105a8576101a7565b8063a22cb465116100c6578063a22cb46514610474578063affed0e01461049d578063b3517350146104c8578063b61d27f614610505576101a7565b80638da5cb5b146103f55780639137c1a71461042057806395d89b4114610449576101a7565b80632e1a7d4d11610159578063691562a011610133578063691562a01461035a57806370a0823114610376578063715018a6146103b357806387a89ee6146103ca576101a7565b80632e1a7d4d146102cb57806342842e0e146102f45780636352211e1461031d576101a7565b806301ffc9a7146101a957806306fdde03146101e6578063081812fc14610211578063095ea7b31461024e57806318160ddd1461027757806323b872dd146102a2576101a7565b366101a757005b005b3480156101b557600080fd5b506101d060048036038101906101cb9190611f5a565b61066e565b6040516101dd9190611fa2565b60405180910390f35b3480156101f257600080fd5b506101fb610680565b6040516102089190612056565b60405180910390f35b34801561021d57600080fd5b50610238600480360381019061023391906120ae565b610712565b604051610245919061211c565b60405180910390f35b34801561025a57600080fd5b5061027560048036038101906102709190612163565b610758565b005b34801561028357600080fd5b5061028c61086f565b60405161029991906121b2565b60405180910390f35b3480156102ae57600080fd5b506102c960048036038101906102c491906121cd565b610879565b005b3480156102d757600080fd5b506102f260048036038101906102ed91906120ae565b6108d9565b005b34801561030057600080fd5b5061031b600480360381019061031691906121cd565b61096e565b005b34801561032957600080fd5b50610344600480360381019061033f91906120ae565b61098e565b604051610351919061211c565b60405180910390f35b610374600480360381019061036f9190612259565b610a3f565b005b34801561038257600080fd5b5061039d60048036038101906103989190612299565b610a97565b6040516103aa91906121b2565b60405180910390f35b3480156103bf57600080fd5b506103c8610b4e565b005b3480156103d657600080fd5b506103df610b62565b6040516103ec919061211c565b60405180910390f35b34801561040157600080fd5b5061040a610b8c565b604051610417919061211c565b60405180910390f35b34801561042c57600080fd5b5061044760048036038101906104429190612299565b610bb6565b005b34801561045557600080fd5b5061045e610c39565b60405161046b9190612056565b60405180910390f35b34801561048057600080fd5b5061049b600480360381019061049691906122f2565b610ccb565b005b3480156104a957600080fd5b506104b2610ce1565b6040516104bf91906121b2565b60405180910390f35b3480156104d457600080fd5b506104ef60048036038101906104ea9190612467565b610ce7565b6040516104fc9190612056565b60405180910390f35b34801561051157600080fd5b5061052c60048036038101906105279190612510565b610dff565b60405161053991906125d9565b60405180910390f35b34801561054e57600080fd5b50610569600480360381019061056491906125fb565b610ee0565b005b34801561057757600080fd5b50610592600480360381019061058d91906120ae565b610f42565b60405161059f9190612056565b60405180910390f35b6105b0611002565b005b3480156105be57600080fd5b506105c761101c565b6040516105d491906121b2565b60405180910390f35b3480156105e957600080fd5b506105f2611022565b6040516105ff9190612056565b60405180910390f35b34801561061457600080fd5b5061062f600480360381019061062a919061267e565b6110bf565b60405161063c9190611fa2565b60405180910390f35b34801561065157600080fd5b5061066c60048036038101906106679190612299565b611153565b005b6000610679826111d6565b9050919050565b60606000805461068f906126ed565b80601f01602080910402602001604051908101604052809291908181526020018280546106bb906126ed565b80156107085780601f106106dd57610100808354040283529160200191610708565b820191906000526020600020905b8154815290600101906020018083116106eb57829003601f168201915b5050505050905090565b600061071d826112b8565b6004600083815260200190815260200160002060009054906101000a900473ffffffffffffffffffffffffffffffffffffffff169050919050565b60006107638261098e565b90508073ffffffffffffffffffffffffffffffffffffffff168373ffffffffffffffffffffffffffffffffffffffff16036107d3576040517f08c379a00000000000000000000000000000000000000000000000000000000081526004016107ca90612790565b60405180910390fd5b8073ffffffffffffffffffffffffffffffffffffffff166107f2611303565b73ffffffffffffffffffffffffffffffffffffffff16148061082157506108208161081b611303565b6110bf565b5b610860576040517f08c379a000000000000000000000000000000000000000000000000000000000815260040161085790612822565b60405180910390fd5b61086a838361130b565b505050565b6000600754905090565b61088a610884611303565b826113c4565b6108c9576040517f08c379a00000000000000000000000000000000000000000000000000000000081526004016108c0906128b4565b60405180910390fd5b6108d4838383611459565b505050565b6108e16116bf565b47811115610924576040517f08c379a000000000000000000000000000000000000000000000000000000000815260040161091b90612920565b60405180910390fd5b3373ffffffffffffffffffffffffffffffffffffffff166108fc829081150290604051600060405180830381858888f1935050505015801561096a573d6000803e3d6000fd5b5050565b61098983838360405180602001604052806000815250610ee0565b505050565b6000806002600084815260200190815260200160002060009054906101000a900473ffffffffffffffffffffffffffffffffffffffff169050600073ffffffffffffffffffffffffffffffffffffffff168173ffffffffffffffffffffffffffffffffffffffff1603610a36576040517f08c379a0000000000000000000000000000000000000000000000000000000008152600401610a2d9061298c565b60405180910390fd5b80915050919050565b610a476116bf565b60006007600081548092919060010191905055905081600b600083815260200190815260200160002060006101000a81548160ff021916908360ff160217905550610a92838261173d565b505050565b60008073ffffffffffffffffffffffffffffffffffffffff168273ffffffffffffffffffffffffffffffffffffffff1603610b07576040517f08c379a0000000000000000000000000000000000000000000000000000000008152600401610afe90612a1e565b60405180910390fd5b600360008373ffffffffffffffffffffffffffffffffffffffff1673ffffffffffffffffffffffffffffffffffffffff168152602001908152602001600020549050919050565b610b566116bf565b610b606000611916565b565b6000600860009054906101000a900473ffffffffffffffffffffffffffffffffffffffff16905090565b6000600660009054906101000a900473ffffffffffffffffffffffffffffffffffffffff16905090565b610bbe6116bf565b80600860006101000a81548173ffffffffffffffffffffffffffffffffffffffff021916908373ffffffffffffffffffffffffffffffffffffffff1602179055507fd833c7cea3bce2562e201bf7e85016d0bc1173580c719f63378cc5d0457552b681604051610c2e919061211c565b60405180910390a150565b606060018054610c48906126ed565b80601f0160208091040260200160405190810160405280929190818152602001828054610c74906126ed565b8015610cc15780601f10610c9657610100808354040283529160200191610cc1565b820191906000526020600020905b815481529060010190602001808311610ca457829003601f168201915b5050505050905090565b610cdd610cd6611303565b83836119dc565b5050565b60095481565b6060600860009054906101000a900473ffffffffffffffffffffffffffffffffffffffff1673ffffffffffffffffffffffffffffffffffffffff16639a17092a6040518163ffffffff1660e01b8152600401602060405180830381865afa158015610d56573d6000803e3d6000fd5b505050506040513d601f19601f82011682018060405250810190610d7a9190612a53565b73ffffffffffffffffffffffffffffffffffffffff1663316df61e836040518263ffffffff1660e01b8152600401610db291906125d9565b600060405180830381865afa158015610dcf573d6000803e3d6000fd5b505050506040513d6000823e3d601f19601f82011682018060405250810190610df89190612b21565b9050919050565b6060610e096116bf565b6000808673ffffffffffffffffffffffffffffffffffffffff16868686604051610e34929190612b9a565b60006040518083038185875af1925050503d8060008114610e71576040519150601f19603f3d011682016040523d82523d6000602084013e610e76565b606091505b509150915081610ebb576040517f08c379a0000000000000000000000000000000000000000000000000000000008152600401610eb290612bff565b60405180910390fd5b60096000815480929190610ece90612c4e565b91905055508092505050949350505050565b610ef1610eeb611303565b836113c4565b610f30576040517f08c379a0000000000000000000000000000000000000000000000000000000008152600401610f27906128b4565b60405180910390fd5b610f3c84848484611b48565b50505050565b6060600080610f5084611ba4565b91509150600860009054906101000a900473ffffffffffffffffffffffffffffffffffffffff1673ffffffffffffffffffffffffffffffffffffffff1663f06796168584846040518463ffffffff1660e01b8152600401610fb393929190612c96565b600060405180830381865afa158015610fd0573d6000803e3d6000fd5b505050506040513d6000823e3d601f19601f82011682018060405250810190610ff99190612b21565b92505050919050565b600a600081548092919061101590612c4e565b9190505550565b600a5481565b6060600860009054906101000a900473ffffffffffffffffffffffffffffffffffffffff1673ffffffffffffffffffffffffffffffffffffffff1663725fa09c6040518163ffffffff1660e01b8152600401600060405180830381865afa158015611091573d6000803e3d6000fd5b505050506040513d6000823e3d601f19601f820116820180604052508101906110ba9190612b21565b905090565b6000600560008473ffffffffffffffffffffffffffffffffffffffff1673ffffffffffffffffffffffffffffffffffffffff16815260200190815260200160002060008373ffffffffffffffffffffffffffffffffffffffff1673ffffffffffffffffffffffffffffffffffffffff16815260200190815260200160002060009054906101000a900460ff16905092915050565b61115b6116bf565b600073ffffffffffffffffffffffffffffffffffffffff168173ffffffffffffffffffffffffffffffffffffffff16036111ca576040517f08c379a00000000000000000000000000000000000000000000000000000000081526004016111c190612d4d565b60405180910390fd5b6111d381611916565b50565b60007f80ac58cd000000000000000000000000000000000000000000000000000000007bffffffffffffffffffffffffffffffffffffffffffffffffffffffff1916827bffffffffffffffffffffffffffffffffffffffffffffffffffffffff191614806112a157507f5b5e139f000000000000000000000000000000000000000000000000000000007bffffffffffffffffffffffffffffffffffffffffffffffffffffffff1916827bffffffffffffffffffffffffffffffffffffffffffffffffffffffff1916145b806112b157506112b082611c64565b5b9050919050565b6112c181611cce565b611300576040517f08c379a00000000000000000000000000000000000000000000000000000000081526004016112f79061298c565b60405180910390fd5b50565b600033905090565b816004600083815260200190815260200160002060006101000a81548173ffffffffffffffffffffffffffffffffffffffff021916908373ffffffffffffffffffffffffffffffffffffffff160217905550808273ffffffffffffffffffffffffffffffffffffffff1661137e8361098e565b73ffffffffffffffffffffffffffffffffffffffff167f8c5be1e5ebec7d5bd14f71427d1e84f3dd0314c0f7b2291e5b200ac8c7c3b92560405160405180910390a45050565b6000806113d08361098e565b90508073ffffffffffffffffffffffffffffffffffffffff168473ffffffffffffffffffffffffffffffffffffffff161480611412575061141181856110bf565b5b8061145057508373ffffffffffffffffffffffffffffffffffffffff1661143884610712565b73ffffffffffffffffffffffffffffffffffffffff16145b91505092915050565b8273ffffffffffffffffffffffffffffffffffffffff166114798261098e565b73ffffffffffffffffffffffffffffffffffffffff16146114cf576040517f08c379a00000000000000000000000000000000000000000000000000000000081526004016114c690612ddf565b60405180910390fd5b600073ffffffffffffffffffffffffffffffffffffffff168273ffffffffffffffffffffffffffffffffffffffff160361153e576040517f08c379a000000000000000000000000000000000000000000000000000000000815260040161153590612e71565b60405180910390fd5b611549838383611d3a565b61155460008261130b565b6001600360008573ffffffffffffffffffffffffffffffffffffffff1673ffffffffffffffffffffffffffffffffffffffff16815260200190815260200160002060008282546115a49190612e91565b925050819055506001600360008473ffffffffffffffffffffffffffffffffffffffff1673ffffffffffffffffffffffffffffffffffffffff16815260200190815260200160002060008282546115fb9190612ec5565b92505081905550816002600083815260200190815260200160002060006101000a81548173ffffffffffffffffffffffffffffffffffffffff021916908373ffffffffffffffffffffffffffffffffffffffff160217905550808273ffffffffffffffffffffffffffffffffffffffff168473ffffffffffffffffffffffffffffffffffffffff167fddf252ad1be2c89b69c2b068fc378daa952ba7f163c4a11628f55a4df523b3ef60405160405180910390a46116ba838383611d3f565b505050565b6116c7611303565b73ffffffffffffffffffffffffffffffffffffffff166116e5610b8c565b73ffffffffffffffffffffffffffffffffffffffff161461173b576040517f08c379a000000000000000000000000000000000000000000000000000000000815260040161173290612f67565b60405180910390fd5b565b600073ffffffffffffffffffffffffffffffffffffffff168273ffffffffffffffffffffffffffffffffffffffff16036117ac576040517f08c379a00000000000000000000000000000000000000000000000000000000081526004016117a390612fd3565b60405180910390fd5b6117b581611cce565b156117f5576040517f08c379a00000000000000000000000000000000000000000000000000000000081526004016117ec9061303f565b60405180910390fd5b61180160008383611d3a565b6001600360008473ffffffffffffffffffffffffffffffffffffffff1673ffffffffffffffffffffffffffffffffffffffff16815260200190815260200160002060008282546118519190612ec5565b92505081905550816002600083815260200190815260200160002060006101000a81548173ffffffffffffffffffffffffffffffffffffffff021916908373ffffffffffffffffffffffffffffffffffffffff160217905550808273ffffffffffffffffffffffffffffffffffffffff16600073ffffffffffffffffffffffffffffffffffffffff167fddf252ad1be2c89b69c2b068fc378daa952ba7f163c4a11628f55a4df523b3ef60405160405180910390a461191260008383611d3f565b5050565b6000600660009054906101000a900473ffffffffffffffffffffffffffffffffffffffff16905081600660006101000a81548173ffffffffffffffffffffffffffffffffffffffff021916908373ffffffffffffffffffffffffffffffffffffffff1602179055508173ffffffffffffffffffffffffffffffffffffffff168173ffffffffffffffffffffffffffffffffffffffff167f8be0079c531659141344cd1fd0a4f28419497f9722a3daafe3b4186f6b6457e060405160405180910390a35050565b8173ffffffffffffffffffffffffffffffffffffffff168373ffffffffffffffffffffffffffffffffffffffff1603611a4a576040517f08c379a0000000000000000000000000000000000000000000000000000000008152600401611a41906130ab565b60405180910390fd5b80600560008573ffffffffffffffffffffffffffffffffffffffff1673ffffffffffffffffffffffffffffffffffffffff16815260200190815260200160002060008473ffffffffffffffffffffffffffffffffffffffff1673ffffffffffffffffffffffffffffffffffffffff16815260200190815260200160002060006101000a81548160ff0219169083151502179055508173ffffffffffffffffffffffffffffffffffffffff168373ffffffffffffffffffffffffffffffffffffffff167f17307eab39ab6107e8899845ad3d59bd9653f200f220920489ca2b5937696c3183604051611b3b9190611fa2565b60405180910390a3505050565b611b53848484611459565b611b5f84848484611d44565b611b9e576040517f08c379a0000000000000000000000000000000000000000000000000000000008152600401611b959061313d565b60405180910390fd5b50505050565b6060806000611bb28461098e565b9050600047905060008273ffffffffffffffffffffffffffffffffffffffff163190506000600a54600954611be79190612ec5565b905060008382600b60008b815260200190815260200160002060009054906101000a900460ff16604051602001611c209392919061316c565b60405160208183030381529060405290506000604051602001611c42906131ef565b6040516020818303038152906040529050818197509750505050505050915091565b60007f01ffc9a7000000000000000000000000000000000000000000000000000000007bffffffffffffffffffffffffffffffffffffffffffffffffffffffff1916827bffffffffffffffffffffffffffffffffffffffffffffffffffffffff1916149050919050565b60008073ffffffffffffffffffffffffffffffffffffffff166002600084815260200190815260200160002060009054906101000a900473ffffffffffffffffffffffffffffffffffffffff1673ffffffffffffffffffffffffffffffffffffffff1614159050919050565b505050565b505050565b6000611d658473ffffffffffffffffffffffffffffffffffffffff16611ecb565b15611ebe578373ffffffffffffffffffffffffffffffffffffffff1663150b7a02611d8e611303565b8786866040518563ffffffff1660e01b8152600401611db0949392919061320f565b6020604051808303816000875af1925050508015611dec57506040513d601f19601f82011682018060405250810190611de99190613270565b60015b611e6e573d8060008114611e1c576040519150601f19603f3d011682016040523d82523d6000602084013e611e21565b606091505b506000815103611e66576040517f08c379a0000000000000000000000000000000000000000000000000000000008152600401611e5d9061313d565b60405180910390fd5b805181602001fd5b63150b7a0260e01b7bffffffffffffffffffffffffffffffffffffffffffffffffffffffff1916817bffffffffffffffffffffffffffffffffffffffffffffffffffffffff191614915050611ec3565b600190505b949350505050565b6000808273ffffffffffffffffffffffffffffffffffffffff163b119050919050565b6000604051905090565b600080fd5b600080fd5b60007fffffffff0000000000000000000000000000000000000000000000000000000082169050919050565b611f3781611f02565b8114611f4257600080fd5b50565b600081359050611f5481611f2e565b92915050565b600060208284031215611f7057611f6f611ef8565b5b6000611f7e84828501611f45565b91505092915050565b60008115159050919050565b611f9c81611f87565b82525050565b6000602082019050611fb76000830184611f93565b92915050565b600081519050919050565b600082825260208201905092915050565b60005b83811015611ff7578082015181840152602081019050611fdc565b83811115612006576000848401525b50505050565b6000601f19601f8301169050919050565b600061202882611fbd565b6120328185611fc8565b9350612042818560208601611fd9565b61204b8161200c565b840191505092915050565b60006020820190508181036000830152612070818461201d565b905092915050565b6000819050919050565b61208b81612078565b811461209657600080fd5b50565b6000813590506120a881612082565b92915050565b6000602082840312156120c4576120c3611ef8565b5b60006120d284828501612099565b91505092915050565b600073ffffffffffffffffffffffffffffffffffffffff82169050919050565b6000612106826120db565b9050919050565b612116816120fb565b82525050565b6000602082019050612131600083018461210d565b92915050565b612140816120fb565b811461214b57600080fd5b50565b60008135905061215d81612137565b92915050565b6000806040838503121561217a57612179611ef8565b5b60006121888582860161214e565b925050602061219985828601612099565b9150509250929050565b6121ac81612078565b82525050565b60006020820190506121c760008301846121a3565b92915050565b6000806000606084860312156121e6576121e5611ef8565b5b60006121f48682870161214e565b93505060206122058682870161214e565b925050604061221686828701612099565b9150509250925092565b600060ff82169050919050565b61223681612220565b811461224157600080fd5b50565b6000813590506122538161222d565b92915050565b600080604083850312156122705761226f611ef8565b5b600061227e8582860161214e565b925050602061228f85828601612244565b9150509250929050565b6000602082840312156122af576122ae611ef8565b5b60006122bd8482850161214e565b91505092915050565b6122cf81611f87565b81146122da57600080fd5b50565b6000813590506122ec816122c6565b92915050565b6000806040838503121561230957612308611ef8565b5b60006123178582860161214e565b9250506020612328858286016122dd565b9150509250929050565b600080fd5b600080fd5b7f4e487b7100000000000000000000000000000000000000000000000000000000600052604160045260246000fd5b6123748261200c565b810181811067ffffffffffffffff821117156123935761239261233c565b5b80604052505050565b60006123a6611eee565b90506123b2828261236b565b919050565b600067ffffffffffffffff8211156123d2576123d161233c565b5b6123db8261200c565b9050602081019050919050565b82818337600083830152505050565b600061240a612405846123b7565b61239c565b90508281526020810184848401111561242657612425612337565b5b6124318482856123e8565b509392505050565b600082601f83011261244e5761244d612332565b5b813561245e8482602086016123f7565b91505092915050565b60006020828403121561247d5761247c611ef8565b5b600082013567ffffffffffffffff81111561249b5761249a611efd565b5b6124a784828501612439565b91505092915050565b600080fd5b600080fd5b60008083601f8401126124d0576124cf612332565b5b8235905067ffffffffffffffff8111156124ed576124ec6124b0565b5b602083019150836001820283011115612509576125086124b5565b5b9250929050565b6000806000806060858703121561252a57612529611ef8565b5b60006125388782880161214e565b945050602061254987828801612099565b935050604085013567ffffffffffffffff81111561256a57612569611efd565b5b612576878288016124ba565b925092505092959194509250565b600081519050919050565b600082825260208201905092915050565b60006125ab82612584565b6125b5818561258f565b93506125c5818560208601611fd9565b6125ce8161200c565b840191505092915050565b600060208201905081810360008301526125f381846125a0565b905092915050565b6000806000806080858703121561261557612614611ef8565b5b60006126238782880161214e565b94505060206126348782880161214e565b935050604061264587828801612099565b925050606085013567ffffffffffffffff81111561266657612665611efd565b5b61267287828801612439565b91505092959194509250565b6000806040838503121561269557612694611ef8565b5b60006126a38582860161214e565b92505060206126b48582860161214e565b9150509250929050565b7f4e487b7100000000000000000000000000000000000000000000000000000000600052602260045260246000fd5b6000600282049050600182168061270557607f821691505b602082108103612718576127176126be565b5b50919050565b7f4552433732313a20617070726f76616c20746f2063757272656e74206f776e6560008201527f7200000000000000000000000000000000000000000000000000000000000000602082015250565b600061277a602183611fc8565b91506127858261271e565b604082019050919050565b600060208201905081810360008301526127a98161276d565b9050919050565b7f4552433732313a20617070726f76652063616c6c6572206973206e6f7420746f60008201527f6b656e206f776e6572206e6f7220617070726f76656420666f7220616c6c0000602082015250565b600061280c603e83611fc8565b9150612817826127b0565b604082019050919050565b6000602082019050818103600083015261283b816127ff565b9050919050565b7f4552433732313a2063616c6c6572206973206e6f7420746f6b656e206f776e6560008201527f72206e6f7220617070726f766564000000000000000000000000000000000000602082015250565b600061289e602e83611fc8565b91506128a982612842565b604082019050919050565b600060208201905081810360008301526128cd81612891565b9050919050565b7f496d70616374436172643a2d696e73756666696369656e742d66756e64730000600082015250565b600061290a601e83611fc8565b9150612915826128d4565b602082019050919050565b60006020820190508181036000830152612939816128fd565b9050919050565b7f4552433732313a20696e76616c696420746f6b656e2049440000000000000000600082015250565b6000612976601883611fc8565b915061298182612940565b602082019050919050565b600060208201905081810360008301526129a581612969565b9050919050565b7f4552433732313a2061646472657373207a65726f206973206e6f74206120766160008201527f6c6964206f776e65720000000000000000000000000000000000000000000000602082015250565b6000612a08602983611fc8565b9150612a13826129ac565b604082019050919050565b60006020820190508181036000830152612a37816129fb565b9050919050565b600081519050612a4d81612137565b92915050565b600060208284031215612a6957612a68611ef8565b5b6000612a7784828501612a3e565b91505092915050565b600067ffffffffffffffff821115612a9b57612a9a61233c565b5b612aa48261200c565b9050602081019050919050565b6000612ac4612abf84612a80565b61239c565b905082815260208101848484011115612ae057612adf612337565b5b612aeb848285611fd9565b509392505050565b600082601f830112612b0857612b07612332565b5b8151612b18848260208601612ab1565b91505092915050565b600060208284031215612b3757612b36611ef8565b5b600082015167ffffffffffffffff811115612b5557612b54611efd565b5b612b6184828501612af3565b91505092915050565b600081905092915050565b6000612b818385612b6a565b9350612b8e8385846123e8565b82840190509392505050565b6000612ba7828486612b75565b91508190509392505050565b7f496d70616374436172643a657865637574652d6661696c656400000000000000600082015250565b6000612be9601983611fc8565b9150612bf482612bb3565b602082019050919050565b60006020820190508181036000830152612c1881612bdc565b9050919050565b7f4e487b7100000000000000000000000000000000000000000000000000000000600052601160045260246000fd5b6000612c5982612078565b91507fffffffffffffffffffffffffffffffffffffffffffffffffffffffffffffffff8203612c8b57612c8a612c1f565b5b600182019050919050565b6000606082019050612cab60008301866121a3565b8181036020830152612cbd81856125a0565b90508181036040830152612cd181846125a0565b9050949350505050565b7f4f776e61626c653a206e6577206f776e657220697320746865207a65726f206160008201527f6464726573730000000000000000000000000000000000000000000000000000602082015250565b6000612d37602683611fc8565b9150612d4282612cdb565b604082019050919050565b60006020820190508181036000830152612d6681612d2a565b9050919050565b7f4552433732313a207472616e736665722066726f6d20696e636f72726563742060008201527f6f776e6572000000000000000000000000000000000000000000000000000000602082015250565b6000612dc9602583611fc8565b9150612dd482612d6d565b604082019050919050565b60006020820190508181036000830152612df881612dbc565b9050919050565b7f4552433732313a207472616e7366657220746f20746865207a65726f2061646460008201527f7265737300000000000000000000000000000000000000000000000000000000602082015250565b6000612e5b602483611fc8565b9150612e6682612dff565b604082019050919050565b60006020820190508181036000830152612e8a81612e4e565b9050919050565b6000612e9c82612078565b9150612ea783612078565b925082821015612eba57612eb9612c1f565b5b828203905092915050565b6000612ed082612078565b9150612edb83612078565b9250827fffffffffffffffffffffffffffffffffffffffffffffffffffffffffffffffff03821115612f1057612f0f612c1f565b5b828201905092915050565b7f4f776e61626c653a2063616c6c6572206973206e6f7420746865206f776e6572600082015250565b6000612f51602083611fc8565b9150612f5c82612f1b565b602082019050919050565b60006020820190508181036000830152612f8081612f44565b9050919050565b7f4552433732313a206d696e7420746f20746865207a65726f2061646472657373600082015250565b6000612fbd602083611fc8565b9150612fc882612f87565b602082019050919050565b60006020820190508181036000830152612fec81612fb0565b9050919050565b7f4552433732313a20746f6b656e20616c7265616479206d696e74656400000000600082015250565b6000613029601c83611fc8565b915061303482612ff3565b602082019050919050565b600060208201905081810360008301526130588161301c565b9050919050565b7f4552433732313a20617070726f766520746f2063616c6c657200000000000000600082015250565b6000613095601983611fc8565b91506130a08261305f565b602082019050919050565b600060208201905081810360008301526130c481613088565b9050919050565b7f4552433732313a207472616e7366657220746f206e6f6e20455243373231526560008201527f63656976657220696d706c656d656e7465720000000000000000000000000000602082015250565b6000613127603283611fc8565b9150613132826130cb565b604082019050919050565b600060208201905081810360008301526131568161311a565b9050919050565b61316681612220565b82525050565b600060608201905061318160008301866121a3565b61318e60208301856121a3565b61319b604083018461315d565b949350505050565b7f3078300000000000000000000000000000000000000000000000000000000000600082015250565b60006131d9600383611fc8565b91506131e4826131a3565b602082019050919050565b60006020820190508181036000830152613208816131cc565b9050919050565b6000608082019050613224600083018761210d565b613231602083018661210d565b61323e60408301856121a3565b818103606083015261325081846125a0565b905095945050505050565b60008151905061326a81611f2e565b92915050565b60006020828403121561328657613285611ef8565b5b60006132948482850161325b565b9150509291505056fea2646970667358221220579949fa86df39b5ff1a9d58266794f7f51278e675299762dffae20bd0b9544964736f6c634300080f0033",
  "devdoc": {
    "kind": "dev",
    "methods": {
      "approve(address,uint256)": {
        "details": "See {IERC721-approve}."
      },
      "balanceOf(address)": {
        "details": "See {IERC721-balanceOf}."
      },
      "getApproved(uint256)": {
        "details": "See {IERC721-getApproved}."
      },
      "isApprovedForAll(address,address)": {
        "details": "See {IERC721-isApprovedForAll}."
      },
      "mint(address,uint8)": {
        "params": {
          "to": "address - Address to mint to`"
        }
      },
      "name()": {
        "details": "See {IERC721Metadata-name}."
      },
      "owner()": {
        "details": "Returns the address of the current owner."
      },
      "ownerOf(uint256)": {
        "details": "See {IERC721-ownerOf}."
      },
      "renounceOwnership()": {
        "details": "Leaves the contract without owner. It will not be possible to call `onlyOwner` functions anymore. Can only be called by the current owner. NOTE: Renouncing ownership will leave the contract without an owner, thereby removing any functionality that is only available to the owner."
      },
      "safeTransferFrom(address,address,uint256)": {
        "details": "See {IERC721-safeTransferFrom}."
      },
      "safeTransferFrom(address,address,uint256,bytes)": {
        "details": "See {IERC721-safeTransferFrom}."
      },
      "setApprovalForAll(address,bool)": {
        "details": "See {IERC721-setApprovalForAll}."
      },
      "supportsInterface(bytes4)": {
        "details": "See {IERC165-supportsInterface}."
      },
      "symbol()": {
        "details": "See {IERC721Metadata-symbol}."
      },
      "tokenURI(uint256)": {
        "details": "See {IERC721Metadata-tokenURI}."
      },
      "transferFrom(address,address,uint256)": {
        "details": "See {IERC721-transferFrom}."
      },
      "transferOwnership(address)": {
        "details": "Transfers ownership of the contract to a new account (`newOwner`). Can only be called by the current owner."
      }
    },
    "version": 1
  },
  "userdoc": {
    "kind": "user",
    "methods": {
      "mint(address,uint8)": {
        "notice": "Mints a new token to the given address"
      }
    },
    "version": 1
  },
  "storageLayout": {
    "storage": [
      {
        "astId": 593,
        "contract": "contracts/ImpactCard.sol:ImpactCard",
        "label": "_name",
        "offset": 0,
        "slot": "0",
        "type": "t_string_storage"
      },
      {
        "astId": 595,
        "contract": "contracts/ImpactCard.sol:ImpactCard",
        "label": "_symbol",
        "offset": 0,
        "slot": "1",
        "type": "t_string_storage"
      },
      {
        "astId": 599,
        "contract": "contracts/ImpactCard.sol:ImpactCard",
        "label": "_owners",
        "offset": 0,
        "slot": "2",
        "type": "t_mapping(t_uint256,t_address)"
      },
      {
        "astId": 603,
        "contract": "contracts/ImpactCard.sol:ImpactCard",
        "label": "_balances",
        "offset": 0,
        "slot": "3",
        "type": "t_mapping(t_address,t_uint256)"
      },
      {
        "astId": 607,
        "contract": "contracts/ImpactCard.sol:ImpactCard",
        "label": "_tokenApprovals",
        "offset": 0,
        "slot": "4",
        "type": "t_mapping(t_uint256,t_address)"
      },
      {
        "astId": 613,
        "contract": "contracts/ImpactCard.sol:ImpactCard",
        "label": "_operatorApprovals",
        "offset": 0,
        "slot": "5",
        "type": "t_mapping(t_address,t_mapping(t_address,t_bool))"
      },
      {
        "astId": 462,
        "contract": "contracts/ImpactCard.sol:ImpactCard",
        "label": "_owner",
        "offset": 0,
        "slot": "6",
        "type": "t_address"
      },
      {
        "astId": 15,
        "contract": "contracts/ImpactCard.sol:ImpactCard",
        "label": "_idCounter",
        "offset": 0,
        "slot": "7",
        "type": "t_uint256"
      },
      {
        "astId": 18,
        "contract": "contracts/ImpactCard.sol:ImpactCard",
        "label": "_erc721Storage",
        "offset": 0,
        "slot": "8",
        "type": "t_address"
      },
      {
        "astId": 2301,
        "contract": "contracts/ImpactCard.sol:ImpactCard",
        "label": "nonce",
        "offset": 0,
        "slot": "9",
        "type": "t_uint256"
      },
      {
        "astId": 2303,
        "contract": "contracts/ImpactCard.sol:ImpactCard",
        "label": "depositNonce",
        "offset": 0,
        "slot": "10",
        "type": "t_uint256"
      },
      {
        "astId": 2307,
        "contract": "contracts/ImpactCard.sol:ImpactCard",
        "label": "styleSelection",
        "offset": 0,
        "slot": "11",
        "type": "t_mapping(t_uint256,t_uint8)"
      }
    ],
    "types": {
      "t_address": {
        "encoding": "inplace",
        "label": "address",
        "numberOfBytes": "20"
      },
      "t_bool": {
        "encoding": "inplace",
        "label": "bool",
        "numberOfBytes": "1"
      },
      "t_mapping(t_address,t_bool)": {
        "encoding": "mapping",
        "key": "t_address",
        "label": "mapping(address => bool)",
        "numberOfBytes": "32",
        "value": "t_bool"
      },
      "t_mapping(t_address,t_mapping(t_address,t_bool))": {
        "encoding": "mapping",
        "key": "t_address",
        "label": "mapping(address => mapping(address => bool))",
        "numberOfBytes": "32",
        "value": "t_mapping(t_address,t_bool)"
      },
      "t_mapping(t_address,t_uint256)": {
        "encoding": "mapping",
        "key": "t_address",
        "label": "mapping(address => uint256)",
        "numberOfBytes": "32",
        "value": "t_uint256"
      },
      "t_mapping(t_uint256,t_address)": {
        "encoding": "mapping",
        "key": "t_uint256",
        "label": "mapping(uint256 => address)",
        "numberOfBytes": "32",
        "value": "t_address"
      },
      "t_mapping(t_uint256,t_uint8)": {
        "encoding": "mapping",
        "key": "t_uint256",
        "label": "mapping(uint256 => uint8)",
        "numberOfBytes": "32",
        "value": "t_uint8"
      },
      "t_string_storage": {
        "encoding": "bytes",
        "label": "string",
        "numberOfBytes": "32"
      },
      "t_uint256": {
        "encoding": "inplace",
        "label": "uint256",
        "numberOfBytes": "32"
      },
      "t_uint8": {
        "encoding": "inplace",
        "label": "uint8",
        "numberOfBytes": "1"
      }
    }
  }
}