{
  "address": "0x10e38eE9dd4C549b61400Fc19347D00eD3edAfC4",
  "abi": [
    {
      "inputs": [
        {
          "internalType": "address",
          "name": "_svgLibrary_",
          "type": "address"
        },
        {
          "internalType": "address",
          "name": "_svgRegistry_",
          "type": "address"
        }
      ],
      "stateMutability": "nonpayable",
      "type": "constructor"
    },
    {
      "anonymous": false,
      "inputs": [
        {
          "indexed": true,
          "internalType": "address",
          "name": "previousOwner",
          "type": "address"
        },
        {
          "indexed": true,
          "internalType": "address",
          "name": "newOwner",
          "type": "address"
        }
      ],
      "name": "OwnershipTransferred",
      "type": "event"
    },
    {
      "inputs": [],
      "name": "owner",
      "outputs": [
        {
          "internalType": "address",
          "name": "",
          "type": "address"
        }
      ],
      "stateMutability": "view",
      "type": "function"
    },
    {
      "inputs": [
        {
          "internalType": "bytes",
          "name": "input",
          "type": "bytes"
        }
      ],
      "name": "render",
      "outputs": [
        {
          "internalType": "string",
          "name": "",
          "type": "string"
        }
      ],
      "stateMutability": "view",
      "type": "function"
    },
    {
      "inputs": [],
      "name": "renounceOwnership",
      "outputs": [],
      "stateMutability": "nonpayable",
      "type": "function"
    },
    {
      "inputs": [
        {
          "internalType": "address",
          "name": "newOwner",
          "type": "address"
        }
      ],
      "name": "transferOwnership",
      "outputs": [],
      "stateMutability": "nonpayable",
      "type": "function"
    }
  ],
  "transactionHash": "0x1aeac5ac7f191089f2dfa0b6cde1b230c23f85ee496981d16cb1ce9334694ccb",
  "args": [
    "0xBEe6FFc1E8627F51CcDF0b4399a1e1abc5165f15",
    "0xC32609C91d6B6b51D48f2611308FEf121B02041f"
  ],
  "numDeployments": 1,
  "solcInputHash": "a3538823bd4bd6628d72aff10f46e6d5",
  "bytecode": "0x60806040523480156200001157600080fd5b5060405162005810380380620058108339810160408190526200003491620002d5565b6200003f3362000268565b600180546001600160a01b038085166001600160a01b03199283161790925560028054928416929091169190911790556040805180820190915260038082526235d07f60e81b60208084019190915260008052527f3617319a054d772f909f7c479a2cebe5066e836a939412e32403c99029b92eff90620000c19082620003b2565b50604080518082019091526003808252623ef31760ea1b6020808401919091526001600052527fa15bc60c955c405d20d9149c709e2460f1c2d9a497496a7f46004d1772c3054c90620001159082620003b2565b5060408051808201909152600380825262bf97ff60e81b6020808401919091526002600052527fc3a24b0501bd2c13a7e57f2db4369ec4c223447539fc0724a9d55ac4a06ebd4d90620001699082620003b2565b5060408051808201909152600380825262fb7c6d60e81b6020808401919091526000829052527fcbc4e5fb02c3d1de23a9f1e014b4d2ee5aeaea9505df5e855c9210bf472495af90620001bd9082620003b2565b50604080518082019091526003808252600060208084018290526004909152527f83ec6a1f0257b830b5e016457c9cf1435391bf56cc98f369a58a54fe93772465906200020b9082620003b2565b50604080518082019091526003808252620d223b60ea1b6020808401919091526005600052527f405aad32e1adbac89bb7f176e338b8fc6e994ca210c9bb7bdca249b465942250906200025f9082620003b2565b5050506200047e565b600080546001600160a01b038381166001600160a01b0319831681178455604051919092169283917f8be0079c531659141344cd1fd0a4f28419497f9722a3daafe3b4186f6b6457e09190a35050565b80516001600160a01b0381168114620002d057600080fd5b919050565b60008060408385031215620002e957600080fd5b620002f483620002b8565b91506200030460208401620002b8565b90509250929050565b634e487b7160e01b600052604160045260246000fd5b600181811c908216806200033857607f821691505b6020821081036200035957634e487b7160e01b600052602260045260246000fd5b50919050565b601f821115620003ad57600081815260208120601f850160051c81016020861015620003885750805b601f850160051c820191505b81811015620003a95782815560010162000394565b5050505b505050565b81516001600160401b03811115620003ce57620003ce6200030d565b620003e681620003df845462000323565b846200035f565b602080601f8311600181146200041e5760008415620004055750858301515b600019600386901b1c1916600185901b178555620003a9565b600085815260208120601f198616915b828110156200044f578886015182559484019460019091019084016200042e565b50858210156200046e5787850151600019600388901b60f8161c191681555b5050505050600190811b01905550565b615382806200048e6000396000f3fe608060405234801561001057600080fd5b506004361061004c5760003560e01c8063316df61e14610051578063715018a61461007a5780638da5cb5b14610084578063f2fde38b1461009f575b600080fd5b61006461005f36600461243b565b6100b2565b60405161007191906124eb565b60405180910390f35b610082610122565b005b6000546040516001600160a01b039091168152602001610071565b6100826100ad36600461251e565b610136565b60606040518060400160405280601b81526020017f646174613a696d6167652f7376672b786d6c3b6261736536342c2000000000008152506100fb6100f6846101b4565b610439565b60405160200161010c929190612563565b6040516020818303038152906040529050919050565b61012a61059e565b61013460006105f8565b565b61013e61059e565b6001600160a01b0381166101a85760405162461bcd60e51b815260206004820152602660248201527f4f776e61626c653a206e6577206f776e657220697320746865207a65726f206160448201526564647265737360d01b60648201526084015b60405180910390fd5b6101b1816105f8565b50565b6060600080600080600080878060200190518101906101d391906125a7565b60ff851660009081526003602052604081208054979d50959b50939950919750955093509161020190612673565b80601f016020809104026020016040519081016040528092919081815260200182805461022d90612673565b801561027a5780601f1061024f5761010080835404028352916020019161027a565b820191906000526020600020905b81548152906001019060200180831161025d57829003601f168201915b50505050509050600085156102975780610293816126c3565b9150505b84156102ab57806102a7816126c3565b9150505b83156102bf57806102bb816126c3565b9150505b6103d86102fe604051806040016040528060018152602001600f60fb1b815250604051806040016040528060018152602001600360fc1b815250610648565b610340604051806040016040528060058152602001640eed2c8e8d60db1b8152506040518060400160405280600381526020016203530360ec1b815250610648565b610383604051806040016040528060068152602001651a195a59da1d60d21b8152506040518060400160405280600381526020016203530360ec1b815250610648565b6103b160405180604001604052806004815260200163199a5b1b60e21b8152506103ac88610675565b610648565b6040516020016103c494939291906126dc565b60405160208183030381529060405261068a565b6103e1846106b2565b6103ea87611049565b6103f38761141a565b6103fc8a6116ff565b6104068d876119ea565b60405160200161041b96959493929190612733565b60405160208183030381529060405298505050505050505050919050565b6060815160000361045857505060408051602081019091526000815290565b600060405180606001604052806040815260200161530d604091399050600060038451600261048791906130b7565b61049191906130e5565b61049c9060046130f9565b905060006104ab8260206130b7565b67ffffffffffffffff8111156104c3576104c36123cc565b6040519080825280601f01601f1916602001820160405280156104ed576020820181803683370190505b509050818152600183018586518101602084015b81831015610559576003830192508251603f8160121c168501518253600182019150603f81600c1c168501518253600182019150603f8160061c168501518253600182019150603f8116850151825350600101610501565b600389510660018114610573576002811461058457610590565b613d3d60f01b600119830152610590565b603d60f81b6000198301525b509398975050505050505050565b6000546001600160a01b031633146101345760405162461bcd60e51b815260206004820181905260248201527f4f776e61626c653a2063616c6c6572206973206e6f7420746865206f776e6572604482015260640161019f565b600080546001600160a01b038381166001600160a01b0319831681178455604051919092169283917f8be0079c531659141344cd1fd0a4f28419497f9722a3daafe3b4186f6b6457e09190a35050565b6060828260405160200161065d929190613118565b60405160208183030381529060405290505b92915050565b606061066f61068383611f06565b6000611f5a565b606061066f604051806040016040528060048152602001631c9958dd60e21b81525083611fbf565b606061093a61070460405180604001604052806005815260200164636c61737360d81b8152506040518060400160405280600e81526020016d1d195e1d0b5cda18591bddcb5b5960921b815250610648565b610741604051806040016040528060018152602001600f60fb1b81525060405180604001604052806002815260200161352560f01b815250610648565b61077f604051806040016040528060018152602001607960f81b8152506040518060400160405280600381526020016231352560e81b815250610648565b6107c460405180604001604052806009815260200168666f6e742d73697a6560b81b81525060405180604001604052806002815260200161191b60f11b815250610648565b6108146040518060400160405280600b81526020016a666f6e742d66616d696c7960a81b8152506040518060400160405280600b81526020016a11508811d85c985b5bdb9960aa1b815250610648565b61086560405180604001604052806011815260200170646f6d696e616e742d626173656c696e6560781b815250604051806040016040528060068152602001656d6964646c6560d01b815250610648565b6108af6040518060400160405280600b81526020016a3a32bc3a16b0b731b437b960a91b815250604051806040016040528060058152602001641cdd185c9d60da1b815250610648565b6108f260405180604001604052806004815260200163199a5b1b60e21b81525060405180604001604052806005815260200164776869746560d81b815250610648565b60405160200161090998979695949392919061316d565b60408051601f19818403018152828201909152600b82526a125b5c1858dd0810d85c9960aa1b602083015290611fd4565b610bc161098a60405180604001604052806005815260200164636c61737360d81b8152506040518060400160405280600e81526020016d1d195e1d0b5cda18591bddcb5b5960921b815250610648565b6109c8604051806040016040528060018152602001600f60fb1b8152506040518060400160405280600381526020016238322560e81b815250610648565b610a06604051806040016040528060018152602001607960f81b8152506040518060400160405280600381526020016231352560e81b815250610648565b610a4b60405180604001604052806009815260200168666f6e742d73697a6560b81b81525060405180604001604052806002815260200161189b60f11b815250610648565b610a9b6040518060400160405280600b81526020016a666f6e742d66616d696c7960a81b8152506040518060400160405280600b81526020016a11508811d85c985b5bdb9960aa1b815250610648565b610aec60405180604001604052806011815260200170646f6d696e616e742d626173656c696e6560781b815250604051806040016040528060068152602001656d6964646c6560d01b815250610648565b610b346040518060400160405280600b81526020016a3a32bc3a16b0b731b437b960a91b81525060405180604001604052806003815260200162195b9960ea1b815250610648565b610b7760405180604001604052806004815260200163199a5b1b60e21b81525060405180604001604052806005815260200164776869746560d81b815250610648565b604051602001610b8e98979695949392919061316d565b60408051601f19818403018152828201909152600d82526c4275696c74206f6e2043656c6f60981b602083015290611fd4565b610e16610c05604051806040016040528060028152602001610c6f60f31b8152506040518060400160405280600581526020016438392e352560d81b815250610648565b610c4460405180604001604052806002815260200161637960f01b8152506040518060400160405280600381526020016231352560e81b815250610648565b610c81604051806040016040528060018152602001603960f91b81525060405180604001604052806002815260200161323560f01b815250610648565b610cc460405180604001604052806004815260200163199a5b1b60e21b81525060405180604001604052806005815260200164776869746560d81b815250610648565b6040805180820190915260068152657374726f6b6560d01b6020808301919091526001600052600390527fa15bc60c955c405d20d9149c709e2460f1c2d9a497496a7f46004d1772c3054c8054610da692916103ac91610d2390612673565b80601f0160208091040260200160405190810160405280929190818152602001828054610d4f90612673565b8015610d9c5780601f10610d7157610100808354040283529160200191610d9c565b820191906000526020600020905b815481529060010190602001808311610d7f57829003601f168201915b5050505050610675565b610ded6040518060400160405280600c81526020016b0e6e8e4ded6ca5aeed2c8e8d60a31b815250604051806040016040528060018152602001600d60fa1b815250610648565b604051602001610e0296959493929190613212565b604051602081830303815290604052612004565b611036610e5a604051806040016040528060018152602001600f60fb1b8152506040518060400160405280600681526020016539312e36352560d01b815250610648565b610e9a604051806040016040528060018152602001607960f81b8152506040518060400160405280600581526020016431362e352560d81b815250610648565b610edf60405180604001604052806009815260200168666f6e742d73697a6560b81b81525060405180604001604052806002815260200161191960f11b815250610648565b610f2f6040518060400160405280600b81526020016a666f6e742d66616d696c7960a81b8152506040518060400160405280600b81526020016a11508811d85c985b5bdb9960aa1b815250610648565b610f8060405180604001604052806011815260200170646f6d696e616e742d626173656c696e6560781b815250604051806040016040528060068152602001656d6964646c6560d01b815250610648565b610fc86040518060400160405280600b81526020016a3a32bc3a16b0b731b437b960a91b81525060405180604001604052806003815260200162195b9960ea1b815250610648565b61100b60405180604001604052806004815260200163199a5b1b60e21b81525060405180604001604052806005815260200164776869746560d81b815250610648565b6040516020016110219796959493929190613291565b60405160208183030381529060405286611fd4565b60405160200161010c94939291906126dc565b60606000826110735760405180604001604052806003815260200162302e3560e81b81525061108e565b604051806040016040528060018152602001603160f81b8152505b905060006111496110d7604051806040016040528060058152602001640eed2c8e8d60db1b8152506040518060400160405280600381526020016203135360ec1b815250610648565b61111a604051806040016040528060068152602001651a195a59da1d60d21b8152506040518060400160405280600381526020016203132360ec1b815250610648565b60405160200161112b929190612563565b60408051601f1981840301815260208301909152600082529061202e565b611333611189604051806040016040528060018152602001600f60fb1b81525060405180604001604052806002815260200161373560f01b815250610648565b6111c7604051806040016040528060018152602001607960f81b8152506040518060400160405280600381526020016231303560e81b815250610648565b61120c60405180604001604052806009815260200168666f6e742d73697a6560b81b81525060405180604001604052806002815260200161062760f31b815250610648565b61125e60405180604001604052806012815260200171616c69676e6d656e742d626173656c696e6560701b815250604051806040016040528060068152602001656d6964646c6560d01b815250610648565b6112a96040518060400160405280600b81526020016a3a32bc3a16b0b731b437b960a91b815250604051806040016040528060068152602001656d6964646c6560d01b815250610648565b6112ec60405180604001604052806004815260200163199a5b1b60e21b81525060405180604001604052806005815260200164776869746560d81b815250610648565b60405160200161130196959493929190613212565b60408051601f19818403018152828201909152600c82526b1a5b5c1858dd13585c9ad95d60a21b602083015290611fd4565b604051602001611344929190613323565b60408051601f19818403018152828201825260098352687472616e73666f726d60b81b6020848101919091528251808401909352601083526f7472616e736c6174652832352c39302960801b9083015292506113f2916113a391610648565b6113cc604051806040016040528060078152602001666f70616369747960c81b81525085610648565b6040516020016113dd929190612563565b60405160208183030381529060405282612057565b6040516020016114029190613949565b60405160208183030381529060405292505050919050565b60606000826114445760405180604001604052806003815260200162302e3560e81b81525061145f565b604051806040016040528060018152602001603160f81b8152505b905060006114a86110d7604051806040016040528060058152602001640eed2c8e8d60db1b8152506040518060400160405280600381526020016203135360ec1b815250610648565b61168e6114e8604051806040016040528060018152602001600f60fb1b81525060405180604001604052806002815260200161373560f01b815250610648565b611526604051806040016040528060018152602001607960f81b8152506040518060400160405280600381526020016231303560e81b815250610648565b61156b60405180604001604052806009815260200168666f6e742d73697a6560b81b81525060405180604001604052806002815260200161062760f31b815250610648565b6115bd60405180604001604052806012815260200171616c69676e6d656e742d626173656c696e6560701b815250604051806040016040528060068152602001656d6964646c6560d01b815250610648565b6116086040518060400160405280600b81526020016a3a32bc3a16b0b731b437b960a91b815250604051806040016040528060068152602001656d6964646c6560d01b815250610648565b61164b60405180604001604052806004815260200163199a5b1b60e21b81525060405180604001604052806005815260200164776869746560d81b815250610648565b60405160200161166096959493929190613212565b60408051601f19818403018152828201909152600882526722ba3434b1a43ab160c11b602083015290611fd4565b60405160200161169f929190613965565b60408051601f19818403018152828201825260098352687472616e73666f726d60b81b602084810191909152825180840190935260118352707472616e736c617465283137352c39302960781b9083015292506113f2916113a391610648565b60606000826117295760405180604001604052806003815260200162302e3560e81b815250611744565b604051806040016040528060018152602001603160f81b8152505b9050600061178d6110d7604051806040016040528060058152602001640eed2c8e8d60db1b8152506040518060400160405280600381526020016203135360ec1b815250610648565b6119796117cd604051806040016040528060018152602001600f60fb1b81525060405180604001604052806002815260200161373560f01b815250610648565b61180b604051806040016040528060018152602001607960f81b8152506040518060400160405280600381526020016231303560e81b815250610648565b61185060405180604001604052806009815260200168666f6e742d73697a6560b81b81525060405180604001604052806002815260200161062760f31b815250610648565b6118a260405180604001604052806012815260200171616c69676e6d656e742d626173656c696e6560701b815250604051806040016040528060068152602001656d6964646c6560d01b815250610648565b6118ed6040518060400160405280600b81526020016a3a32bc3a16b0b731b437b960a91b815250604051806040016040528060068152602001656d6964646c6560d01b815250610648565b61193060405180604001604052806004815260200163199a5b1b60e21b81525060405180604001604052806005815260200164776869746560d81b815250610648565b60405160200161194596959493929190613212565b60408051601f19818403018152828201909152600e82526d476974636f696e204772616e747360901b602083015290611fd4565b60405160200161198a9291906140bd565b60408051601f19818403018152828201825260098352687472616e73666f726d60b81b602084810191909152825180840190935260118352707472616e736c617465283332352c39302960781b9083015292506113f2916113a391610648565b6060611c65611a3c60405180604001604052806005815260200164636c61737360d81b8152506040518060400160405280600e81526020016d1d195e1d0b5cda18591bddcb5b5960921b815250610648565b611a7c604051806040016040528060018152602001600f60fb1b8152506040518060400160405280600581526020016431312e352560d81b815250610648565b611aba604051806040016040528060018152602001607960f81b8152506040518060400160405280600381526020016238352560e81b815250610648565b611aff60405180604001604052806009815260200168666f6e742d73697a6560b81b81525060405180604001604052806002815260200161064760f31b815250610648565b611b4f6040518060400160405280600b81526020016a666f6e742d66616d696c7960a81b8152506040518060400160405280600b81526020016a11508811d85c985b5bdb9960aa1b815250610648565b611ba060405180604001604052806011815260200170646f6d696e616e742d626173656c696e6560781b815250604051806040016040528060068152602001656d6964646c6560d01b815250610648565b611bea6040518060400160405280600b81526020016a3a32bc3a16b0b731b437b960a91b815250604051806040016040528060058152602001641cdd185c9d60da1b815250610648565b611c2d60405180604001604052806004815260200163199a5b1b60e21b81525060405180604001604052806005815260200164776869746560d81b815250610648565b604051602001611c4498979695949392919061316d565b604051602081830303815290604052611c60856012600361207d565b611fd4565b611ef5611cb560405180604001604052806005815260200164636c61737360d81b8152506040518060400160405280600e81526020016d1d195e1d0b5cda18591bddcb5b5960921b815250610648565b611cf3604051806040016040528060018152602001600f60fb1b8152506040518060400160405280600381526020016239352560e81b815250610648565b611d31604051806040016040528060018152602001607960f81b8152506040518060400160405280600381526020016238352560e81b815250610648565b611d7660405180604001604052806009815260200168666f6e742d73697a6560b81b815250604051806040016040528060028152602001610c8d60f21b815250610648565b611dc66040518060400160405280600b81526020016a666f6e742d66616d696c7960a81b8152506040518060400160405280600b81526020016a11508811d85c985b5bdb9960aa1b815250610648565b611e1760405180604001604052806011815260200170646f6d696e616e742d626173656c696e6560781b815250604051806040016040528060068152602001656d6964646c6560d01b815250610648565b611e5f6040518060400160405280600b81526020016a3a32bc3a16b0b731b437b960a91b81525060405180604001604052806003815260200162195b9960ea1b815250610648565b611ea260405180604001604052806004815260200163199a5b1b60e21b81525060405180604001604052806005815260200164776869746560d81b815250610648565b604051602001611eb998979695949392919061316d565b604051602081830303815290604052611ed18561211b565b604051602001611ee19190614a5e565b604051602081830303815290604052611fd4565b60405160200161065d929190614a85565b60608151600314611f495760405162461bcd60e51b815260206004820152600d60248201526c2ab735b737bbb71031b7b637b960991b604482015260640161019f565b8160405160200161010c9190614fa6565b6060611f71611f698484612247565b60ff166122aa565b611f88611f6985611f838660016130b7565b612247565b611f9a611f6986611f838760026130b7565b611fac611f6987611f838860036130b7565b60405160200161065d9493929190614fcb565b6060828260405160200161065d929190615063565b6060611ffd604051806040016040528060048152602001631d195e1d60e21b81525084846123b3565b9392505050565b606061066f60405180604001604052806006815260200165636972636c6560d01b81525083611fbf565b6060611ffd604051806040016040528060048152602001631c9958dd60e21b81525084846123b3565b6060611ffd604051806040016040528060018152602001606760f81b81525084846123b3565b606061209c61208d84600a61519f565b61209790866130e5565b6122aa565b6120f26120aa84600a61519f565b6120b586600a61519f565b6120bf90886130e5565b6120c991906130f9565b6120d385876151ae565b6120de90600a61519f565b6120e890886130e5565b61209791906151d1565b6040516020016121039291906151e8565b60405160208183030381529060405290509392505050565b6060816000036121425750506040805180820190915260018152600360fc1b602082015290565b8160005b811561216c5780612156816126c3565b91506121659050600a836130e5565b9150612146565b60008167ffffffffffffffff811115612187576121876123cc565b6040519080825280601f01601f1916602001820160405280156121b1576020820181803683370190505b509050815b851561223e576121c76001826151d1565b905060006121d6600a886130e5565b6121e190600a6130f9565b6121eb90886151d1565b6121f6906030615224565b905060008160f81b90508084848151811061221357612213615249565b60200101906001600160f81b031916908160001a905350612235600a896130e5565b975050506121b6565b50949350505050565b6000818351116122885760405162461bcd60e51b815260206004820152600c60248201526b4f7574206f662072616e676560a01b604482015260640161019f565b82828151811061229a5761229a615249565b016020015160f81c905092915050565b6060816000036122d15750506040805180820190915260018152600360fc1b602082015290565b8160005b81156122fb57806122e5816126c3565b91506122f49050600a836130e5565b91506122d5565b60008167ffffffffffffffff811115612316576123166123cc565b6040519080825280601f01601f191660200182016040528015612340576020820181803683370190505b5090505b84156123ab576123556001836151d1565b9150612362600a8661525f565b61236d9060306130b7565b60f81b81838151811061238257612382615249565b60200101906001600160f81b031916908160001a9053506123a4600a866130e5565b9450612344565b949350505050565b6060838383866040516020016121039493929190615273565b634e487b7160e01b600052604160045260246000fd5b604051601f8201601f1916810167ffffffffffffffff8111828210171561240b5761240b6123cc565b604052919050565b600067ffffffffffffffff82111561242d5761242d6123cc565b50601f01601f191660200190565b60006020828403121561244d57600080fd5b813567ffffffffffffffff81111561246457600080fd5b8201601f8101841361247557600080fd5b803561248861248382612413565b6123e2565b81815285602083850101111561249d57600080fd5b81602084016020830137600091810160200191909152949350505050565b60005b838110156124d65781810151838201526020016124be565b838111156124e5576000848401525b50505050565b602081526000825180602084015261250a8160408501602087016124bb565b601f01601f19169190910160400192915050565b60006020828403121561253057600080fd5b81356001600160a01b0381168114611ffd57600080fd5b600081516125598185602086016124bb565b9290920192915050565b600083516125758184602088016124bb565b8351908301906125898183602088016124bb565b01949350505050565b805180151581146125a257600080fd5b919050565b60008060008060008060c087890312156125c057600080fd5b86519550602087015160ff811681146125d857600080fd5b94506125e660408801612592565b93506125f460608801612592565b925061260260808801612592565b915060a087015167ffffffffffffffff81111561261e57600080fd5b8701601f8101891361262f57600080fd5b805161263d61248382612413565b8181528a602083850101111561265257600080fd5b6126638260208301602086016124bb565b8093505050509295509295509295565b600181811c9082168061268757607f821691505b6020821081036126a757634e487b7160e01b600052602260045260246000fd5b50919050565b634e487b7160e01b600052601160045260246000fd5b6000600182016126d5576126d56126ad565b5060010190565b600085516126ee818460208a016124bb565b855190830190612702818360208a016124bb565b85519101906127158183602089016124bb565b84519101906127288183602088016124bb565b019695505050505050565b7f3c73766720786d6c6e733d22687474703a2f2f7777772e77332e6f72672f323081527f30302f737667222077696474683d2235303022206865696768743d223330302260208201527f2076696577426f783d223020302035303020333030222066696c6c3d226e6f6e60408201527f6522207374796c653d22666f6e742d66616d696c793a20454220476172616d6f60608201526537321d91101f60d11b60808201527f3c73766720783d2231252220793d22302e323525222077696474683d2239382560868201527f22206865696768743d2239392e3525222076696577426f783d2230203020313060a68201527f333620353838222066696c6c3d226e6f6e65223e203c67206f7061636974793d60c68201527f22302e3932222066696c7465723d2275726c282366696c746572305f69695f3860e68201527f365f363729223e203c7061746820643d224d30203138433020382e30353838376101068201527f20382e303538383720302031382030483130313843313032372e3934203020316101268201527f30333620382e30353838372031303336203138563537304331303336203537396101468201527f2e39343120313032372e39342035383820313031382035383848313843382e306101668201527f35383837203538382030203537392e3934312030203537305631385a222066696101868201527f6c6c3d2223443944394439222066696c6c2d6f7061636974793d22302e3031226101a68201527f2f3e203c2f673e203c646566733e203c66696c7465722069643d2266696c74656101c68201527f72305f69695f38365f36372220783d222d322e39333030382220793d222d322e6101e68201527f3933303038222077696474683d22313034332e333322206865696768743d22356102068201527f39362e3739222066696c746572556e6974733d227573657253706163654f6e556102268201527f73652220636f6c6f722d696e746572706f6c6174696f6e2d66696c746572733d6102468201527f2273524742223e203c6665466c6f6f6420666c6f6f642d6f7061636974793d226102668201527f302220726573756c743d224261636b67726f756e64496d616765466978222f3e6102868201527f203c6665426c656e64206d6f64653d226e6f726d616c2220696e3d22536f75726102a68201527f6365477261706869632220696e323d224261636b67726f756e64496d616765466102c68201527f69782220726573756c743d227368617065222f3e203c6665436f6c6f724d61746102e68201527f72697820696e3d22536f75726365416c7068612220747970653d226d617472696103068201527f78222076616c7565733d223020302030203020302030203020302030203020306103268201527f20302030203020302030203020302031323720302220726573756c743d2268616103468201527f7264416c706861222f3e203c66654f66667365742064783d22342e33393531326103668201527f222064793d22352e3836303136222f3e203c6665476175737369616e426c75726103868201527f20737464446576696174696f6e3d22322e3933303038222f3e203c6665436f6d6103a68201527f706f7369746520696e323d2268617264416c70686122206f70657261746f723d6103c68201527f2261726974686d6574696322206b323d222d3122206b333d2231222f3e203c666103e68201527f65436f6c6f724d617472697820747970653d226d6174726978222076616c75656104068201527f733d2230203020302030203020302030203020302030203020302030203020306104268201527f20302030203020302e31352030222f3e203c6665426c656e64206d6f64653d226104468201527f6e6f726d616c2220696e323d2273686170652220726573756c743d22656666656104668201527f6374315f696e6e6572536861646f775f38365f3637222f3e203c6665436f6c6f6104868201527f724d617472697820696e3d22536f75726365416c7068612220747970653d226d6104a68201527f6174726978222076616c7565733d2230203020302030203020302030203020306104c68201527f2030203020302030203020302030203020302031323720302220726573756c746104e68201527f3d2268617264416c706861222f3e203c66654f66667365742064783d222d322e6105068201527f3933303038222064793d222d322e3933303038222f3e203c66654761757373696105268201527f616e426c757220737464446576696174696f6e3d22352e3836303136222f3e206105468201527f3c6665436f6d706f7369746520696e323d2268617264416c70686122206f70656105668201527f7261746f723d2261726974686d6574696322206b323d222d3122206b333d22316105868201527f222f3e203c6665436f6c6f724d617472697820747970653d226d6174726978226105a68201527f2076616c7565733d2230203020302030203120302030203020302031203020306105c68201527f20302030203120302030203020302e31382030222f3e203c6665426c656e64206105e68201527f6d6f64653d226e6f726d616c2220696e323d22656666656374315f696e6e65726106068201527f536861646f775f38365f36372220726573756c743d22656666656374325f696e6106268201527f6e6572536861646f775f38365f3637222f3e203c2f66696c7465723e203c2f646106468201526a32b3399f101e17b9bb339f60a91b610666820152600061309c612f51612f4b612f45612f3f612f39612f3361067189018f612547565b8d612547565b8b612547565b89612547565b87612547565b85612547565b7f3c646566733e3c7374796c653e2e636c732d317b66696c6c3a234646463b7d2e81527f746578742d736861646f772d6d64207b746578742d736861646f773a2030707860208201527f203470782031307078207267626128302c20302c20302c20302e3132293b7d3c60408201527f2f7374796c653e3c6c696e6561724772616469656e742069643d226d7947726160608201527f6469656e7422206772616469656e745472616e73666f726d3d22726f7461746560808201527f28393029223e203c73746f70206f66667365743d223525222073746f702d636f60a08201527f6c6f723d22676f6c6422202f3e203c73746f70206f66667365743d223935252260c08201527f2073746f702d636f6c6f723d2272656422202f3e203c2f6c696e65617247726160e08201526c3234b2b73a1f1e17b232b3399f60991b61010082015261010d0190565b651e17b9bb339f60d11b815260060198975050505050505050565b600082198211156130ca576130ca6126ad565b500190565b634e487b7160e01b600052601260045260246000fd5b6000826130f4576130f46130cf565b500490565b6000816000190483118215151615613113576131136126ad565b500290565b6000835161312a8184602088016124bb565b603d60f81b908301908152601160f91b600182015283516131528160028401602088016124bb565b61011160f51b60029290910191820152600401949350505050565b6000895160206131808285838f016124bb565b8a51918401916131938184848f016124bb565b8a519201916131a58184848e016124bb565b89519201916131b78184848d016124bb565b88519201916131c98184848c016124bb565b87519201916131db8184848b016124bb565b86519201916131ed8184848a016124bb565b85519201916131ff81848489016124bb565b919091019b9a5050505050505050505050565b6000875160206132258285838d016124bb565b8851918401916132388184848d016124bb565b885192019161324a8184848c016124bb565b875192019161325c8184848b016124bb565b865192019161326e8184848a016124bb565b855192019161328081848489016124bb565b919091019998505050505050505050565b6000885160206132a48285838e016124bb565b8951918401916132b78184848e016124bb565b89519201916132c98184848d016124bb565b88519201916132db8184848c016124bb565b87519201916132ed8184848b016124bb565b86519201916132ff8184848a016124bb565b855192019161331181848489016124bb565b919091019a9950505050505050505050565b7f3c7376672077696474683d2231303022206865696768743d223630222076696581527f77426f783d223020302033393220333637222066696c6c3d226e6f6e6522207860208201527f6d6c6e733d22687474703a2f2f7777772e77332e6f72672f323030302f73766760408201527f2220783d2232352220793d223230223e203c7061746820643d224d3234362e3560608201527f3831203130312e3133433236382e3035203131362e383134203238312e38333860808201527f203134322e303233203238312e383338203137302e343539433238312e38333860a08201527f203231372e383238203234332e343337203235362e323239203139362e30363860c08201527f203235362e323239433134382e363939203235362e323239203131302e32393860e08201527f203231372e383238203131302e323938203137302e343539433131302e3239386101008201527f203134322e303233203132342e303836203131362e383134203134352e3535356101208201527f203130312e3133433136372e3437342038352e31313731203137322e323631206101408201527f35342e33363832203135362e3234392033322e34343939433134302e323336206101608201527f31302e35333136203130392e34383720352e37343339342038372e35363920326101808201527f312e373536344334312e383535372035352e31353233203132203130392e33326101a08201527f32203132203137302e343539433132203237322e3131372039342e34312033356101c08201527f342e353237203139362e303638203335342e353237433239372e3732362033356101e08201527f342e353237203338302e313336203237322e313137203338302e3133362031376102008201527f302e343539433338302e313336203130392e333232203335302e32382035352e6102208201527f31353233203330342e3536372032312e37353634433238322e36343820352e376102408201527f34333934203235312e3839392031302e35333136203233352e3838372033322e6102608201527f3434393922207374726f6b653d22776869746522207374726f6b652d776964746102808201527f683d2232332e3237353822207374726f6b652d6c696e656361703d22726f756e6102a08201527f64222f3e203c7061746820643d224d3134312e373831203130342e30354331326102c08201527f322e353139203131392e3832203131302e323936203134332e373032203131306102e08201527f2e323936203137302e3436433131302e323936203231372e383239203134382e6103008201527f363937203235362e3233203139362e303636203235362e3233433234332e34336103208201527f36203235362e3233203238312e383336203231372e383239203238312e3833366103408201527f203137302e3436433238312e383336203134332e373032203236392e363133206103608201527f3131392e3832203235302e333531203130342e3035433233392e3634332039356103808201527f2e32383434203233382e3036392037392e34393739203234362e3833362036386103a08201527f2e37393033433235352e3630322035382e30383237203237312e3338382035366103c08201527f2e35303838203238322e3039362036352e32373439433331322e3438352039306103e08201527f2e31353337203333312e393439203132382e303434203333312e3934392031376104008201527f302e3436433333312e393439203234352e353036203237312e313132203330366104208201527f2e333432203139362e303636203330362e333432433132312e3032203330362e6104408201527f3334322036302e31383336203234352e3530362036302e31383336203137302e6104608201527f34364336302e31383336203132382e3034342037392e363437362039302e31356104808201527f3337203131302e3033362036352e3237343922207374726f6b653d22776869746104a08201527f6522207374726f6b652d77696474683d2232332e3237353822207374726f6b656104c08201527f2d6c696e656361703d22726f756e64222f3e203c2f7376673e000000000000006104e082015260006123ab6139436104f9840186612547565b84612547565b6000825161395b8184602087016124bb565b9190910192915050565b7f3c7376672077696474683d2232333022206865696768743d223134302220766981527f6577426f783d22302030203132323420373932222066696c6c3d22234646462260208201527f20786d6c6e733d22687474703a2f2f7777772e77332e6f72672f323030302f7360408201527f76672220783d2232352220793d222d3230223e3c7061746820636c6173733d2260608201527f636c732d312220643d224d3232392e38342c3337392e343368306c2d38392e3460808201527f382d35312e36366132392e38392c32392e38392c302c302c302d322e35392c3160a08201527f312e3737563434342e38366133302c33302c302c302c302c31342e33382c323560c08201527f2e31396c39322e35392c35332e34366133302e30372c33302e30372c302c302c60e08201527f302c31302e34362c33563439312e37326133302c33302c302c302c312d31322e6101008201527f33362d346c2d2e31342d2e30372d36342d33362e39347630632d332e32362d326101208201527f2e31332d352e38342d362e33332d352e38342d392e363673322e35382d342e356101408201527f362c352e38342d322e393268306c2e32312e31332e32362e31332e32372e31366101608201527f2c34392e31362c32382e33392c31362e30372c392e32386132392e38372c32396101808201527f2e38372c302c302c302c31302e35312c332e3036563434342e34326132392e366101a08201527f2c32392e362c302c302c312d31312e38322d332e373768306c2d2e32342d2e316101c08201527f342d2e332d2e31362d2e30392d2e30362d36332e34392d33362e3635632d2e306101e08201527f352c302d2e31312d2e30362d2e31372d2e316c2d2e31372d2e312d2e31392d2e6102008201527f31317630632d322e392d312e38362d352e32312d352e362d352e32312d382e356102208201527f3573322e33312d342c352e32312d322e353576306c2e33342e323168306c302c6102408201527f302c36342e38342c33372e34336132392e37342c32392e37342c302c302c302c6102608201527f31312e32362c332e3437563339342e30375a6d35332e30392d31382e39332d316102808201527f30352e342d36302e38352d32352c31342e34336133302e30352c33302e30352c6102a08201527f302c302c302d392c382e32314c3235382e31392c3338382e356c33342d31392e6102c08201527f36346133302e32322c33302e32322c302c302c302d392e32392d382e33366d2d6102e08201527f392e382c36392e30352e35322d2e32394c3239382c3431352e32563338362e396103008201527f3263302d2e31312c302d2e32322c302d2e33346133302c33302c302c302c302d6103208201527f322e35382d31322e31376c2d33342e30352c31392e36367633392e32346133306103408201527f2e30362c33302e30362c302c302c302c31312e37362d332e37366d3130352e366103608201527f312d38392e37316133302c33302c302c302c302d322e35332d31322e30374c336103808201527f33392e34372c3334396132392e38322c32392e38322c302c302c312c322e33336103a08201527f2c382e36356c2e322e333976322e343163302c2e32332c302c2e34342c302c2e6103c08201527f363773302c2e35392c302c2e38397633382e39346c2d36382e38352c33392e376103e08201527f352d2e31342c306132392e39322c32392e39322c302c302c312d31312e36342c6104008201527f332e377633342e37374132392e37352c32392e37352c302c302c302c3237332c6104208201527f3437352e35316c36392d33392e3835563438336c32312e37342d31322e3536616104408201527f2e38352e38352c302c302c312c2e31392d2e31342c33302e30362c33302e30366104608201527f2c302c302c302c31342e38312d32352e39312c372e32372c372e32372c302c306104808201527f2c312c2e30382d312e3037563334302e383261362e31372c362e31372c302c306104a08201527f2c312d2e30382d314d3237332c3438382e31326c2d2e32392e31346132392e376104c08201527f372c32392e37372c302c302c312d31312e33322c332e34347633342e383461326104e08201527f392e36372c32392e36372c302c302c302c31312e35312d332e36344c3239382c6105008201527f3530382e3339563437332e36365a6d39322e37332d3137332d39312e35382d356105208201527f322e383761392e33342c392e33342c302c302c312d2e39352d2e34372c33302e6105408201527f31312c33302e31312c302c302c302d33302e37362e35342c392e30382c392e306105608201527f382c302c302c312d312e33362e36386c2d31302e33342c362d392e30392c352e6105808201527f32354c3332362e39312c3333356c2e31352e31366133302e31382c33302e31386105a08201527f2c302c302c312c392e32312c382e33324c3337332c3332322e326133302e30366105c08201527f2c33302e30362c302c302c302d372e32392d372e3132222f3e3c2f7376673e006105e082015260006123ab6139436105ff840186612547565b7f3c7376672077696474683d22353022206865696768743d22313034222076696581527f77426f783d223020302031313720313434222066696c6c3d226e6f6e6522207860208201527f3d2235302220786d6c6e733d22687474703a2f2f7777772e77332e6f72672f3260408201527f3030302f737667223e203c7061746820643d224d3131312e3034312037382e3860608201527f373031433131312e3034312038392e31313833203130372e3632352039382e3560808201527f313234203130312e363437203130362e3438334c39392e33363937203130342e60a08201527f3737354c39322e353337362039392e363531314339372e303932332039332e3660c08201527f37332039392e363534342038362e323731352039392e363534342037382e383760e08201527f30314339392e363534342037312e343638362039372e3337372036342e3335316101008201527f382039322e383232332035382e363538344c39362e383037372035342e3935376101208201527f374c3130312e3336322035302e39373233433130372e3632352035382e3635386101408201527f34203131312e3034312036382e33333732203131312e3034312037382e3837306101608201527f315637382e383730315a222066696c6c3d227768697465222f3e203c706174686101808201527f20643d224d39392e33363938203130342e3737354c39322e353337372039392e6101a08201527f3635314c37392e343432382038392e393732324338322e303034392038362e356101c08201527f3536312038332e373132392038322e353730372038332e373132392037382e306101e08201527f31364338332e373132392037342e383834362038322e383538392037312e37356102008201527f33322038312e343335352036392e313931314c39332e313037312035382e33376102208201527f33364c39372e303932352035342e363732394c3130312e3634372035302e36386102408201527f37354c3131332e3033342034302e313534374c3131362e3733352033362e34356102608201527f33394c3131322e3436352033322e31383339433130302e3739332032302e35316102808201527f32332038352e343230392031332e363830322036382e39312031332e313130396102a08201527f56342e35373037334336382e393120322e30303836392036362e3931373320306102c08201527f2e303135393931322036342e3335353320302e303135393931324336312e37396102e08201527f333220302e303135393931322035392e3830303520322e30303836392035392e6103008201527f3830303520342e35373037335631332e333935354335362e303939382031332e6103208201527f363830322035322e333939312031342e353334322034382e363938332031352e6103408201527f3338383256342e35373037334334382e3639383320322e30303836392034362e6103608201527f3730353620302e3330303636312034342e3134333620302e33303036363143346103808201527f312e3538313520302e3330303636312033392e3538383820322e3239333336206103a08201527f33392e3538383820342e35373037335631382e383034334331362e38313531206103c08201527f32392e3035323520302e3837333533352035312e3832363220302e38373335336103e08201527f352037382e3330303643302e383733353335203131332e3331352032382e37376104008201527f3133203134322e3036372036332e35303132203134332e3439483131352e30326104208201527f37563131352e3837374c3130312e363437203130362e3438334c39392e3336396104408201527f38203130342e373735563130342e3737355a4d37312e373536372037382e33306104608201527f30364337312e373536372038322e353730372036382e333430372038352e39386104808201527f36382036342e303730362038352e393836384335392e383030352038352e39386104a08201527f36382035362e333834352038322e353730372035362e333834352037382e33306104c08201527f30364335362e333834352037342e303330362035392e383030352037302e36316104e08201527f34352036342e303730362037302e363134354336382e333430372037302e36316105008201527f34352037312e373536372037342e303330362037312e373536372037382e33306105208201527f30365a4d3130322e373836203133322e3130344836362e30363333563133312e6105408201527f3831394333362e34353735203133312e3831392031322e32363034203130372e6105608201527f3930362031322e323630342037382e333030364331322e323630342035382e336105808201527f3733362032332e303737392034312e303038372033392e333034322033312e386105a08201527f3939325635302e393732324333392e333034322035332e323439352034312e326105c08201527f3936392035352e323432322034332e383538392035352e323432324334362e346105e08201527f32312035352e323432322034382e343133372035332e323439352034382e34316106008201527f33372035302e393732325632372e363239314335312e383239372032362e34396106208201527f30342035352e353330342032352e363336342035392e353135382032352e30366106408201527f37314336312e353038352032342e373832342036332e373835392032342e37386106608201527f32342036362e303633332032342e373832344836382e363235334338302e30316106808201527f32322032352e333531372039302e3534352032392e333337312039392e3336396106a08201527f382033362e343533394c37322e383935342036302e393335374337302e3333336106c08201527f342035392e353132332036372e3230322035382e3934332036342e30373036206106e08201527f35382e3934334335332e353337372035382e3934332034342e373132392036376107008201527f2e343833312034342e373132392037382e333030364334342e373132392038386107208201527f2e383333352035332e323533312039372e363538332036342e303730362039376107408201527f2e363538334336352e373738362039372e363538332036372e3230322039372e6107608201527f333733362036382e39312039372e303838394c37342e38383831203130312e336107808201527f35394c3130332e303731203132312e383535563133322e313034483130322e376107a08201527f38365a222066696c6c3d227768697465222f3e203c2f7376673e2000000000006107c082015260006123ab6139436107db840186612547565b60008251614a708184602087016124bb565b6201799960ed1b920191825250600301919050565b7f3c7376672069643d224c617965725f312220783d2235252220793d223830252281527f2077696474683d22323522206865696768743d223235222076696577426f783d60208201527f22302030203130302031303022207374796c653d22656e61626c652d6261636b60408201527f67726f756e643a6e65772030203020313030203130303b2220786d6c3a73706160608201527f63653d227072657365727665223e203c7374796c6520747970653d227465787460808201527f2f637373223e202e7374307b66696c6c3a234642434335433b7d202e7374317b60a08201527f66696c6c3a234646464646463b7d203c2f7374796c653e203c646573633e537960c08201527f6d626f6c20666f72207468652043656c6f20476f6c642063757272656e63793c60e08201527f2f646573633e203c7061746820636c6173733d227374302220643d224d35302c6101008201527f304c35302c306332372e362c302c35302c32322e342c35302c3530763063302c6101208201527f32372e362d32322e342c35302d35302c353068304332322e342c3130302c302c6101408201527f37372e362c302c3530763043302c32322e342c32322e342c302c35302c307a226101608201527f2f3e203c673e203c7061746820636c6173733d227374312220643d224d37382e6101808201527f362c343463302d31322e342d31302e312d32322e352d32322e352d32322e35636101a08201527f2d392e342c302d31372e342c352e372d32302e382c31332e39632d382c332e346101c08201527f2d31332e372c31312e342d31332e372c32302e372063302c31322e342c31302e6101e08201527f312c32322e352c32322e352c32322e3563392e342c302c31372e342d352e372c6102008201527f32302e382d31332e394337322e382c36312e332c37382e362c35332e332c37386102208201527f2e362c34347a204d34342e312c3733632d392e332c302d31362e392d372e362d6102408201527f31362e392d31362e392063302d352e332c322e352d31302e312c362e342d31336102608201527f2e3263302c302e342c302c302e382c302c312e3163302c31322e342c31302e316102808201527f2c32322e352c32322e352c32322e3563302e352c302c302e392c302c312e342c6102a08201527f304335342e332c37302e352c34392e352c37332c34342e312c37337a204d36306102c08201527f2e352c36302e3320632d312e342c302e342d322e392c302e362d342e342c302e6102e08201527f36632d392e332c302d31362e392d372e362d31362e392d31362e3963302d312e6103008201527f352c302e322d322e392c302e362d342e3263312e342d302e342c322e392d302e6103208201527f362c342e342d302e3663392e332c302c31362e392c372e362c31362e392c31366103408201527f2e39204336312c35372e362c36302e382c35392c36302e352c36302e337a204d6103608201527f36362e362c35372e3263302d302e342c302d302e382c302d312e3163302d31326103808201527f2e342d31302e312d32322e352d32322e352d32322e35632d302e352c302d302e6103a08201527f392c302d312e342c3063332e312d342c372e392d362e352c31332e332d362e356103c08201527f2063392e332c302c31362e392c372e362c31362e392c31362e394337322e392c6103e08201527f34392e342c37302e342c35342e312c36362e362c35372e327a222f3e203c2f67610400820152671f101e17b9bb339f60c11b61042082015260006123ab613943610428840186612547565b60008251614fb88184602087016124bb565b601960fa1b920191825250600101919050565b640e4cec4c2560db1b815260008551614feb816005850160208a016124bb565b8083019050600b60fa1b806005830152865161500e816006850160208b016124bb565b60069201918201819052855161502b816007850160208a016124bb565b600792019182015283516150468160088401602088016124bb565b61252960f01b60089290910191820152600a019695505050505050565b600f60fa1b81526000835161507f8160018501602088016124bb565b600160fd1b60019184019182015283516150a08160028401602088016124bb565b61179f60f11b60029290910191820152600401949350505050565b600181815b808511156150f65781600019048211156150dc576150dc6126ad565b808516156150e957918102915b93841c93908002906150c0565b509250929050565b60008261510d5750600161066f565b8161511a5750600061066f565b8160018114615130576002811461513a57615156565b600191505061066f565b60ff84111561514b5761514b6126ad565b50506001821b61066f565b5060208310610133831016604e8410600b8410161715615179575081810a61066f565b61518383836150bb565b8060001904821115615197576151976126ad565b029392505050565b6000611ffd60ff8416836150fe565b600060ff821660ff8416808210156151c8576151c86126ad565b90039392505050565b6000828210156151e3576151e36126ad565b500390565b600083516151fa8184602088016124bb565b601760f91b90830190815283516152188160018401602088016124bb565b01600101949350505050565b600060ff821660ff84168060ff03821115615241576152416126ad565b019392505050565b634e487b7160e01b600052603260045260246000fd5b60008261526e5761526e6130cf565b500690565b600f60fa1b81526000855161528f816001850160208a016124bb565b600160fd1b60019184019182015285516152b0816002840160208a016124bb565b808201915050601f60f91b80600283015285516152d4816003850160208a016124bb565b613c2f60f01b6003939091019283015284516152f78160058501602089016124bb565b6005920191820152600601969550505050505056fe4142434445464748494a4b4c4d4e4f505152535455565758595a6162636465666768696a6b6c6d6e6f707172737475767778797a303132333435363738392b2fa26469706673582212209288ea0df1585ca5d2aad0021cd9a4a1da663184c1f5a34a5b72ceef6ddd08a964736f6c634300080f0033",
  "devdoc": {
    "kind": "dev",
    "methods": {
      "owner()": {
        "details": "Returns the address of the current owner."
      },
      "renounceOwnership()": {
        "details": "Leaves the contract without owner. It will not be possible to call `onlyOwner` functions anymore. Can only be called by the current owner. NOTE: Renouncing ownership will leave the contract without an owner, thereby removing any functionality that is only available to the owner."
      },
      "transferOwnership(address)": {
        "details": "Transfers ownership of the contract to a new account (`newOwner`). Can only be called by the current owner."
      }
    },
    "version": 1
  },
  "userdoc": {
    "kind": "user",
    "methods": {},
    "version": 1
  },
  "storageLayout": {
    "storage": [
      {
        "astId": 2538,
        "contract": "contracts/ImpactCardRender.sol:ImpactCardRender",
        "label": "_owner",
        "offset": 0,
        "slot": "0",
        "type": "t_address"
      },
      {
        "astId": 5173,
        "contract": "contracts/ImpactCardRender.sol:ImpactCardRender",
        "label": "_svgLibrary",
        "offset": 0,
        "slot": "1",
        "type": "t_address"
      },
      {
        "astId": 5175,
        "contract": "contracts/ImpactCardRender.sol:ImpactCardRender",
        "label": "_svgRegistry",
        "offset": 0,
        "slot": "2",
        "type": "t_address"
      },
      {
        "astId": 5182,
        "contract": "contracts/ImpactCardRender.sol:ImpactCardRender",
        "label": "colorFill",
        "offset": 0,
        "slot": "3",
        "type": "t_mapping(t_uint8,t_bytes_storage)"
      }
    ],
    "types": {
      "t_address": {
        "encoding": "inplace",
        "label": "address",
        "numberOfBytes": "20"
      },
      "t_bytes_storage": {
        "encoding": "bytes",
        "label": "bytes",
        "numberOfBytes": "32"
      },
      "t_mapping(t_uint8,t_bytes_storage)": {
        "encoding": "mapping",
        "key": "t_uint8",
        "label": "mapping(uint8 => bytes)",
        "numberOfBytes": "32",
        "value": "t_bytes_storage"
      },
      "t_uint8": {
        "encoding": "inplace",
        "label": "uint8",
        "numberOfBytes": "1"
      }
    }
  }
}