{
  "address": "0x06b3244b086cecC40F1e5A826f736Ded68068a0F",
  "abi": [
    {
      "inputs": [
        {
          "internalType": "string",
          "name": "name",
          "type": "string"
        },
        {
          "internalType": "string",
          "name": "symbol",
          "type": "string"
        },
        {
          "internalType": "address",
          "name": "erc721Storage",
          "type": "address"
        },
        {
          "internalType": "address",
          "name": "_oracle",
          "type": "address"
        }
      ],
      "stateMutability": "nonpayable",
      "type": "constructor"
    },
    {
      "anonymous": false,
      "inputs": [
        {
          "indexed": true,
          "internalType": "address",
          "name": "owner",
          "type": "address"
        },
        {
          "indexed": true,
          "internalType": "address",
          "name": "approved",
          "type": "address"
        },
        {
          "indexed": true,
          "internalType": "uint256",
          "name": "tokenId",
          "type": "uint256"
        }
      ],
      "name": "Approval",
      "type": "event"
    },
    {
      "anonymous": false,
      "inputs": [
        {
          "indexed": true,
          "internalType": "address",
          "name": "owner",
          "type": "address"
        },
        {
          "indexed": true,
          "internalType": "address",
          "name": "operator",
          "type": "address"
        },
        {
          "indexed": false,
          "internalType": "bool",
          "name": "approved",
          "type": "bool"
        }
      ],
      "name": "ApprovalForAll",
      "type": "event"
    },
    {
      "anonymous": false,
      "inputs": [
        {
          "indexed": false,
          "internalType": "address",
          "name": "erc721Storage",
          "type": "address"
        }
      ],
      "name": "ERC721StorageUpdated",
      "type": "event"
    },
    {
      "anonymous": false,
      "inputs": [
        {
          "indexed": true,
          "internalType": "address",
          "name": "previousOwner",
          "type": "address"
        },
        {
          "indexed": true,
          "internalType": "address",
          "name": "newOwner",
          "type": "address"
        }
      ],
      "name": "OwnershipTransferred",
      "type": "event"
    },
    {
      "anonymous": false,
      "inputs": [
        {
          "indexed": true,
          "internalType": "bytes32",
          "name": "role",
          "type": "bytes32"
        },
        {
          "indexed": true,
          "internalType": "bytes32",
          "name": "previousAdminRole",
          "type": "bytes32"
        },
        {
          "indexed": true,
          "internalType": "bytes32",
          "name": "newAdminRole",
          "type": "bytes32"
        }
      ],
      "name": "RoleAdminChanged",
      "type": "event"
    },
    {
      "anonymous": false,
      "inputs": [
        {
          "indexed": true,
          "internalType": "bytes32",
          "name": "role",
          "type": "bytes32"
        },
        {
          "indexed": true,
          "internalType": "address",
          "name": "account",
          "type": "address"
        },
        {
          "indexed": true,
          "internalType": "address",
          "name": "sender",
          "type": "address"
        }
      ],
      "name": "RoleGranted",
      "type": "event"
    },
    {
      "anonymous": false,
      "inputs": [
        {
          "indexed": true,
          "internalType": "bytes32",
          "name": "role",
          "type": "bytes32"
        },
        {
          "indexed": true,
          "internalType": "address",
          "name": "account",
          "type": "address"
        },
        {
          "indexed": true,
          "internalType": "address",
          "name": "sender",
          "type": "address"
        }
      ],
      "name": "RoleRevoked",
      "type": "event"
    },
    {
      "anonymous": false,
      "inputs": [
        {
          "indexed": true,
          "internalType": "address",
          "name": "from",
          "type": "address"
        },
        {
          "indexed": true,
          "internalType": "address",
          "name": "to",
          "type": "address"
        },
        {
          "indexed": true,
          "internalType": "uint256",
          "name": "tokenId",
          "type": "uint256"
        }
      ],
      "name": "Transfer",
      "type": "event"
    },
    {
      "inputs": [],
      "name": "DEFAULT_ADMIN_ROLE",
      "outputs": [
        {
          "internalType": "bytes32",
          "name": "",
          "type": "bytes32"
        }
      ],
      "stateMutability": "view",
      "type": "function"
    },
    {
      "inputs": [],
      "name": "MINTER_ROLE",
      "outputs": [
        {
          "internalType": "bytes32",
          "name": "",
          "type": "bytes32"
        }
      ],
      "stateMutability": "view",
      "type": "function"
    },
    {
      "inputs": [
        {
          "internalType": "address",
          "name": "to",
          "type": "address"
        },
        {
          "internalType": "uint256",
          "name": "tokenId",
          "type": "uint256"
        }
      ],
      "name": "approve",
      "outputs": [],
      "stateMutability": "nonpayable",
      "type": "function"
    },
    {
      "inputs": [
        {
          "internalType": "address",
          "name": "owner",
          "type": "address"
        }
      ],
      "name": "balanceOf",
      "outputs": [
        {
          "internalType": "uint256",
          "name": "",
          "type": "uint256"
        }
      ],
      "stateMutability": "view",
      "type": "function"
    },
    {
      "inputs": [],
      "name": "contractURI",
      "outputs": [
        {
          "internalType": "string",
          "name": "",
          "type": "string"
        }
      ],
      "stateMutability": "view",
      "type": "function"
    },
    {
      "inputs": [],
      "name": "depositNonce",
      "outputs": [
        {
          "internalType": "uint256",
          "name": "",
          "type": "uint256"
        }
      ],
      "stateMutability": "view",
      "type": "function"
    },
    {
      "inputs": [
        {
          "internalType": "uint256",
          "name": "tokenId",
          "type": "uint256"
        }
      ],
      "name": "getApproved",
      "outputs": [
        {
          "internalType": "address",
          "name": "",
          "type": "address"
        }
      ],
      "stateMutability": "view",
      "type": "function"
    },
    {
      "inputs": [],
      "name": "getERC721Storage",
      "outputs": [
        {
          "internalType": "address",
          "name": "",
          "type": "address"
        }
      ],
      "stateMutability": "view",
      "type": "function"
    },
    {
      "inputs": [
        {
          "internalType": "bytes32",
          "name": "role",
          "type": "bytes32"
        }
      ],
      "name": "getRoleAdmin",
      "outputs": [
        {
          "internalType": "bytes32",
          "name": "",
          "type": "bytes32"
        }
      ],
      "stateMutability": "view",
      "type": "function"
    },
    {
      "inputs": [
        {
          "internalType": "bytes32",
          "name": "role",
          "type": "bytes32"
        },
        {
          "internalType": "address",
          "name": "account",
          "type": "address"
        }
      ],
      "name": "grantRole",
      "outputs": [],
      "stateMutability": "nonpayable",
      "type": "function"
    },
    {
      "inputs": [
        {
          "internalType": "bytes32",
          "name": "role",
          "type": "bytes32"
        },
        {
          "internalType": "address",
          "name": "account",
          "type": "address"
        }
      ],
      "name": "hasRole",
      "outputs": [
        {
          "internalType": "bool",
          "name": "",
          "type": "bool"
        }
      ],
      "stateMutability": "view",
      "type": "function"
    },
    {
      "inputs": [
        {
          "internalType": "address",
          "name": "owner",
          "type": "address"
        },
        {
          "internalType": "address",
          "name": "operator",
          "type": "address"
        }
      ],
      "name": "isApprovedForAll",
      "outputs": [
        {
          "internalType": "bool",
          "name": "",
          "type": "bool"
        }
      ],
      "stateMutability": "view",
      "type": "function"
    },
    {
      "inputs": [
        {
          "internalType": "address",
          "name": "to",
          "type": "address"
        },
        {
          "internalType": "uint8",
          "name": "cardStyle",
          "type": "uint8"
        },
        {
          "internalType": "string",
          "name": "emoji",
          "type": "string"
        }
      ],
      "name": "mint",
      "outputs": [],
      "stateMutability": "nonpayable",
      "type": "function"
    },
    {
      "inputs": [],
      "name": "name",
      "outputs": [
        {
          "internalType": "string",
          "name": "",
          "type": "string"
        }
      ],
      "stateMutability": "view",
      "type": "function"
    },
    {
      "inputs": [],
      "name": "nonce",
      "outputs": [
        {
          "internalType": "uint256",
          "name": "",
          "type": "uint256"
        }
      ],
      "stateMutability": "view",
      "type": "function"
    },
    {
      "inputs": [],
      "name": "owner",
      "outputs": [
        {
          "internalType": "address",
          "name": "",
          "type": "address"
        }
      ],
      "stateMutability": "view",
      "type": "function"
    },
    {
      "inputs": [
        {
          "internalType": "uint256",
          "name": "tokenId",
          "type": "uint256"
        }
      ],
      "name": "ownerOf",
      "outputs": [
        {
          "internalType": "address",
          "name": "",
          "type": "address"
        }
      ],
      "stateMutability": "view",
      "type": "function"
    },
    {
      "inputs": [
        {
          "internalType": "address",
          "name": "account",
          "type": "address"
        },
        {
          "internalType": "uint8",
          "name": "style",
          "type": "uint8"
        },
        {
          "internalType": "string",
          "name": "emoji",
          "type": "string"
        }
      ],
      "name": "preview",
      "outputs": [
        {
          "internalType": "string",
          "name": "",
          "type": "string"
        }
      ],
      "stateMutability": "view",
      "type": "function"
    },
    {
      "inputs": [],
      "name": "renounceOwnership",
      "outputs": [],
      "stateMutability": "nonpayable",
      "type": "function"
    },
    {
      "inputs": [
        {
          "internalType": "bytes32",
          "name": "role",
          "type": "bytes32"
        },
        {
          "internalType": "address",
          "name": "account",
          "type": "address"
        }
      ],
      "name": "renounceRole",
      "outputs": [],
      "stateMutability": "nonpayable",
      "type": "function"
    },
    {
      "inputs": [
        {
          "internalType": "bytes32",
          "name": "role",
          "type": "bytes32"
        },
        {
          "internalType": "address",
          "name": "account",
          "type": "address"
        }
      ],
      "name": "revokeRole",
      "outputs": [],
      "stateMutability": "nonpayable",
      "type": "function"
    },
    {
      "inputs": [
        {
          "internalType": "address",
          "name": "from",
          "type": "address"
        },
        {
          "internalType": "address",
          "name": "to",
          "type": "address"
        },
        {
          "internalType": "uint256",
          "name": "tokenId",
          "type": "uint256"
        }
      ],
      "name": "safeTransferFrom",
      "outputs": [],
      "stateMutability": "nonpayable",
      "type": "function"
    },
    {
      "inputs": [
        {
          "internalType": "address",
          "name": "from",
          "type": "address"
        },
        {
          "internalType": "address",
          "name": "to",
          "type": "address"
        },
        {
          "internalType": "uint256",
          "name": "tokenId",
          "type": "uint256"
        },
        {
          "internalType": "bytes",
          "name": "data",
          "type": "bytes"
        }
      ],
      "name": "safeTransferFrom",
      "outputs": [],
      "stateMutability": "nonpayable",
      "type": "function"
    },
    {
      "inputs": [
        {
          "internalType": "address",
          "name": "operator",
          "type": "address"
        },
        {
          "internalType": "bool",
          "name": "approved",
          "type": "bool"
        }
      ],
      "name": "setApprovalForAll",
      "outputs": [],
      "stateMutability": "nonpayable",
      "type": "function"
    },
    {
      "inputs": [
        {
          "internalType": "address",
          "name": "erc721Storage",
          "type": "address"
        }
      ],
      "name": "setStorage",
      "outputs": [],
      "stateMutability": "nonpayable",
      "type": "function"
    },
    {
      "inputs": [
        {
          "internalType": "bytes4",
          "name": "interfaceId",
          "type": "bytes4"
        }
      ],
      "name": "supportsInterface",
      "outputs": [
        {
          "internalType": "bool",
          "name": "",
          "type": "bool"
        }
      ],
      "stateMutability": "view",
      "type": "function"
    },
    {
      "inputs": [],
      "name": "symbol",
      "outputs": [
        {
          "internalType": "string",
          "name": "",
          "type": "string"
        }
      ],
      "stateMutability": "view",
      "type": "function"
    },
    {
      "inputs": [
        {
          "internalType": "address",
          "name": "_address",
          "type": "address"
        }
      ],
      "name": "tokenOwner",
      "outputs": [
        {
          "internalType": "uint256",
          "name": "",
          "type": "uint256"
        }
      ],
      "stateMutability": "view",
      "type": "function"
    },
    {
      "inputs": [
        {
          "internalType": "uint256",
          "name": "tokenId",
          "type": "uint256"
        }
      ],
      "name": "tokenURI",
      "outputs": [
        {
          "internalType": "string",
          "name": "",
          "type": "string"
        }
      ],
      "stateMutability": "view",
      "type": "function"
    },
    {
      "inputs": [],
      "name": "totalSupply",
      "outputs": [
        {
          "internalType": "uint256",
          "name": "",
          "type": "uint256"
        }
      ],
      "stateMutability": "view",
      "type": "function"
    },
    {
      "inputs": [
        {
          "internalType": "address",
          "name": "from",
          "type": "address"
        },
        {
          "internalType": "address",
          "name": "to",
          "type": "address"
        },
        {
          "internalType": "uint256",
          "name": "tokenId",
          "type": "uint256"
        }
      ],
      "name": "transferFrom",
      "outputs": [],
      "stateMutability": "nonpayable",
      "type": "function"
    },
    {
      "inputs": [
        {
          "internalType": "address",
          "name": "newOwner",
          "type": "address"
        }
      ],
      "name": "transferOwnership",
      "outputs": [],
      "stateMutability": "nonpayable",
      "type": "function"
    },
    {
      "inputs": [
        {
          "internalType": "address",
          "name": "_oracle",
          "type": "address"
        }
      ],
      "name": "updateOracle",
      "outputs": [],
      "stateMutability": "nonpayable",
      "type": "function"
    }
  ],
  "transactionHash": "0x8b8e713ae456576ba35343df0547a80ef0d75c9de2388cd83ca75e45fffd220b",
  "args": [
    "Impact Card",
    "IMPACT",
    "0xd710a67624Ad831683C86a48291c597adE30F787",
    "0xd30bF3219A0416602bE8D482E0396eF332b0494E"
  ],
  "numDeployments": 1,
  "solcInputHash": "a3538823bd4bd6628d72aff10f46e6d5",
  "bytecode": "0x60806040523480156200001157600080fd5b50604051620026ac380380620026ac8339810160408190526200003491620001ef565b838383828260006200004783826200030d565b5060016200005682826200030d565b505050620000736200006d620000af60201b60201c565b620000b3565b600880546001600160a01b039283166001600160a01b031991821617909155600c80549590921694169390931790925550620003d99350505050565b3390565b600680546001600160a01b038381166001600160a01b0319831681179093556040519116919082907f8be0079c531659141344cd1fd0a4f28419497f9722a3daafe3b4186f6b6457e090600090a35050565b634e487b7160e01b600052604160045260246000fd5b600082601f8301126200012d57600080fd5b81516001600160401b03808211156200014a576200014a62000105565b604051601f8301601f19908116603f0116810190828211818310171562000175576200017562000105565b816040528381526020925086838588010111156200019257600080fd5b600091505b83821015620001b6578582018301518183018401529082019062000197565b83821115620001c85760008385830101525b9695505050505050565b80516001600160a01b0381168114620001ea57600080fd5b919050565b600080600080608085870312156200020657600080fd5b84516001600160401b03808211156200021e57600080fd5b6200022c888389016200011b565b955060208701519150808211156200024357600080fd5b5062000252878288016200011b565b9350506200026360408601620001d2565b91506200027360608601620001d2565b905092959194509250565b600181811c908216806200029357607f821691505b602082108103620002b457634e487b7160e01b600052602260045260246000fd5b50919050565b601f8211156200030857600081815260208120601f850160051c81016020861015620002e35750805b601f850160051c820191505b818110156200030457828155600101620002ef565b5050505b505050565b81516001600160401b0381111562000329576200032962000105565b62000341816200033a84546200027e565b84620002ba565b602080601f831160018114620003795760008415620003605750858301515b600019600386901b1c1916600185901b17855562000304565b600085815260208120601f198616915b82811015620003aa5788860151825594840194600190910190840162000389565b5085821015620003c95787850151600019600388901b60f8161c191681555b5050505050600190811b01905550565b6122c380620003e96000396000f3fe608060405234801561001057600080fd5b50600436106101fb5760003560e01c80638da5cb5b1161011a578063b88d4fde116100ad578063de35f5cb1161007c578063de35f5cb1461044f578063e8a3d48514610458578063e985e9c514610460578063f2fde38b1461049c578063fc1cc1d1146104af57600080fd5b8063b88d4fde146103ef578063c87b56dd14610402578063d539139314610415578063d547741f1461043c57600080fd5b80639eacdbc5116100e95780639eacdbc5146103b8578063a217fddf146103cb578063a22cb465146103d3578063affed0e0146103e657600080fd5b80638da5cb5b146103795780639137c1a71461038a57806391d148541461039d57806395d89b41146103b057600080fd5b80632f2ff15d116101925780636352211e116101615780636352211e1461033a57806370a082311461034d578063715018a61461036057806387a89ee61461036857600080fd5b80632f2ff15d146102d857806336568abe146102eb5780633ab69b62146102fe57806342842e0e1461032757600080fd5b806318160ddd116101ce57806318160ddd1461027d5780631cb44dfc1461028f57806323b872dd146102a2578063248a9ca3146102b557600080fd5b806301ffc9a71461020057806306fdde0314610228578063081812fc1461023d578063095ea7b314610268575b600080fd5b61021361020e3660046119f2565b6104c2565b60405190151581526020015b60405180910390f35b6102306104d3565b60405161021f9190611a67565b61025061024b366004611a7a565b610565565b6040516001600160a01b03909116815260200161021f565b61027b610276366004611aa8565b61058c565b005b6007545b60405190815260200161021f565b61027b61029d366004611ad4565b6106a6565b61027b6102b0366004611af1565b6106d0565b6102816102c3366004611a7a565b60009081526009602052604090206001015490565b61027b6102e6366004611b32565b610701565b61027b6102f9366004611b32565b610726565b61028161030c366004611ad4565b6001600160a01b03166000908152600f602052604090205490565b61027b610335366004611af1565b6107a4565b610250610348366004611a7a565b6107bf565b61028161035b366004611ad4565b61081f565b61027b6108a5565b6008546001600160a01b0316610250565b6006546001600160a01b0316610250565b61027b610398366004611ad4565b6108b9565b6102136103ab366004611b32565b610915565b610230610940565b6102306103c6366004611c0f565b61094f565b610281600081565b61027b6103e1366004611c99565b610a75565b610281600a5481565b61027b6103fd366004611cc7565b610a80565b610230610410366004611a7a565b610ab8565b6102817f9f2df0fed2c77648de5860a4cc508cd0818c85b8b8a1ab4ceeef8d981c8956a681565b61027b61044a366004611b32565b610b4b565b610281600b5481565b610230610b70565b61021361046e366004611d47565b6001600160a01b03918216600090815260056020908152604080832093909416825291909152205460ff1690565b61027b6104aa366004611ad4565b610be7565b61027b6104bd366004611c0f565b610c60565b60006104cd82610d1c565b92915050565b6060600080546104e290611d75565b80601f016020809104026020016040519081016040528092919081815260200182805461050e90611d75565b801561055b5780601f106105305761010080835404028352916020019161055b565b820191906000526020600020905b81548152906001019060200180831161053e57829003601f168201915b5050505050905090565b600061057082610d41565b506000908152600460205260409020546001600160a01b031690565b6000610597826107bf565b9050806001600160a01b0316836001600160a01b0316036106095760405162461bcd60e51b815260206004820152602160248201527f4552433732313a20617070726f76616c20746f2063757272656e74206f776e656044820152603960f91b60648201526084015b60405180910390fd5b336001600160a01b03821614806106255750610625813361046e565b6106975760405162461bcd60e51b815260206004820152603e60248201527f4552433732313a20617070726f76652063616c6c6572206973206e6f7420746f60448201527f6b656e206f776e6572206e6f7220617070726f76656420666f7220616c6c00006064820152608401610600565b6106a18383610da0565b505050565b6106ae610e0e565b600c80546001600160a01b0319166001600160a01b0392909216919091179055565b6106da3382610e68565b6106f65760405162461bcd60e51b815260040161060090611daf565b6106a1838383610ee6565b60008281526009602052604090206001015461071c81611082565b6106a1838361108c565b6001600160a01b03811633146107965760405162461bcd60e51b815260206004820152602f60248201527f416363657373436f6e74726f6c3a2063616e206f6e6c792072656e6f756e636560448201526e103937b632b9903337b91039b2b63360891b6064820152608401610600565b6107a08282611112565b5050565b6106a183838360405180602001604052806000815250610a80565b6000818152600260205260408120546001600160a01b0316806104cd5760405162461bcd60e51b8152602060048201526018602482015277115490cdcc8c4e881a5b9d985b1a59081d1bdad95b88125160421b6044820152606401610600565b60006001600160a01b0382166108895760405162461bcd60e51b815260206004820152602960248201527f4552433732313a2061646472657373207a65726f206973206e6f7420612076616044820152683634b21037bbb732b960b91b6064820152608401610600565b506001600160a01b031660009081526003602052604090205490565b6108ad610e0e565b6108b76000611179565b565b6108c1610e0e565b600880546001600160a01b0319166001600160a01b0383169081179091556040519081527fd833c7cea3bce2562e201bf7e85016d0bc1173580c719f63378cc5d0457552b69060200160405180910390a150565b60009182526009602090815260408084206001600160a01b0393909316845291905290205460ff1690565b6060600180546104e290611d75565b60606000846001600160a01b03163190506000818560008060008860405160200161097f96959493929190611dfd565b60408051601f19818403018152828252600854634d0b849560e11b845291519093506001600160a01b0390911691639a17092a9160048083019260209291908290030181865afa1580156109d7573d6000803e3d6000fd5b505050506040513d601f19601f820116820180604052508101906109fb9190611e43565b6001600160a01b031663316df61e826040518263ffffffff1660e01b8152600401610a269190611a67565b600060405180830381865afa158015610a43573d6000803e3d6000fd5b505050506040513d6000823e601f3d908101601f19168201604052610a6b9190810190611e60565b9695505050505050565b6107a03383836111cb565b610a8a3383610e68565b610aa65760405162461bcd60e51b815260040161060090611daf565b610ab284848484611299565b50505050565b6060600080610ac6846112cc565b600854604051637833cb0b60e11b81529294509092506001600160a01b03169063f067961690610afe90879086908690600401611ed7565b600060405180830381865afa158015610b1b573d6000803e3d6000fd5b505050506040513d6000823e601f3d908101601f19168201604052610b439190810190611e60565b949350505050565b600082815260096020526040902060010154610b6681611082565b6106a18383611112565b60085460408051631c97e82760e21b815290516060926001600160a01b03169163725fa09c9160048083019260009291908290030181865afa158015610bba573d6000803e3d6000fd5b505050506040513d6000823e601f3d908101601f19168201604052610be29190810190611e60565b905090565b610bef610e0e565b6001600160a01b038116610c545760405162461bcd60e51b815260206004820152602660248201527f4f776e61626c653a206e6577206f776e657220697320746865207a65726f206160448201526564647265737360d01b6064820152608401610600565b610c5d81611179565b50565b610c693361081f565b15610cb65760405162461bcd60e51b815260206004820152601960248201527f496d70616374436172643a616c72656164792d6d696e746564000000000000006044820152606401610600565b60078054600181019091556000818152600d60209081526040808320805460ff191660ff8816179055600e9091529020610cf08382611f50565b50610cfb8482611397565b6001600160a01b039093166000908152600f60205260409020929092555050565b60006001600160e01b03198216637965db0b60e01b14806104cd57506104cd826114d9565b6000818152600260205260409020546001600160a01b0316610c5d5760405162461bcd60e51b8152602060048201526018602482015277115490cdcc8c4e881a5b9d985b1a59081d1bdad95b88125160421b6044820152606401610600565b600081815260046020526040902080546001600160a01b0319166001600160a01b0384169081179091558190610dd5826107bf565b6001600160a01b03167f8c5be1e5ebec7d5bd14f71427d1e84f3dd0314c0f7b2291e5b200ac8c7c3b92560405160405180910390a45050565b6006546001600160a01b031633146108b75760405162461bcd60e51b815260206004820181905260248201527f4f776e61626c653a2063616c6c6572206973206e6f7420746865206f776e65726044820152606401610600565b600080610e74836107bf565b9050806001600160a01b0316846001600160a01b03161480610ebb57506001600160a01b0380821660009081526005602090815260408083209388168352929052205460ff165b80610b435750836001600160a01b0316610ed484610565565b6001600160a01b031614949350505050565b826001600160a01b0316610ef9826107bf565b6001600160a01b031614610f5d5760405162461bcd60e51b815260206004820152602560248201527f4552433732313a207472616e736665722066726f6d20696e636f72726563742060448201526437bbb732b960d91b6064820152608401610600565b6001600160a01b038216610fbf5760405162461bcd60e51b8152602060048201526024808201527f4552433732313a207472616e7366657220746f20746865207a65726f206164646044820152637265737360e01b6064820152608401610600565b610fca600082610da0565b6001600160a01b0383166000908152600360205260408120805460019290610ff3908490612026565b90915550506001600160a01b038216600090815260036020526040812080546001929061102190849061203d565b909155505060008181526002602052604080822080546001600160a01b0319166001600160a01b0386811691821790925591518493918716917fddf252ad1be2c89b69c2b068fc378daa952ba7f163c4a11628f55a4df523b3ef91a4505050565b610c5d81336114e4565b6110968282610915565b6107a05760008281526009602090815260408083206001600160a01b03851684529091529020805460ff191660011790556110ce3390565b6001600160a01b0316816001600160a01b0316837f2f8788117e7eff1d82e926ec794901d17c78024a50270940304540a733656f0d60405160405180910390a45050565b61111c8282610915565b156107a05760008281526009602090815260408083206001600160a01b0385168085529252808320805460ff1916905551339285917ff6391f5c32d9c69d2a47ea670b442974b53935d1edc7fd64eb21e047a839171b9190a45050565b600680546001600160a01b038381166001600160a01b0319831681179093556040519116919082907f8be0079c531659141344cd1fd0a4f28419497f9722a3daafe3b4186f6b6457e090600090a35050565b816001600160a01b0316836001600160a01b03160361122c5760405162461bcd60e51b815260206004820152601960248201527f4552433732313a20617070726f766520746f2063616c6c6572000000000000006044820152606401610600565b6001600160a01b03838116600081815260056020908152604080832094871680845294825291829020805460ff191686151590811790915591519182527f17307eab39ab6107e8899845ad3d59bd9653f200f220920489ca2b5937696c31910160405180910390a3505050565b6112a4848484610ee6565b6112b084848484611548565b610ab25760405162461bcd60e51b815260040161060090612055565b60608060006112da846107bf565b600c549091506001600160a01b0380831631911660006112f984611649565b6000888152600d602090815260408083205484518386015183870151600e86528487209451979850959661133d968b9660ff909516959394929390929091016120a7565b604051602081830303815290604052905060006040516020016113779060208082526003908201526203078360ec1b604082015260600190565b60408051601f198184030181529190529199919850909650505050505050565b6001600160a01b0382166113ed5760405162461bcd60e51b815260206004820181905260248201527f4552433732313a206d696e7420746f20746865207a65726f20616464726573736044820152606401610600565b6000818152600260205260409020546001600160a01b0316156114525760405162461bcd60e51b815260206004820152601c60248201527f4552433732313a20746f6b656e20616c7265616479206d696e746564000000006044820152606401610600565b6001600160a01b038216600090815260036020526040812080546001929061147b90849061203d565b909155505060008181526002602052604080822080546001600160a01b0319166001600160a01b03861690811790915590518392907fddf252ad1be2c89b69c2b068fc378daa952ba7f163c4a11628f55a4df523b3ef908290a45050565b60006104cd826117e9565b6114ee8282610915565b6107a057611506816001600160a01b03166014611839565b611511836020611839565b60405160200161152292919061215f565b60408051601f198184030181529082905262461bcd60e51b825261060091600401611a67565b60006001600160a01b0384163b1561163e57604051630a85bd0160e11b81526001600160a01b0385169063150b7a029061158c9033908990889088906004016121d4565b6020604051808303816000875af19250505080156115c7575060408051601f3d908101601f191682019092526115c491810190612207565b60015b611624573d8080156115f5576040519150601f19603f3d011682016040523d82523d6000602084013e6115fa565b606091505b50805160000361161c5760405162461bcd60e51b815260040161060090612055565b805181602001fd5b6001600160e01b031916630a85bd0160e11b149050610b43565b506001949350505050565b6040805160608101825260008082526020820181905291810191909152600c5460408051606081019182905263363b4acf60e21b909152600160648201526001600160a01b03848116608483015290911690808263d8ed2b3c60a48301602060405180830381865afa1580156116c3573d6000803e3d6000fd5b505050506040513d601f19601f820116820180604052508101906116e79190612224565b1515815260405163363b4acf60e21b8152601160048201526001600160a01b03868116602483015260209092019184169063d8ed2b3c90604401602060405180830381865afa15801561173e573d6000803e3d6000fd5b505050506040513d601f19601f820116820180604052508101906117629190612224565b1515815260405163363b4acf60e21b815261011160048201526001600160a01b03868116602483015260209092019184169063d8ed2b3c90604401602060405180830381865afa1580156117ba573d6000803e3d6000fd5b505050506040513d601f19601f820116820180604052508101906117de9190612224565b151590529392505050565b60006001600160e01b031982166380ac58cd60e01b148061181a57506001600160e01b03198216635b5e139f60e01b145b806104cd57506301ffc9a760e01b6001600160e01b03198316146104cd565b60606000611848836002612241565b61185390600261203d565b67ffffffffffffffff81111561186b5761186b611b62565b6040519080825280601f01601f191660200182016040528015611895576020820181803683370190505b509050600360fc1b816000815181106118b0576118b0612260565b60200101906001600160f81b031916908160001a905350600f60fb1b816001815181106118df576118df612260565b60200101906001600160f81b031916908160001a9053506000611903846002612241565b61190e90600161203d565b90505b6001811115611986576f181899199a1a9b1b9c1cb0b131b232b360811b85600f166010811061194257611942612260565b1a60f81b82828151811061195857611958612260565b60200101906001600160f81b031916908160001a90535060049490941c9361197f81612276565b9050611911565b5083156119d55760405162461bcd60e51b815260206004820181905260248201527f537472696e67733a20686578206c656e67746820696e73756666696369656e746044820152606401610600565b9392505050565b6001600160e01b031981168114610c5d57600080fd5b600060208284031215611a0457600080fd5b81356119d5816119dc565b60005b83811015611a2a578181015183820152602001611a12565b83811115610ab25750506000910152565b60008151808452611a53816020860160208601611a0f565b601f01601f19169290920160200192915050565b6020815260006119d56020830184611a3b565b600060208284031215611a8c57600080fd5b5035919050565b6001600160a01b0381168114610c5d57600080fd5b60008060408385031215611abb57600080fd5b8235611ac681611a93565b946020939093013593505050565b600060208284031215611ae657600080fd5b81356119d581611a93565b600080600060608486031215611b0657600080fd5b8335611b1181611a93565b92506020840135611b2181611a93565b929592945050506040919091013590565b60008060408385031215611b4557600080fd5b823591506020830135611b5781611a93565b809150509250929050565b634e487b7160e01b600052604160045260246000fd5b604051601f8201601f1916810167ffffffffffffffff81118282101715611ba157611ba1611b62565b604052919050565b600067ffffffffffffffff821115611bc357611bc3611b62565b50601f01601f191660200190565b6000611be4611bdf84611ba9565b611b78565b9050828152838383011115611bf857600080fd5b828260208301376000602084830101529392505050565b600080600060608486031215611c2457600080fd5b8335611c2f81611a93565b9250602084013560ff81168114611c4557600080fd5b9150604084013567ffffffffffffffff811115611c6157600080fd5b8401601f81018613611c7257600080fd5b611c8186823560208401611bd1565b9150509250925092565b8015158114610c5d57600080fd5b60008060408385031215611cac57600080fd5b8235611cb781611a93565b91506020830135611b5781611c8b565b60008060008060808587031215611cdd57600080fd5b8435611ce881611a93565b93506020850135611cf881611a93565b925060408501359150606085013567ffffffffffffffff811115611d1b57600080fd5b8501601f81018713611d2c57600080fd5b611d3b87823560208401611bd1565b91505092959194509250565b60008060408385031215611d5a57600080fd5b8235611d6581611a93565b91506020830135611b5781611a93565b600181811c90821680611d8957607f821691505b602082108103611da957634e487b7160e01b600052602260045260246000fd5b50919050565b6020808252602e908201527f4552433732313a2063616c6c6572206973206e6f7420746f6b656e206f776e6560408201526d1c881b9bdc88185c1c1c9bdd995960921b606082015260800190565b86815260ff8616602082015284151560408201528315156060820152821515608082015260c060a08201526000611e3760c0830184611a3b565b98975050505050505050565b600060208284031215611e5557600080fd5b81516119d581611a93565b600060208284031215611e7257600080fd5b815167ffffffffffffffff811115611e8957600080fd5b8201601f81018413611e9a57600080fd5b8051611ea8611bdf82611ba9565b818152856020838501011115611ebd57600080fd5b611ece826020830160208601611a0f565b95945050505050565b838152606060208201526000611ef06060830185611a3b565b8281036040840152610a6b8185611a3b565b601f8211156106a157600081815260208120601f850160051c81016020861015611f295750805b601f850160051c820191505b81811015611f4857828155600101611f35565b505050505050565b815167ffffffffffffffff811115611f6a57611f6a611b62565b611f7e81611f788454611d75565b84611f02565b602080601f831160018114611fb35760008415611f9b5750858301515b600019600386901b1c1916600185901b178555611f48565b600085815260208120601f198616915b82811015611fe257888601518255948401946001909101908401611fc3565b50858210156120005787850151600019600388901b60f8161c191681555b5050505050600190811b01905550565b634e487b7160e01b600052601160045260246000fd5b60008282101561203857612038612010565b500390565b6000821982111561205057612050612010565b500190565b60208082526032908201527f4552433732313a207472616e7366657220746f206e6f6e20455243373231526560408201527131b2b4bb32b91034b6b83632b6b2b73a32b960711b606082015260800190565b8681526000602060ff88168184015286151560408401528515156060840152841515608084015260c060a0840152600084546120e281611d75565b8060c087015260e0600180841660008114612104576001811461211e5761214c565b60ff1985168984015283151560051b89018301955061214c565b896000528660002060005b858110156121445781548b8201860152908301908801612129565b8a0184019650505b50939d9c50505050505050505050505050565b7f416363657373436f6e74726f6c3a206163636f756e7420000000000000000000815260008351612197816017850160208801611a0f565b7001034b99036b4b9b9b4b733903937b6329607d1b60179184019182015283516121c8816028840160208801611a0f565b01602801949350505050565b6001600160a01b0385811682528416602082015260408101839052608060608201819052600090610a6b90830184611a3b565b60006020828403121561221957600080fd5b81516119d5816119dc565b60006020828403121561223657600080fd5b81516119d581611c8b565b600081600019048311821515161561225b5761225b612010565b500290565b634e487b7160e01b600052603260045260246000fd5b60008161228557612285612010565b50600019019056fea264697066735822122047c93f828b1b3b154dc08b7ba68128c4d571735eec7f530062d8837bd4af835e64736f6c634300080f0033",
  "devdoc": {
    "kind": "dev",
    "methods": {
      "approve(address,uint256)": {
        "details": "See {IERC721-approve}."
      },
      "balanceOf(address)": {
        "details": "See {IERC721-balanceOf}."
      },
      "getApproved(uint256)": {
        "details": "See {IERC721-getApproved}."
      },
      "getRoleAdmin(bytes32)": {
        "details": "Returns the admin role that controls `role`. See {grantRole} and {revokeRole}. To change a role's admin, use {_setRoleAdmin}."
      },
      "grantRole(bytes32,address)": {
        "details": "Grants `role` to `account`. If `account` had not been already granted `role`, emits a {RoleGranted} event. Requirements: - the caller must have ``role``'s admin role. May emit a {RoleGranted} event."
      },
      "hasRole(bytes32,address)": {
        "details": "Returns `true` if `account` has been granted `role`."
      },
      "isApprovedForAll(address,address)": {
        "details": "See {IERC721-isApprovedForAll}."
      },
      "mint(address,uint8,string)": {
        "params": {
          "to": "address - Address to mint to`"
        }
      },
      "name()": {
        "details": "See {IERC721Metadata-name}."
      },
      "owner()": {
        "details": "Returns the address of the current owner."
      },
      "ownerOf(uint256)": {
        "details": "See {IERC721-ownerOf}."
      },
      "renounceOwnership()": {
        "details": "Leaves the contract without owner. It will not be possible to call `onlyOwner` functions anymore. Can only be called by the current owner. NOTE: Renouncing ownership will leave the contract without an owner, thereby removing any functionality that is only available to the owner."
      },
      "renounceRole(bytes32,address)": {
        "details": "Revokes `role` from the calling account. Roles are often managed via {grantRole} and {revokeRole}: this function's purpose is to provide a mechanism for accounts to lose their privileges if they are compromised (such as when a trusted device is misplaced). If the calling account had been revoked `role`, emits a {RoleRevoked} event. Requirements: - the caller must be `account`. May emit a {RoleRevoked} event."
      },
      "revokeRole(bytes32,address)": {
        "details": "Revokes `role` from `account`. If `account` had been granted `role`, emits a {RoleRevoked} event. Requirements: - the caller must have ``role``'s admin role. May emit a {RoleRevoked} event."
      },
      "safeTransferFrom(address,address,uint256)": {
        "details": "See {IERC721-safeTransferFrom}."
      },
      "safeTransferFrom(address,address,uint256,bytes)": {
        "details": "See {IERC721-safeTransferFrom}."
      },
      "setApprovalForAll(address,bool)": {
        "details": "See {IERC721-setApprovalForAll}."
      },
      "symbol()": {
        "details": "See {IERC721Metadata-symbol}."
      },
      "tokenURI(uint256)": {
        "details": "See {IERC721Metadata-tokenURI}."
      },
      "transferFrom(address,address,uint256)": {
        "details": "See {IERC721-transferFrom}."
      },
      "transferOwnership(address)": {
        "details": "Transfers ownership of the contract to a new account (`newOwner`). Can only be called by the current owner."
      }
    },
    "version": 1
  },
  "userdoc": {
    "kind": "user",
    "methods": {
      "mint(address,uint8,string)": {
        "notice": "Mints a new token to the given address"
      }
    },
    "version": 1
  },
  "storageLayout": {
    "storage": [
      {
        "astId": 2669,
        "contract": "contracts/ImpactCard.sol:ImpactCard",
        "label": "_name",
        "offset": 0,
        "slot": "0",
        "type": "t_string_storage"
      },
      {
        "astId": 2671,
        "contract": "contracts/ImpactCard.sol:ImpactCard",
        "label": "_symbol",
        "offset": 0,
        "slot": "1",
        "type": "t_string_storage"
      },
      {
        "astId": 2675,
        "contract": "contracts/ImpactCard.sol:ImpactCard",
        "label": "_owners",
        "offset": 0,
        "slot": "2",
        "type": "t_mapping(t_uint256,t_address)"
      },
      {
        "astId": 2679,
        "contract": "contracts/ImpactCard.sol:ImpactCard",
        "label": "_balances",
        "offset": 0,
        "slot": "3",
        "type": "t_mapping(t_address,t_uint256)"
      },
      {
        "astId": 2683,
        "contract": "contracts/ImpactCard.sol:ImpactCard",
        "label": "_tokenApprovals",
        "offset": 0,
        "slot": "4",
        "type": "t_mapping(t_uint256,t_address)"
      },
      {
        "astId": 2689,
        "contract": "contracts/ImpactCard.sol:ImpactCard",
        "label": "_operatorApprovals",
        "offset": 0,
        "slot": "5",
        "type": "t_mapping(t_address,t_mapping(t_address,t_bool))"
      },
      {
        "astId": 2538,
        "contract": "contracts/ImpactCard.sol:ImpactCard",
        "label": "_owner",
        "offset": 0,
        "slot": "6",
        "type": "t_address"
      },
      {
        "astId": 15,
        "contract": "contracts/ImpactCard.sol:ImpactCard",
        "label": "_idCounter",
        "offset": 0,
        "slot": "7",
        "type": "t_uint256"
      },
      {
        "astId": 18,
        "contract": "contracts/ImpactCard.sol:ImpactCard",
        "label": "_erc721Storage",
        "offset": 0,
        "slot": "8",
        "type": "t_address"
      },
      {
        "astId": 2162,
        "contract": "contracts/ImpactCard.sol:ImpactCard",
        "label": "_roles",
        "offset": 0,
        "slot": "9",
        "type": "t_mapping(t_bytes32,t_struct(RoleData)2157_storage)"
      },
      {
        "astId": 4383,
        "contract": "contracts/ImpactCard.sol:ImpactCard",
        "label": "nonce",
        "offset": 0,
        "slot": "10",
        "type": "t_uint256"
      },
      {
        "astId": 4385,
        "contract": "contracts/ImpactCard.sol:ImpactCard",
        "label": "depositNonce",
        "offset": 0,
        "slot": "11",
        "type": "t_uint256"
      },
      {
        "astId": 4387,
        "contract": "contracts/ImpactCard.sol:ImpactCard",
        "label": "oracle",
        "offset": 0,
        "slot": "12",
        "type": "t_address"
      },
      {
        "astId": 4391,
        "contract": "contracts/ImpactCard.sol:ImpactCard",
        "label": "styleSelection",
        "offset": 0,
        "slot": "13",
        "type": "t_mapping(t_uint256,t_uint8)"
      },
      {
        "astId": 4395,
        "contract": "contracts/ImpactCard.sol:ImpactCard",
        "label": "emojiSelection",
        "offset": 0,
        "slot": "14",
        "type": "t_mapping(t_uint256,t_string_storage)"
      },
      {
        "astId": 4399,
        "contract": "contracts/ImpactCard.sol:ImpactCard",
        "label": "_tokenOwner",
        "offset": 0,
        "slot": "15",
        "type": "t_mapping(t_address,t_uint256)"
      }
    ],
    "types": {
      "t_address": {
        "encoding": "inplace",
        "label": "address",
        "numberOfBytes": "20"
      },
      "t_bool": {
        "encoding": "inplace",
        "label": "bool",
        "numberOfBytes": "1"
      },
      "t_bytes32": {
        "encoding": "inplace",
        "label": "bytes32",
        "numberOfBytes": "32"
      },
      "t_mapping(t_address,t_bool)": {
        "encoding": "mapping",
        "key": "t_address",
        "label": "mapping(address => bool)",
        "numberOfBytes": "32",
        "value": "t_bool"
      },
      "t_mapping(t_address,t_mapping(t_address,t_bool))": {
        "encoding": "mapping",
        "key": "t_address",
        "label": "mapping(address => mapping(address => bool))",
        "numberOfBytes": "32",
        "value": "t_mapping(t_address,t_bool)"
      },
      "t_mapping(t_address,t_uint256)": {
        "encoding": "mapping",
        "key": "t_address",
        "label": "mapping(address => uint256)",
        "numberOfBytes": "32",
        "value": "t_uint256"
      },
      "t_mapping(t_bytes32,t_struct(RoleData)2157_storage)": {
        "encoding": "mapping",
        "key": "t_bytes32",
        "label": "mapping(bytes32 => struct AccessControl.RoleData)",
        "numberOfBytes": "32",
        "value": "t_struct(RoleData)2157_storage"
      },
      "t_mapping(t_uint256,t_address)": {
        "encoding": "mapping",
        "key": "t_uint256",
        "label": "mapping(uint256 => address)",
        "numberOfBytes": "32",
        "value": "t_address"
      },
      "t_mapping(t_uint256,t_string_storage)": {
        "encoding": "mapping",
        "key": "t_uint256",
        "label": "mapping(uint256 => string)",
        "numberOfBytes": "32",
        "value": "t_string_storage"
      },
      "t_mapping(t_uint256,t_uint8)": {
        "encoding": "mapping",
        "key": "t_uint256",
        "label": "mapping(uint256 => uint8)",
        "numberOfBytes": "32",
        "value": "t_uint8"
      },
      "t_string_storage": {
        "encoding": "bytes",
        "label": "string",
        "numberOfBytes": "32"
      },
      "t_struct(RoleData)2157_storage": {
        "encoding": "inplace",
        "label": "struct AccessControl.RoleData",
        "members": [
          {
            "astId": 2154,
            "contract": "contracts/ImpactCard.sol:ImpactCard",
            "label": "members",
            "offset": 0,
            "slot": "0",
            "type": "t_mapping(t_address,t_bool)"
          },
          {
            "astId": 2156,
            "contract": "contracts/ImpactCard.sol:ImpactCard",
            "label": "adminRole",
            "offset": 0,
            "slot": "1",
            "type": "t_bytes32"
          }
        ],
        "numberOfBytes": "64"
      },
      "t_uint256": {
        "encoding": "inplace",
        "label": "uint256",
        "numberOfBytes": "32"
      },
      "t_uint8": {
        "encoding": "inplace",
        "label": "uint8",
        "numberOfBytes": "1"
      }
    }
  }
}