{
  "address": "0x9f999062f2a8D53316b402687Ae82FB07aB78aA9",
  "abi": [
    {
      "inputs": [
        {
          "internalType": "address",
          "name": "_impactMarket",
          "type": "address"
        },
        {
          "internalType": "address",
          "name": "_ethicHub",
          "type": "address"
        },
        {
          "internalType": "address",
          "name": "admin",
          "type": "address"
        }
      ],
      "stateMutability": "nonpayable",
      "type": "constructor"
    },
    {
      "anonymous": false,
      "inputs": [
        {
          "indexed": true,
          "internalType": "address",
          "name": "previousOwner",
          "type": "address"
        },
        {
          "indexed": true,
          "internalType": "address",
          "name": "newOwner",
          "type": "address"
        }
      ],
      "name": "OwnershipTransferred",
      "type": "event"
    },
    {
      "anonymous": false,
      "inputs": [
        {
          "indexed": true,
          "internalType": "bytes32",
          "name": "role",
          "type": "bytes32"
        },
        {
          "indexed": true,
          "internalType": "bytes32",
          "name": "previousAdminRole",
          "type": "bytes32"
        },
        {
          "indexed": true,
          "internalType": "bytes32",
          "name": "newAdminRole",
          "type": "bytes32"
        }
      ],
      "name": "RoleAdminChanged",
      "type": "event"
    },
    {
      "anonymous": false,
      "inputs": [
        {
          "indexed": true,
          "internalType": "bytes32",
          "name": "role",
          "type": "bytes32"
        },
        {
          "indexed": true,
          "internalType": "address",
          "name": "account",
          "type": "address"
        },
        {
          "indexed": true,
          "internalType": "address",
          "name": "sender",
          "type": "address"
        }
      ],
      "name": "RoleGranted",
      "type": "event"
    },
    {
      "anonymous": false,
      "inputs": [
        {
          "indexed": true,
          "internalType": "bytes32",
          "name": "role",
          "type": "bytes32"
        },
        {
          "indexed": true,
          "internalType": "address",
          "name": "account",
          "type": "address"
        },
        {
          "indexed": true,
          "internalType": "address",
          "name": "sender",
          "type": "address"
        }
      ],
      "name": "RoleRevoked",
      "type": "event"
    },
    {
      "inputs": [],
      "name": "DEFAULT_ADMIN_ROLE",
      "outputs": [
        {
          "internalType": "bytes32",
          "name": "",
          "type": "bytes32"
        }
      ],
      "stateMutability": "view",
      "type": "function"
    },
    {
      "inputs": [],
      "name": "STAFF_ROLE",
      "outputs": [
        {
          "internalType": "bytes32",
          "name": "",
          "type": "bytes32"
        }
      ],
      "stateMutability": "view",
      "type": "function"
    },
    {
      "inputs": [
        {
          "internalType": "address",
          "name": "account",
          "type": "address"
        }
      ],
      "name": "addStaff",
      "outputs": [],
      "stateMutability": "nonpayable",
      "type": "function"
    },
    {
      "inputs": [
        {
          "internalType": "address",
          "name": "account",
          "type": "address"
        }
      ],
      "name": "disableGitcoinDonated",
      "outputs": [],
      "stateMutability": "nonpayable",
      "type": "function"
    },
    {
      "inputs": [
        {
          "internalType": "address",
          "name": "account",
          "type": "address"
        }
      ],
      "name": "enableGitcoinDonated",
      "outputs": [],
      "stateMutability": "nonpayable",
      "type": "function"
    },
    {
      "inputs": [],
      "name": "ethicHubAddress",
      "outputs": [
        {
          "internalType": "address",
          "name": "",
          "type": "address"
        }
      ],
      "stateMutability": "view",
      "type": "function"
    },
    {
      "inputs": [
        {
          "internalType": "bytes32",
          "name": "role",
          "type": "bytes32"
        }
      ],
      "name": "getRoleAdmin",
      "outputs": [
        {
          "internalType": "bytes32",
          "name": "",
          "type": "bytes32"
        }
      ],
      "stateMutability": "view",
      "type": "function"
    },
    {
      "inputs": [
        {
          "internalType": "bytes32",
          "name": "role",
          "type": "bytes32"
        },
        {
          "internalType": "address",
          "name": "account",
          "type": "address"
        }
      ],
      "name": "grantRole",
      "outputs": [],
      "stateMutability": "nonpayable",
      "type": "function"
    },
    {
      "inputs": [
        {
          "internalType": "bytes32",
          "name": "role",
          "type": "bytes32"
        },
        {
          "internalType": "address",
          "name": "account",
          "type": "address"
        }
      ],
      "name": "hasRole",
      "outputs": [
        {
          "internalType": "bool",
          "name": "",
          "type": "bool"
        }
      ],
      "stateMutability": "view",
      "type": "function"
    },
    {
      "inputs": [],
      "name": "impactMarketAddress",
      "outputs": [
        {
          "internalType": "address",
          "name": "",
          "type": "address"
        }
      ],
      "stateMutability": "view",
      "type": "function"
    },
    {
      "inputs": [],
      "name": "owner",
      "outputs": [
        {
          "internalType": "address",
          "name": "",
          "type": "address"
        }
      ],
      "stateMutability": "view",
      "type": "function"
    },
    {
      "inputs": [
        {
          "internalType": "address",
          "name": "account",
          "type": "address"
        }
      ],
      "name": "removeStaff",
      "outputs": [],
      "stateMutability": "nonpayable",
      "type": "function"
    },
    {
      "inputs": [],
      "name": "renounceOwnership",
      "outputs": [],
      "stateMutability": "nonpayable",
      "type": "function"
    },
    {
      "inputs": [
        {
          "internalType": "bytes32",
          "name": "role",
          "type": "bytes32"
        },
        {
          "internalType": "address",
          "name": "account",
          "type": "address"
        }
      ],
      "name": "renounceRole",
      "outputs": [],
      "stateMutability": "nonpayable",
      "type": "function"
    },
    {
      "inputs": [
        {
          "internalType": "bytes32",
          "name": "role",
          "type": "bytes32"
        },
        {
          "internalType": "address",
          "name": "account",
          "type": "address"
        }
      ],
      "name": "revokeRole",
      "outputs": [],
      "stateMutability": "nonpayable",
      "type": "function"
    },
    {
      "inputs": [
        {
          "internalType": "address",
          "name": "_ethicHubAddress",
          "type": "address"
        }
      ],
      "name": "setEthicHubAddress",
      "outputs": [],
      "stateMutability": "nonpayable",
      "type": "function"
    },
    {
      "inputs": [
        {
          "internalType": "address",
          "name": "_impactMarketAddress",
          "type": "address"
        }
      ],
      "name": "setImpactMarketAddress",
      "outputs": [],
      "stateMutability": "nonpayable",
      "type": "function"
    },
    {
      "inputs": [
        {
          "internalType": "bytes32",
          "name": "id",
          "type": "bytes32"
        },
        {
          "internalType": "address",
          "name": "account",
          "type": "address"
        }
      ],
      "name": "status",
      "outputs": [
        {
          "internalType": "bool",
          "name": "",
          "type": "bool"
        }
      ],
      "stateMutability": "view",
      "type": "function"
    },
    {
      "inputs": [
        {
          "internalType": "bytes4",
          "name": "interfaceId",
          "type": "bytes4"
        }
      ],
      "name": "supportsInterface",
      "outputs": [
        {
          "internalType": "bool",
          "name": "",
          "type": "bool"
        }
      ],
      "stateMutability": "view",
      "type": "function"
    },
    {
      "inputs": [
        {
          "internalType": "address",
          "name": "newOwner",
          "type": "address"
        }
      ],
      "name": "transferOwnership",
      "outputs": [],
      "stateMutability": "nonpayable",
      "type": "function"
    }
  ],
  "transactionHash": "0x736faf0d8d9041c949a17b0244957a2b6d19235582b02bc35a7e21953b218012",
  "args": [
    "0x0000000000000000000000000000000000000000",
    "0xaD2F9f4CD2Ae4f2dD2841EB1ea7e162fb4767D4D",
    "0xA82922D5eA8b79c6363Dd71bC168Ad993A85413E"
  ],
  "numDeployments": 1,
  "solcInputHash": "e17d4e9910b4b04f86d2f3a68859ab89",
  "bytecode": "0x60806040523480156200001157600080fd5b5060405162000fb138038062000fb18339810160408190526200003491620001b0565b6200003f33620000ab565b6200004c600082620000fb565b620000787f5620a1113a72b02a617976b3f6b15600dd7a8b3a916a9ca01e23119d989a054382620000fb565b50600280546001600160a01b039384166001600160a01b03199182161790915560038054929093169116179055620001fa565b600080546001600160a01b038381166001600160a01b0319831681178455604051919092169283917f8be0079c531659141344cd1fd0a4f28419497f9722a3daafe3b4186f6b6457e09190a35050565b6200010782826200010b565b5050565b60008281526001602090815260408083206001600160a01b038516845290915290205460ff16620001075760008281526001602081815260408084206001600160a01b0386168086529252808420805460ff19169093179092559051339285917f2f8788117e7eff1d82e926ec794901d17c78024a50270940304540a733656f0d9190a45050565b80516001600160a01b0381168114620001ab57600080fd5b919050565b600080600060608486031215620001c657600080fd5b620001d18462000193565b9250620001e16020850162000193565b9150620001f16040850162000193565b90509250925092565b610da7806200020a6000396000f3fe608060405234801561001057600080fd5b506004361061012c5760003560e01c806385290fa1116100ad578063c041fdc511610071578063c041fdc514610286578063c4522c9214610299578063d547741f146102ac578063d8ed2b3c146102bf578063f2fde38b146102d257600080fd5b806385290fa1146102325780638da5cb5b1461024757806391d1485414610258578063a07e57f91461026b578063a217fddf1461027e57600080fd5b80632f2ff15d116100f45780632f2ff15d146101de57806336568abe146101f1578063522e4c8a14610204578063715018a61461021757806377364ca51461021f57600080fd5b806301ffc9a71461013157806308be25cb146101595780630f3f90cc1461016e5780631846c9f914610199578063248a9ca3146101ac575b600080fd5b61014461013f366004610ae5565b6102e5565b60405190151581526020015b60405180910390f35b61016c610167366004610b2b565b61031c565b005b600354610181906001600160a01b031681565b6040516001600160a01b039091168152602001610150565b61016c6101a7366004610b2b565b610346565b6101d06101ba366004610b46565b6000908152600160208190526040909120015490565b604051908152602001610150565b61016c6101ec366004610b5f565b6103a4565b61016c6101ff366004610b5f565b6103cf565b61016c610212366004610b2b565b61044d565b61016c610470565b61016c61022d366004610b2b565b610484565b6101d0600080516020610d5283398151915281565b6000546001600160a01b0316610181565b610144610266366004610b5f565b6104ae565b61016c610279366004610b2b565b6104d9565b6101d0600081565b600254610181906001600160a01b031681565b61016c6102a7366004610b2b565b610531565b61016c6102ba366004610b5f565b61054d565b6101446102cd366004610b5f565b610573565b61016c6102e0366004610b2b565b6106e2565b60006001600160e01b03198216637965db0b60e01b148061031657506301ffc9a760e01b6001600160e01b03198316145b92915050565b610324610758565b600280546001600160a01b0319166001600160a01b0392909216919091179055565b61035e600080516020610d52833981519152336104ae565b6103835760405162461bcd60e51b815260040161037a90610b8b565b60405180910390fd5b6001600160a01b03166000908152600460205260409020805460ff19169055565b600082815260016020819052604090912001546103c0816107b2565b6103ca83836107bc565b505050565b6001600160a01b038116331461043f5760405162461bcd60e51b815260206004820152602f60248201527f416363657373436f6e74726f6c3a2063616e206f6e6c792072656e6f756e636560448201526e103937b632b9903337b91039b2b63360891b606482015260840161037a565b6104498282610827565b5050565b610455610758565b61046d600080516020610d52833981519152826103a4565b50565b610478610758565b610482600061088e565b565b61048c610758565b600380546001600160a01b0319166001600160a01b0392909216919091179055565b60009182526001602090815260408084206001600160a01b0393909316845291905290205460ff1690565b6104f1600080516020610d52833981519152336104ae565b61050d5760405162461bcd60e51b815260040161037a90610b8b565b6001600160a01b03166000908152600460205260409020805460ff19166001179055565b610539610758565b61046d600080516020610d52833981519152825b60008281526001602081905260409091200154610569816107b2565b6103ca8383610827565b600060018390036105a057506001600160a01b03811660009081526004602052604090205460ff16610316565b6011839003610641576002546001600160a01b03166105c157506000610316565b60025460405163f223c97360e01b81526001600160a01b03848116600483015290911690600090829063f223c973906024015b602060405180830381865afa158015610611573d6000803e3d6000fd5b505050506040513d601f19601f820116820180604052508101906106359190610bd0565b15159250610316915050565b61011183900361069a576003546001600160a01b031661066357506000610316565b6003546040516370a0823160e01b81526001600160a01b0384811660048301529091169060009082906370a08231906024016105f4565b60405162461bcd60e51b815260206004820152601b60248201527f496d70616374436172644f7261636c653a696e76616c69642d69640000000000604482015260640161037a565b6106ea610758565b6001600160a01b03811661074f5760405162461bcd60e51b815260206004820152602660248201527f4f776e61626c653a206e6577206f776e657220697320746865207a65726f206160448201526564647265737360d01b606482015260840161037a565b61046d8161088e565b6000546001600160a01b031633146104825760405162461bcd60e51b815260206004820181905260248201527f4f776e61626c653a2063616c6c6572206973206e6f7420746865206f776e6572604482015260640161037a565b61046d81336108de565b6107c682826104ae565b6104495760008281526001602081815260408084206001600160a01b0386168086529252808420805460ff19169093179092559051339285917f2f8788117e7eff1d82e926ec794901d17c78024a50270940304540a733656f0d9190a45050565b61083182826104ae565b156104495760008281526001602090815260408083206001600160a01b0385168085529252808320805460ff1916905551339285917ff6391f5c32d9c69d2a47ea670b442974b53935d1edc7fd64eb21e047a839171b9190a45050565b600080546001600160a01b038381166001600160a01b0319831681178455604051919092169283917f8be0079c531659141344cd1fd0a4f28419497f9722a3daafe3b4186f6b6457e09190a35050565b6108e882826104ae565b61044957610900816001600160a01b03166014610942565b61090b836020610942565b60405160200161091c929190610c19565b60408051601f198184030181529082905262461bcd60e51b825261037a91600401610c8e565b60606000610951836002610cd7565b61095c906002610cf6565b67ffffffffffffffff81111561097457610974610d0e565b6040519080825280601f01601f19166020018201604052801561099e576020820181803683370190505b509050600360fc1b816000815181106109b9576109b9610d24565b60200101906001600160f81b031916908160001a905350600f60fb1b816001815181106109e8576109e8610d24565b60200101906001600160f81b031916908160001a9053506000610a0c846002610cd7565b610a17906001610cf6565b90505b6001811115610a8f576f181899199a1a9b1b9c1cb0b131b232b360811b85600f1660108110610a4b57610a4b610d24565b1a60f81b828281518110610a6157610a61610d24565b60200101906001600160f81b031916908160001a90535060049490941c93610a8881610d3a565b9050610a1a565b508315610ade5760405162461bcd60e51b815260206004820181905260248201527f537472696e67733a20686578206c656e67746820696e73756666696369656e74604482015260640161037a565b9392505050565b600060208284031215610af757600080fd5b81356001600160e01b031981168114610ade57600080fd5b80356001600160a01b0381168114610b2657600080fd5b919050565b600060208284031215610b3d57600080fd5b610ade82610b0f565b600060208284031215610b5857600080fd5b5035919050565b60008060408385031215610b7257600080fd5b82359150610b8260208401610b0f565b90509250929050565b60208082526025908201527f496d70616374436172644f7261636c653a6e6f742d617574686f72697a65642d60408201526439ba30b33360d91b606082015260800190565b600060208284031215610be257600080fd5b5051919050565b60005b83811015610c04578181015183820152602001610bec565b83811115610c13576000848401525b50505050565b7f416363657373436f6e74726f6c3a206163636f756e7420000000000000000000815260008351610c51816017850160208801610be9565b7001034b99036b4b9b9b4b733903937b6329607d1b6017918401918201528351610c82816028840160208801610be9565b01602801949350505050565b6020815260008251806020840152610cad816040850160208701610be9565b601f01601f19169190910160400192915050565b634e487b7160e01b600052601160045260246000fd5b6000816000190483118215151615610cf157610cf1610cc1565b500290565b60008219821115610d0957610d09610cc1565b500190565b634e487b7160e01b600052604160045260246000fd5b634e487b7160e01b600052603260045260246000fd5b600081610d4957610d49610cc1565b50600019019056fe5620a1113a72b02a617976b3f6b15600dd7a8b3a916a9ca01e23119d989a0543a26469706673582212204f7db576dc064f83699ad9d8b071cc6fdb7e2c8e21e9804fc414e9939cf8985e64736f6c634300080f0033",
  "devdoc": {
    "kind": "dev",
    "methods": {
      "getRoleAdmin(bytes32)": {
        "details": "Returns the admin role that controls `role`. See {grantRole} and {revokeRole}. To change a role's admin, use {_setRoleAdmin}."
      },
      "grantRole(bytes32,address)": {
        "details": "Grants `role` to `account`. If `account` had not been already granted `role`, emits a {RoleGranted} event. Requirements: - the caller must have ``role``'s admin role. May emit a {RoleGranted} event."
      },
      "hasRole(bytes32,address)": {
        "details": "Returns `true` if `account` has been granted `role`."
      },
      "owner()": {
        "details": "Returns the address of the current owner."
      },
      "renounceOwnership()": {
        "details": "Leaves the contract without owner. It will not be possible to call `onlyOwner` functions anymore. Can only be called by the current owner. NOTE: Renouncing ownership will leave the contract without an owner, thereby removing any functionality that is only available to the owner."
      },
      "renounceRole(bytes32,address)": {
        "details": "Revokes `role` from the calling account. Roles are often managed via {grantRole} and {revokeRole}: this function's purpose is to provide a mechanism for accounts to lose their privileges if they are compromised (such as when a trusted device is misplaced). If the calling account had been revoked `role`, emits a {RoleRevoked} event. Requirements: - the caller must be `account`. May emit a {RoleRevoked} event."
      },
      "revokeRole(bytes32,address)": {
        "details": "Revokes `role` from `account`. If `account` had been granted `role`, emits a {RoleRevoked} event. Requirements: - the caller must have ``role``'s admin role. May emit a {RoleRevoked} event."
      },
      "supportsInterface(bytes4)": {
        "details": "See {IERC165-supportsInterface}."
      },
      "transferOwnership(address)": {
        "details": "Transfers ownership of the contract to a new account (`newOwner`). Can only be called by the current owner."
      }
    },
    "version": 1
  },
  "userdoc": {
    "kind": "user",
    "methods": {},
    "version": 1
  },
  "storageLayout": {
    "storage": [
      {
        "astId": 2538,
        "contract": "contracts/ImpactCardOracle.sol:ImpactCardOracle",
        "label": "_owner",
        "offset": 0,
        "slot": "0",
        "type": "t_address"
      },
      {
        "astId": 2162,
        "contract": "contracts/ImpactCardOracle.sol:ImpactCardOracle",
        "label": "_roles",
        "offset": 0,
        "slot": "1",
        "type": "t_mapping(t_bytes32,t_struct(RoleData)2157_storage)"
      },
      {
        "astId": 4847,
        "contract": "contracts/ImpactCardOracle.sol:ImpactCardOracle",
        "label": "impactMarketAddress",
        "offset": 0,
        "slot": "2",
        "type": "t_address"
      },
      {
        "astId": 4849,
        "contract": "contracts/ImpactCardOracle.sol:ImpactCardOracle",
        "label": "ethicHubAddress",
        "offset": 0,
        "slot": "3",
        "type": "t_address"
      },
      {
        "astId": 4853,
        "contract": "contracts/ImpactCardOracle.sol:ImpactCardOracle",
        "label": "gitcoinDonated",
        "offset": 0,
        "slot": "4",
        "type": "t_mapping(t_address,t_bool)"
      }
    ],
    "types": {
      "t_address": {
        "encoding": "inplace",
        "label": "address",
        "numberOfBytes": "20"
      },
      "t_bool": {
        "encoding": "inplace",
        "label": "bool",
        "numberOfBytes": "1"
      },
      "t_bytes32": {
        "encoding": "inplace",
        "label": "bytes32",
        "numberOfBytes": "32"
      },
      "t_mapping(t_address,t_bool)": {
        "encoding": "mapping",
        "key": "t_address",
        "label": "mapping(address => bool)",
        "numberOfBytes": "32",
        "value": "t_bool"
      },
      "t_mapping(t_bytes32,t_struct(RoleData)2157_storage)": {
        "encoding": "mapping",
        "key": "t_bytes32",
        "label": "mapping(bytes32 => struct AccessControl.RoleData)",
        "numberOfBytes": "32",
        "value": "t_struct(RoleData)2157_storage"
      },
      "t_struct(RoleData)2157_storage": {
        "encoding": "inplace",
        "label": "struct AccessControl.RoleData",
        "members": [
          {
            "astId": 2154,
            "contract": "contracts/ImpactCardOracle.sol:ImpactCardOracle",
            "label": "members",
            "offset": 0,
            "slot": "0",
            "type": "t_mapping(t_address,t_bool)"
          },
          {
            "astId": 2156,
            "contract": "contracts/ImpactCardOracle.sol:ImpactCardOracle",
            "label": "adminRole",
            "offset": 0,
            "slot": "1",
            "type": "t_bytes32"
          }
        ],
        "numberOfBytes": "64"
      }
    }
  }
}